{
  "address": "0xE4a658B83aF78f76D1231370ce417f3b61c61181",
  "abi": [
    {
      "inputs": [
        {
          "internalType": "int256[2][]",
          "name": "_coordinates",
          "type": "int256[2][]"
        }
      ],
      "name": "isPolygon",
      "outputs": [
        {
          "internalType": "bool",
          "name": "",
          "type": "bool"
        }
      ],
      "stateMutability": "pure",
      "type": "function"
    },
    {
      "inputs": [
        {
          "internalType": "int256[2][][][]",
          "name": "_coordinates",
          "type": "int256[2][][][]"
        }
      ],
      "name": "multiPolygonArea",
      "outputs": [
        {
          "internalType": "uint256",
          "name": "",
          "type": "uint256"
        }
      ],
      "stateMutability": "pure",
      "type": "function"
    },
    {
      "inputs": [
        {
          "internalType": "int256[2][][]",
          "name": "_coordinates",
          "type": "int256[2][][]"
        }
      ],
      "name": "polygonArea",
      "outputs": [
        {
          "internalType": "uint256",
          "name": "",
          "type": "uint256"
        }
      ],
      "stateMutability": "pure",
      "type": "function"
    }
  ],
  "transactionHash": "0x239bdce384df3a89c856184b7352ae915323725b08d605decb208cc993c56e9e",
  "args": [],
  "numDeployments": 1,
  "solcInputHash": "68426a560eaecbef1f3ea51cb3cb6807",
  "bytecode": "0x6112b6610053600b82828239805160001a607314610046577f4e487b7100000000000000000000000000000000000000000000000000000000600052600060045260246000fd5b30600052607381538281f3fe730000000000000000000000000000000000000000301460806040526004361061004b5760003560e01c806323b2230514610050578063d818e7c414610080578063defe2c1c146100b0575b600080fd5b61006a60048036038101906100659190610ae1565b6100e0565b6040516100779190610b43565b60405180910390f35b61009a60048036038101906100959190610b5e565b610140565b6040516100a79190610bc2565b60405180910390f35b6100ca60048036038101906100c59190610bdd565b61026b565b6040516100d79190610b43565b60405180910390f35b6000806000905060005b83518110156101365761011684828151811061010957610108610c26565b5b602002602001015161026b565b826101219190610c84565b9150808061012e90610cda565b9150506100ea565b5080915050919050565b6000808251905060028111156102605760008360008151811061016657610165610c26565b5b602002602001015160006002811061018157610180610c26565b5b6020020151905060008460008151811061019e5761019d610c26565b5b60200260200101516001600281106101b9576101b8610c26565b5b602002015190506000856001856101d09190610d22565b815181106101e1576101e0610c26565b5b60200260200101516000600281106101fc576101fb610c26565b5b602002015190506000866001866102139190610d22565b8151811061022457610223610c26565b5b602002602001015160016002811061023f5761023e610c26565b5b60200201519050818414801561025457508083145b95505050505050610266565b60009150505b919050565b60008060009050600083511115610312576102a86102a38460008151811061029657610295610c26565b5b602002602001015161031b565b610578565b816102b39190610d56565b90506000600190505b8351811015610310576102f06102eb8583815181106102de576102dd610c26565b5b602002602001015161031b565b610578565b826102fb9190610dea565b9150808061030890610cda565b9150506102bc565b505b80915050919050565b60008061032783610140565b9050600115158115151461033a57600080fd5b6000835190506103486106a9565b6103506106a9565b6103586106a9565b6000806000806000905060028811156105675760005b88811015610508576002896103839190610d22565b81036103b0576002896103969190610d22565b94506001896103a59190610d22565b935060009250610402565b6001896103bd9190610d22565b81036103df576001896103d09190610d22565b94506000935060019250610401565b8094506001816103ef9190610c84565b93506002816103fe9190610c84565b92505b5b8b858151811061041557610414610c26565b5b602002602001015197508b848151811061043257610431610c26565b5b602002602001015196508b838151811061044f5761044e610c26565b5b60200260200101519550600061047c8760006002811061047257610471610c26565b5b602002015161059a565b905060006104a18a60006002811061049757610496610c26565b5b602002015161059a565b905060006104c68a6001600281106104bc576104bb610c26565b5b60200201516105ce565b905060008183856104d79190610dea565b6104e19190610e7e565b905080866104ef9190610d56565b955050505050808061050090610cda565b91505061036e565b50633b9aca0080633b9aca008060026105219190610e7e565b61052b9190610e7e565b6105359190610e7e565b61053f9190610e7e565b6002626136c061054f91906110f1565b8261055a9190610e7e565b610564919061118c565b90505b809950505050505050505050919050565b600080821215610591578161058c906111f6565b610593565b815b9050919050565b600060b4633b9aca0063bb40e64d846105b39190610e7e565b6105bd9190610e7e565b6105c7919061118c565b9050919050565b600080634000000090506000637fffffff90506000633b9aca006101686105f59190610e7e565b83866106019190610e7e565b61060b919061118c565b905081633b9aca00735c82AEeaB2DCADB3aA6F8AD9318C1A3940B13bac63cb5cc109846040518263ffffffff1660e01b815260040161064a9190610b43565b602060405180830381865af4158015610667573d6000803e3d6000fd5b505050506040513d601f19601f8201168201806040525081019061068b9190611253565b6106959190610e7e565b61069f919061118c565b9350505050919050565b6040518060400160405280600290602082028036833780820191505090505090565b6000604051905090565b600080fd5b600080fd5b600080fd5b6000601f19601f8301169050919050565b7f4e487b7100000000000000000000000000000000000000000000000000000000600052604160045260246000fd5b61072d826106e4565b810181811067ffffffffffffffff8211171561074c5761074b6106f5565b5b80604052505050565b600061075f6106cb565b905061076b8282610724565b919050565b600067ffffffffffffffff82111561078b5761078a6106f5565b5b602082029050602081019050919050565b600080fd5b600067ffffffffffffffff8211156107bc576107bb6106f5565b5b602082029050602081019050919050565b600067ffffffffffffffff8211156107e8576107e76106f5565b5b602082029050602081019050919050565b600067ffffffffffffffff821115610814576108136106f5565b5b602082029050919050565b6000819050919050565b6108328161081f565b811461083d57600080fd5b50565b60008135905061084f81610829565b92915050565b6000610868610863846107f9565b610755565b905080602084028301858111156108825761088161079c565b5b835b818110156108ab57806108978882610840565b845260208401935050602081019050610884565b5050509392505050565b600082601f8301126108ca576108c96106df565b5b60026108d7848285610855565b91505092915050565b60006108f36108ee846107cd565b610755565b905080838252602082019050604084028301858111156109165761091561079c565b5b835b8181101561093f578061092b88826108b5565b845260208401935050604081019050610918565b5050509392505050565b600082601f83011261095e5761095d6106df565b5b813561096e8482602086016108e0565b91505092915050565b600061098a610985846107a1565b610755565b905080838252602082019050602084028301858111156109ad576109ac61079c565b5b835b818110156109f457803567ffffffffffffffff8111156109d2576109d16106df565b5b8086016109df8982610949565b855260208501945050506020810190506109af565b5050509392505050565b600082601f830112610a1357610a126106df565b5b8135610a23848260208601610977565b91505092915050565b6000610a3f610a3a84610770565b610755565b90508083825260208201905060208402830185811115610a6257610a6161079c565b5b835b81811015610aa957803567ffffffffffffffff811115610a8757610a866106df565b5b808601610a9489826109fe565b85526020850194505050602081019050610a64565b5050509392505050565b600082601f830112610ac857610ac76106df565b5b8135610ad8848260208601610a2c565b91505092915050565b600060208284031215610af757610af66106d5565b5b600082013567ffffffffffffffff811115610b1557610b146106da565b5b610b2184828501610ab3565b91505092915050565b6000819050919050565b610b3d81610b2a565b82525050565b6000602082019050610b586000830184610b34565b92915050565b600060208284031215610b7457610b736106d5565b5b600082013567ffffffffffffffff811115610b9257610b916106da565b5b610b9e84828501610949565b91505092915050565b60008115159050919050565b610bbc81610ba7565b82525050565b6000602082019050610bd76000830184610bb3565b92915050565b600060208284031215610bf357610bf26106d5565b5b600082013567ffffffffffffffff811115610c1157610c106106da565b5b610c1d848285016109fe565b91505092915050565b7f4e487b7100000000000000000000000000000000000000000000000000000000600052603260045260246000fd5b7f4e487b7100000000000000000000000000000000000000000000000000000000600052601160045260246000fd5b6000610c8f82610b2a565b9150610c9a83610b2a565b9250827fffffffffffffffffffffffffffffffffffffffffffffffffffffffffffffffff03821115610ccf57610cce610c55565b5b828201905092915050565b6000610ce582610b2a565b91507fffffffffffffffffffffffffffffffffffffffffffffffffffffffffffffffff8203610d1757610d16610c55565b5b600182019050919050565b6000610d2d82610b2a565b9150610d3883610b2a565b925082821015610d4b57610d4a610c55565b5b828203905092915050565b6000610d618261081f565b9150610d6c8361081f565b9250817f7fffffffffffffffffffffffffffffffffffffffffffffffffffffffffffffff03831360008312151615610da757610da6610c55565b5b817f8000000000000000000000000000000000000000000000000000000000000000038312600083121615610ddf57610dde610c55565b5b828201905092915050565b6000610df58261081f565b9150610e008361081f565b9250827f800000000000000000000000000000000000000000000000000000000000000001821260008412151615610e3b57610e3a610c55565b5b827f7fffffffffffffffffffffffffffffffffffffffffffffffffffffffffffffff018213600084121615610e7357610e72610c55565b5b828203905092915050565b6000610e898261081f565b9150610e948361081f565b9250827f7fffffffffffffffffffffffffffffffffffffffffffffffffffffffffffffff0482116000841360008413161615610ed357610ed2610c55565b5b817f80000000000000000000000000000000000000000000000000000000000000000583126000841260008413161615610f1057610f0f610c55565b5b827f80000000000000000000000000000000000000000000000000000000000000000582126000841360008412161615610f4d57610f4c610c55565b5b827f7fffffffffffffffffffffffffffffffffffffffffffffffffffffffffffffff0582126000841260008412161615610f8a57610f89610c55565b5b828202905092915050565b60008160011c9050919050565b6000808291508390505b6001851115610fec57808604811115610fc857610fc7610c55565b5b6001851615610fd75780820291505b8081029050610fe585610f95565b9450610fac565b94509492505050565b6000826000811461100d576001811461101757611020565b60019150506110dc565b829150506110dc565b508161102f57600090506110dc565b60019050600082136001811461104c576000811461106457611078565b82860483111561105f5761105e610c55565b5b611078565b82860583121561107757611076610c55565b5b5b506001831615611086578190505b818202915061109483610f95565b92506110a285848484610fa2565b9250905081850481116000821316156110be576110bd610c55565b5b81840581126000821216156110d6576110d5610c55565b5b81810290505b949350505050565b600060ff82169050919050565b60006110fc8261081f565b9150611107836110e4565b92506111557f7fffffffffffffffffffffffffffffffffffffffffffffffffffffffffffffff7f80000000000000000000000000000000000000000000000000000000000000008585610ff5565b905092915050565b7f4e487b7100000000000000000000000000000000000000000000000000000000600052601260045260246000fd5b60006111978261081f565b91506111a28361081f565b9250826111b2576111b161115d565b5b600160000383147f8000000000000000000000000000000000000000000000000000000000000000831416156111eb576111ea610c55565b5b828205905092915050565b60006112018261081f565b91507f8000000000000000000000000000000000000000000000000000000000000000820361123357611232610c55565b5b816000039050919050565b60008151905061124d81610829565b92915050565b600060208284031215611269576112686106d5565b5b60006112778482850161123e565b9150509291505056fea2646970667358221220c513fdaca3ec80cd279469a962b6c121c94c540de08169a3ffb94ae91985cbdc64736f6c634300080d0033",
  "deployedBytecode": "0x730000000000000000000000000000000000000000301460806040526004361061004b5760003560e01c806323b2230514610050578063d818e7c414610080578063defe2c1c146100b0575b600080fd5b61006a60048036038101906100659190610ae1565b6100e0565b6040516100779190610b43565b60405180910390f35b61009a60048036038101906100959190610b5e565b610140565b6040516100a79190610bc2565b60405180910390f35b6100ca60048036038101906100c59190610bdd565b61026b565b6040516100d79190610b43565b60405180910390f35b6000806000905060005b83518110156101365761011684828151811061010957610108610c26565b5b602002602001015161026b565b826101219190610c84565b9150808061012e90610cda565b9150506100ea565b5080915050919050565b6000808251905060028111156102605760008360008151811061016657610165610c26565b5b602002602001015160006002811061018157610180610c26565b5b6020020151905060008460008151811061019e5761019d610c26565b5b60200260200101516001600281106101b9576101b8610c26565b5b602002015190506000856001856101d09190610d22565b815181106101e1576101e0610c26565b5b60200260200101516000600281106101fc576101fb610c26565b5b602002015190506000866001866102139190610d22565b8151811061022457610223610c26565b5b602002602001015160016002811061023f5761023e610c26565b5b60200201519050818414801561025457508083145b95505050505050610266565b60009150505b919050565b60008060009050600083511115610312576102a86102a38460008151811061029657610295610c26565b5b602002602001015161031b565b610578565b816102b39190610d56565b90506000600190505b8351811015610310576102f06102eb8583815181106102de576102dd610c26565b5b602002602001015161031b565b610578565b826102fb9190610dea565b9150808061030890610cda565b9150506102bc565b505b80915050919050565b60008061032783610140565b9050600115158115151461033a57600080fd5b6000835190506103486106a9565b6103506106a9565b6103586106a9565b6000806000806000905060028811156105675760005b88811015610508576002896103839190610d22565b81036103b0576002896103969190610d22565b94506001896103a59190610d22565b935060009250610402565b6001896103bd9190610d22565b81036103df576001896103d09190610d22565b94506000935060019250610401565b8094506001816103ef9190610c84565b93506002816103fe9190610c84565b92505b5b8b858151811061041557610414610c26565b5b602002602001015197508b848151811061043257610431610c26565b5b602002602001015196508b838151811061044f5761044e610c26565b5b60200260200101519550600061047c8760006002811061047257610471610c26565b5b602002015161059a565b905060006104a18a60006002811061049757610496610c26565b5b602002015161059a565b905060006104c68a6001600281106104bc576104bb610c26565b5b60200201516105ce565b905060008183856104d79190610dea565b6104e19190610e7e565b905080866104ef9190610d56565b955050505050808061050090610cda565b91505061036e565b50633b9aca0080633b9aca008060026105219190610e7e565b61052b9190610e7e565b6105359190610e7e565b61053f9190610e7e565b6002626136c061054f91906110f1565b8261055a9190610e7e565b610564919061118c565b90505b809950505050505050505050919050565b600080821215610591578161058c906111f6565b610593565b815b9050919050565b600060b4633b9aca0063bb40e64d846105b39190610e7e565b6105bd9190610e7e565b6105c7919061118c565b9050919050565b600080634000000090506000637fffffff90506000633b9aca006101686105f59190610e7e565b83866106019190610e7e565b61060b919061118c565b905081633b9aca0073__$ace459064953959b6034b32bdfe6b7b52f$__63cb5cc109846040518263ffffffff1660e01b815260040161064a9190610b43565b602060405180830381865af4158015610667573d6000803e3d6000fd5b505050506040513d601f19601f8201168201806040525081019061068b9190611253565b6106959190610e7e565b61069f919061118c565b9350505050919050565b6040518060400160405280600290602082028036833780820191505090505090565b6000604051905090565b600080fd5b600080fd5b600080fd5b6000601f19601f8301169050919050565b7f4e487b7100000000000000000000000000000000000000000000000000000000600052604160045260246000fd5b61072d826106e4565b810181811067ffffffffffffffff8211171561074c5761074b6106f5565b5b80604052505050565b600061075f6106cb565b905061076b8282610724565b919050565b600067ffffffffffffffff82111561078b5761078a6106f5565b5b602082029050602081019050919050565b600080fd5b600067ffffffffffffffff8211156107bc576107bb6106f5565b5b602082029050602081019050919050565b600067ffffffffffffffff8211156107e8576107e76106f5565b5b602082029050602081019050919050565b600067ffffffffffffffff821115610814576108136106f5565b5b602082029050919050565b6000819050919050565b6108328161081f565b811461083d57600080fd5b50565b60008135905061084f81610829565b92915050565b6000610868610863846107f9565b610755565b905080602084028301858111156108825761088161079c565b5b835b818110156108ab57806108978882610840565b845260208401935050602081019050610884565b5050509392505050565b600082601f8301126108ca576108c96106df565b5b60026108d7848285610855565b91505092915050565b60006108f36108ee846107cd565b610755565b905080838252602082019050604084028301858111156109165761091561079c565b5b835b8181101561093f578061092b88826108b5565b845260208401935050604081019050610918565b5050509392505050565b600082601f83011261095e5761095d6106df565b5b813561096e8482602086016108e0565b91505092915050565b600061098a610985846107a1565b610755565b905080838252602082019050602084028301858111156109ad576109ac61079c565b5b835b818110156109f457803567ffffffffffffffff8111156109d2576109d16106df565b5b8086016109df8982610949565b855260208501945050506020810190506109af565b5050509392505050565b600082601f830112610a1357610a126106df565b5b8135610a23848260208601610977565b91505092915050565b6000610a3f610a3a84610770565b610755565b90508083825260208201905060208402830185811115610a6257610a6161079c565b5b835b81811015610aa957803567ffffffffffffffff811115610a8757610a866106df565b5b808601610a9489826109fe565b85526020850194505050602081019050610a64565b5050509392505050565b600082601f830112610ac857610ac76106df565b5b8135610ad8848260208601610a2c565b91505092915050565b600060208284031215610af757610af66106d5565b5b600082013567ffffffffffffffff811115610b1557610b146106da565b5b610b2184828501610ab3565b91505092915050565b6000819050919050565b610b3d81610b2a565b82525050565b6000602082019050610b586000830184610b34565b92915050565b600060208284031215610b7457610b736106d5565b5b600082013567ffffffffffffffff811115610b9257610b916106da565b5b610b9e84828501610949565b91505092915050565b60008115159050919050565b610bbc81610ba7565b82525050565b6000602082019050610bd76000830184610bb3565b92915050565b600060208284031215610bf357610bf26106d5565b5b600082013567ffffffffffffffff811115610c1157610c106106da565b5b610c1d848285016109fe565b91505092915050565b7f4e487b7100000000000000000000000000000000000000000000000000000000600052603260045260246000fd5b7f4e487b7100000000000000000000000000000000000000000000000000000000600052601160045260246000fd5b6000610c8f82610b2a565b9150610c9a83610b2a565b9250827fffffffffffffffffffffffffffffffffffffffffffffffffffffffffffffffff03821115610ccf57610cce610c55565b5b828201905092915050565b6000610ce582610b2a565b91507fffffffffffffffffffffffffffffffffffffffffffffffffffffffffffffffff8203610d1757610d16610c55565b5b600182019050919050565b6000610d2d82610b2a565b9150610d3883610b2a565b925082821015610d4b57610d4a610c55565b5b828203905092915050565b6000610d618261081f565b9150610d6c8361081f565b9250817f7fffffffffffffffffffffffffffffffffffffffffffffffffffffffffffffff03831360008312151615610da757610da6610c55565b5b817f8000000000000000000000000000000000000000000000000000000000000000038312600083121615610ddf57610dde610c55565b5b828201905092915050565b6000610df58261081f565b9150610e008361081f565b9250827f800000000000000000000000000000000000000000000000000000000000000001821260008412151615610e3b57610e3a610c55565b5b827f7fffffffffffffffffffffffffffffffffffffffffffffffffffffffffffffff018213600084121615610e7357610e72610c55565b5b828203905092915050565b6000610e898261081f565b9150610e948361081f565b9250827f7fffffffffffffffffffffffffffffffffffffffffffffffffffffffffffffff0482116000841360008413161615610ed357610ed2610c55565b5b817f80000000000000000000000000000000000000000000000000000000000000000583126000841260008413161615610f1057610f0f610c55565b5b827f80000000000000000000000000000000000000000000000000000000000000000582126000841360008412161615610f4d57610f4c610c55565b5b827f7fffffffffffffffffffffffffffffffffffffffffffffffffffffffffffffff0582126000841260008412161615610f8a57610f89610c55565b5b828202905092915050565b60008160011c9050919050565b6000808291508390505b6001851115610fec57808604811115610fc857610fc7610c55565b5b6001851615610fd75780820291505b8081029050610fe585610f95565b9450610fac565b94509492505050565b6000826000811461100d576001811461101757611020565b60019150506110dc565b829150506110dc565b508161102f57600090506110dc565b60019050600082136001811461104c576000811461106457611078565b82860483111561105f5761105e610c55565b5b611078565b82860583121561107757611076610c55565b5b5b506001831615611086578190505b818202915061109483610f95565b92506110a285848484610fa2565b9250905081850481116000821316156110be576110bd610c55565b5b81840581126000821216156110d6576110d5610c55565b5b81810290505b949350505050565b600060ff82169050919050565b60006110fc8261081f565b9150611107836110e4565b92506111557f7fffffffffffffffffffffffffffffffffffffffffffffffffffffffffffffff7f80000000000000000000000000000000000000000000000000000000000000008585610ff5565b905092915050565b7f4e487b7100000000000000000000000000000000000000000000000000000000600052601260045260246000fd5b60006111978261081f565b91506111a28361081f565b9250826111b2576111b161115d565b5b600160000383147f8000000000000000000000000000000000000000000000000000000000000000831416156111eb576111ea610c55565b5b828205905092915050565b60006112018261081f565b91507f8000000000000000000000000000000000000000000000000000000000000000820361123357611232610c55565b5b816000039050919050565b60008151905061124d81610829565b92915050565b600060208284031215611269576112686106d5565b5b60006112778482850161123e565b9150509291505056fea2646970667358221220c513fdaca3ec80cd279469a962b6c121c94c540de08169a3ffb94ae91985cbdc64736f6c634300080d0033",
  "libraries": {
    "Trigonometry": "0x5c82AEeaB2DCADB3aA6F8AD9318C1A3940B13bac"
  },
  "devdoc": {
    "kind": "dev",
    "methods": {
      "isPolygon(int256[2][])": {
        "params": {
          "_coordinates": "Polygon ring"
        },
        "returns": {
          "_0": "Boolean whether the coordinates represents a closed polygon or not"
        }
      },
      "multiPolygonArea(int256[2][][][])": {
        "params": {
          "_coordinates": "Big Number integer coordinates of a multi polygon"
        },
        "returns": {
          "_0": "Area measured in square meters"
        }
      },
      "polygonArea(int256[2][][])": {
        "params": {
          "_coordinates": "Big Number integer coordinates of a single polygon - an array of rings"
        },
        "returns": {
          "_0": "Area measured in square meters"
        }
      }
    },
    "version": 1
  },
  "userdoc": {
    "kind": "user",
    "methods": {
      "isPolygon(int256[2][])": {
        "notice": "Checks to make sure first and last coordinates are the same"
      },
      "multiPolygonArea(int256[2][][][])": {
        "notice": "Calculate the area of a multi polygon coordinates"
      },
      "polygonArea(int256[2][][])": {
        "notice": "Calculate the area of a single polygon coordinates"
      }
    },
    "version": 1
  },
  "storageLayout": {
    "storage": [],
    "types": null
  }
}