{
  "address": "0x1ef62ad49E30dc0f0C0f1c692Aa468B902c64E63",
  "abi": [
    {
      "inputs": [
        {
          "internalType": "string",
          "name": "_geohash",
          "type": "string"
        }
      ],
      "name": "decode",
      "outputs": [
        {
          "internalType": "int64[2]",
          "name": "",
          "type": "int64[2]"
        }
      ],
      "stateMutability": "pure",
      "type": "function"
    },
    {
      "inputs": [
        {
          "internalType": "int64",
          "name": "_lat",
          "type": "int64"
        },
        {
          "internalType": "int64",
          "name": "_lon",
          "type": "int64"
        },
        {
          "internalType": "uint8",
          "name": "_precision",
          "type": "uint8"
        }
      ],
      "name": "encode",
      "outputs": [
        {
          "internalType": "string",
          "name": "",
          "type": "string"
        }
      ],
      "stateMutability": "pure",
      "type": "function"
    }
  ],
  "transactionHash": "0xdc74f8b8d8764d9098e82f7b09261d6df06e8f45271799edc55bde20b04ac69d",
  "args": [],
  "numDeployments": 1,
  "solcInputHash": "68426a560eaecbef1f3ea51cb3cb6807",
  "bytecode": "0x61106b610053600b82828239805160001a607314610046577f4e487b7100000000000000000000000000000000000000000000000000000000600052600060045260246000fd5b30600052607381538281f3fe73000000000000000000000000000000000000000030146080604052600436106100405760003560e01c806349145c91146100455780637161e2e014610075575b600080fd5b61005f600480360381019061005a9190610964565b6100a5565b60405161006c9190610a65565b60405180910390f35b61008f600480360381019061008a9190610ae5565b610195565b60405161009c9190610bc0565b60405180910390f35b6100ad6107c6565b60006100b883610466565b90506000816000600481106100d0576100cf610be2565b5b602002015190506000826001600481106100ed576100ec610be2565b5b6020020151905060008360026004811061010a57610109610be2565b5b6020020151905060008460036004811061012757610126610be2565b5b6020020151905060006002838661013e9190610c40565b6101489190610ceb565b905060006002838661015a9190610c40565b6101649190610ceb565b905060405180604001604052808360070b60070b81526020018260070b60070b815250975050505050505050919050565b606060008260ff1667ffffffffffffffff8111156101b6576101b5610839565b5b6040519080825280601f01601f1916602001820160405280156101e85781602001600182028036833780820191505090505b509050600080600080633b9aca00605a6102029190610d55565b90506000633b9aca007fffffffffffffffffffffffffffffffffffffffffffffffffffffffffffffffa66102369190610d55565b90506000633b9aca0060b461024b9190610d55565b90506000633b9aca007fffffffffffffffffffffffffffffffffffffffffffffffffffffffffffffff4c61027f9190610d55565b90506000805b8b60ff168160ff1610156104525760006002896102a29190610e49565b60000b0361030e57600283856102b89190610c40565b6102c29190610ceb565b91508160070b8d60070b13156102ef576001808860000b901b6102e59190610e7a565b9650819250610309565b600060018860000b901b6103039190610e7a565b96508193505b61036e565b6002858761031c9190610c40565b6103269190610ceb565b91508160070b8e60070b1315610353576001808860000b901b6103499190610e7a565b965081945061036d565b600060018860000b901b6103679190610e7a565b96508195505b5b888061037990610eef565b995050878061038790610eef565b98505060058960000b0361044d5760006040518060400160405280602081526020017f30313233343536373839626364656667686a6b6d6e707172737475767778797a8152508860ff16815181106103e2576103e1610be2565b5b602001015160f81c60f81b9050808b8360ff168151811061040657610405610be2565b5b60200101907effffffffffffffffffffffffffffffffffffffffffffffffffffffffffffff1916908160001a9053506000995060009750818061044890610f18565b925050505b610285565b899a50505050505050505050509392505050565b61046e6107e8565b6000600190506000633b9aca00605a6104879190610d55565b90506000633b9aca007fffffffffffffffffffffffffffffffffffffffffffffffffffffffffffffffa66104bb9190610d55565b90506000633b9aca0060b46104d09190610d55565b90506000633b9aca007fffffffffffffffffffffffffffffffffffffffffffffffffffffffffffffff4c6105049190610d55565b905060008060005b89518160ff16101561067e5760008a8260ff16815181106105305761052f610be2565b5b602001015160f81c60f81b60405160200161054b9190610f8e565b604051602081830303815290604052905061059b6040518060400160405280602081526020017f30313233343536373839626364656667686a6b6d6e707172737475767778797a815250826106c6565b925060008360ff1610156105ae57600080fd5b6000600590505b60008160ff161115610669576000600180836105d19190610fa9565b60ff168660ff16901c1690508a1561061c57600287896105f19190610c40565b6105fb9190610ceb565b955060018160ff16146106115785975087610616565b859650865b50610651565b6002898b61062a9190610c40565b6106349190610ceb565b955060018160ff161461064a578599508961064f565b859850885b505b8a159a5050808061066190610fdd565b9150506105b5565b5050808061067690610f18565b91505061050c565b5060405180608001604052808660070b60070b81526020018460070b60070b81526020018760070b60070b81526020018560070b60070b815250975050505050505050919050565b600080839050600083905060018151146106e3576106e2611006565b5b60005b82518160ff161015610799578160008151811061070657610705610be2565b5b602001015160f81c60f81b7effffffffffffffffffffffffffffffffffffffffffffffffffffffffffffff1916838260ff168151811061074957610748610be2565b5b602001015160f81c60f81b7effffffffffffffffffffffffffffffffffffffffffffffffffffffffffffff191603610786578093505050506107c0565b808061079190610f18565b9150506106e6565b507fffffffffffffffffffffffffffffffffffffffffffffffffffffffffffffffff925050505b92915050565b6040518060400160405280600290602082028036833780820191505090505090565b6040518060800160405280600490602082028036833780820191505090505090565b6000604051905090565b600080fd5b600080fd5b600080fd5b600080fd5b6000601f19601f8301169050919050565b7f4e487b7100000000000000000000000000000000000000000000000000000000600052604160045260246000fd5b61087182610828565b810181811067ffffffffffffffff821117156108905761088f610839565b5b80604052505050565b60006108a361080a565b90506108af8282610868565b919050565b600067ffffffffffffffff8211156108cf576108ce610839565b5b6108d882610828565b9050602081019050919050565b82818337600083830152505050565b6000610907610902846108b4565b610899565b90508281526020810184848401111561092357610922610823565b5b61092e8482856108e5565b509392505050565b600082601f83011261094b5761094a61081e565b5b813561095b8482602086016108f4565b91505092915050565b60006020828403121561097a57610979610814565b5b600082013567ffffffffffffffff81111561099857610997610819565b5b6109a484828501610936565b91505092915050565b600060029050919050565b600081905092915050565b6000819050919050565b60008160070b9050919050565b6109e3816109cd565b82525050565b60006109f583836109da565b60208301905092915050565b6000602082019050919050565b610a17816109ad565b610a2181846109b8565b9250610a2c826109c3565b8060005b83811015610a5d578151610a4487826109e9565b9650610a4f83610a01565b925050600181019050610a30565b505050505050565b6000604082019050610a7a6000830184610a0e565b92915050565b610a89816109cd565b8114610a9457600080fd5b50565b600081359050610aa681610a80565b92915050565b600060ff82169050919050565b610ac281610aac565b8114610acd57600080fd5b50565b600081359050610adf81610ab9565b92915050565b600080600060608486031215610afe57610afd610814565b5b6000610b0c86828701610a97565b9350506020610b1d86828701610a97565b9250506040610b2e86828701610ad0565b9150509250925092565b600081519050919050565b600082825260208201905092915050565b60005b83811015610b72578082015181840152602081019050610b57565b83811115610b81576000848401525b50505050565b6000610b9282610b38565b610b9c8185610b43565b9350610bac818560208601610b54565b610bb581610828565b840191505092915050565b60006020820190508181036000830152610bda8184610b87565b905092915050565b7f4e487b7100000000000000000000000000000000000000000000000000000000600052603260045260246000fd5b7f4e487b7100000000000000000000000000000000000000000000000000000000600052601160045260246000fd5b6000610c4b826109cd565b9150610c56836109cd565b925081677fffffffffffffff03831360008312151615610c7957610c78610c11565b5b817fffffffffffffffffffffffffffffffffffffffffffffffff8000000000000000038312600083121615610cb157610cb0610c11565b5b828201905092915050565b7f4e487b7100000000000000000000000000000000000000000000000000000000600052601260045260246000fd5b6000610cf6826109cd565b9150610d01836109cd565b925082610d1157610d10610cbc565b5b600160000383147fffffffffffffffffffffffffffffffffffffffffffffffff800000000000000083141615610d4a57610d49610c11565b5b828205905092915050565b6000610d60826109cd565b9150610d6b836109cd565b925082677fffffffffffffff0482116000841360008413161615610d9257610d91610c11565b5b817fffffffffffffffffffffffffffffffffffffffffffffffff80000000000000000583126000841260008413161615610dcf57610dce610c11565b5b827fffffffffffffffffffffffffffffffffffffffffffffffff80000000000000000582126000841360008412161615610e0c57610e0b610c11565b5b82677fffffffffffffff0582126000841260008412161615610e3157610e30610c11565b5b828202905092915050565b60008160000b9050919050565b6000610e5482610e3c565b9150610e5f83610e3c565b925082610e6f57610e6e610cbc565b5b828207905092915050565b6000610e8582610e3c565b9150610e9083610e3c565b925081607f03831360008312151615610eac57610eab610c11565b5b817fffffffffffffffffffffffffffffffffffffffffffffffffffffffffffffff80038312600083121615610ee457610ee3610c11565b5b828201905092915050565b6000610efa82610e3c565b9150607f8203610f0d57610f0c610c11565b5b600182019050919050565b6000610f2382610aac565b915060ff8203610f3657610f35610c11565b5b600182019050919050565b60007fff0000000000000000000000000000000000000000000000000000000000000082169050919050565b6000819050919050565b610f88610f8382610f41565b610f6d565b82525050565b6000610f9a8284610f77565b60018201915081905092915050565b6000610fb482610aac565b9150610fbf83610aac565b925082821015610fd257610fd1610c11565b5b828203905092915050565b6000610fe882610aac565b915060008203610ffb57610ffa610c11565b5b600182039050919050565b7f4e487b7100000000000000000000000000000000000000000000000000000000600052600160045260246000fdfea2646970667358221220230de82b5af34049a889e6aab846cfa0dbdfb875570426c057647ff2ae1e305a64736f6c634300080d0033",
  "devdoc": {
    "kind": "dev",
    "methods": {
      "decode(string)": {
        "params": {
          "_geohash": "Geohash string up to 9 characters of precision"
        },
        "returns": {
          "_0": "Array of Big Number integer coordinates (lat, lon)"
        }
      },
      "encode(int64,int64,uint8)": {
        "params": {
          "_lat": "latitude",
          "_lon": "longitude",
          "_precision": "geohash length precision"
        },
        "returns": {
          "_0": "Geohash string with the same length as the _precision value (1-9)"
        }
      }
    },
    "version": 1
  },
  "userdoc": {
    "kind": "user",
    "methods": {
      "decode(string)": {
        "notice": "Decode a geohash of any given length to a pair of coordinates     Obtained from the node geohash package (ngeohash): https://github.com/sunng87/node-geohash"
      },
      "encode(int64,int64,uint8)": {
        "notice": "Encode point into geohash (more of geohash: https://en.wikipedia.org/wiki/Geohash).     Obtained from the node geohash package (ngeohash): https://github.com/sunng87/node-geohash"
      }
    },
    "version": 1
  },
  "storageLayout": {
    "storage": [],
    "types": null
  }
}