{
  "address": "0x16E6b0d95609bA6156E8933fF381880a5c787691",
  "abi": [
    {
      "inputs": [],
      "stateMutability": "nonpayable",
      "type": "constructor"
    },
    {
      "anonymous": false,
      "inputs": [
        {
          "indexed": true,
          "internalType": "address",
          "name": "owner",
          "type": "address"
        },
        {
          "indexed": true,
          "internalType": "address",
          "name": "approved",
          "type": "address"
        },
        {
          "indexed": true,
          "internalType": "uint256",
          "name": "tokenId",
          "type": "uint256"
        }
      ],
      "name": "Approval",
      "type": "event"
    },
    {
      "anonymous": false,
      "inputs": [
        {
          "indexed": true,
          "internalType": "address",
          "name": "owner",
          "type": "address"
        },
        {
          "indexed": true,
          "internalType": "address",
          "name": "operator",
          "type": "address"
        },
        {
          "indexed": false,
          "internalType": "bool",
          "name": "approved",
          "type": "bool"
        }
      ],
      "name": "ApprovalForAll",
      "type": "event"
    },
    {
      "anonymous": false,
      "inputs": [
        {
          "indexed": true,
          "internalType": "address",
          "name": "previousOwner",
          "type": "address"
        },
        {
          "indexed": true,
          "internalType": "address",
          "name": "newOwner",
          "type": "address"
        }
      ],
      "name": "OwnershipTransferred",
      "type": "event"
    },
    {
      "anonymous": false,
      "inputs": [
        {
          "indexed": true,
          "internalType": "address",
          "name": "from",
          "type": "address"
        },
        {
          "indexed": true,
          "internalType": "address",
          "name": "to",
          "type": "address"
        },
        {
          "indexed": true,
          "internalType": "uint256",
          "name": "tokenId",
          "type": "uint256"
        }
      ],
      "name": "Transfer",
      "type": "event"
    },
    {
      "inputs": [
        {
          "internalType": "address",
          "name": "to",
          "type": "address"
        },
        {
          "internalType": "uint256",
          "name": "tokenId",
          "type": "uint256"
        }
      ],
      "name": "approve",
      "outputs": [],
      "stateMutability": "nonpayable",
      "type": "function"
    },
    {
      "inputs": [
        {
          "internalType": "address",
          "name": "owner",
          "type": "address"
        }
      ],
      "name": "balanceOf",
      "outputs": [
        {
          "internalType": "uint256",
          "name": "",
          "type": "uint256"
        }
      ],
      "stateMutability": "view",
      "type": "function"
    },
    {
      "inputs": [
        {
          "internalType": "uint256",
          "name": "tokenId",
          "type": "uint256"
        }
      ],
      "name": "burn",
      "outputs": [],
      "stateMutability": "nonpayable",
      "type": "function"
    },
    {
      "inputs": [
        {
          "internalType": "uint256",
          "name": "tokenId",
          "type": "uint256"
        }
      ],
      "name": "geoJson",
      "outputs": [
        {
          "internalType": "string",
          "name": "",
          "type": "string"
        }
      ],
      "stateMutability": "view",
      "type": "function"
    },
    {
      "inputs": [
        {
          "internalType": "uint256",
          "name": "tokenId",
          "type": "uint256"
        }
      ],
      "name": "getApproved",
      "outputs": [
        {
          "internalType": "address",
          "name": "",
          "type": "address"
        }
      ],
      "stateMutability": "view",
      "type": "function"
    },
    {
      "inputs": [
        {
          "internalType": "address",
          "name": "owner",
          "type": "address"
        }
      ],
      "name": "getTokensByOwner",
      "outputs": [
        {
          "internalType": "uint256[]",
          "name": "",
          "type": "uint256[]"
        },
        {
          "internalType": "string[]",
          "name": "",
          "type": "string[]"
        },
        {
          "internalType": "string[]",
          "name": "",
          "type": "string[]"
        }
      ],
      "stateMutability": "view",
      "type": "function"
    },
    {
      "inputs": [
        {
          "internalType": "uint256",
          "name": "tokenId",
          "type": "uint256"
        }
      ],
      "name": "indexType",
      "outputs": [
        {
          "internalType": "string",
          "name": "",
          "type": "string"
        }
      ],
      "stateMutability": "view",
      "type": "function"
    },
    {
      "inputs": [
        {
          "internalType": "uint256",
          "name": "tokenId",
          "type": "uint256"
        }
      ],
      "name": "indexValue",
      "outputs": [
        {
          "internalType": "uint256",
          "name": "",
          "type": "uint256"
        }
      ],
      "stateMutability": "view",
      "type": "function"
    },
    {
      "inputs": [
        {
          "internalType": "address",
          "name": "owner",
          "type": "address"
        },
        {
          "internalType": "address",
          "name": "operator",
          "type": "address"
        }
      ],
      "name": "isApprovedForAll",
      "outputs": [
        {
          "internalType": "bool",
          "name": "",
          "type": "bool"
        }
      ],
      "stateMutability": "view",
      "type": "function"
    },
    {
      "inputs": [],
      "name": "name",
      "outputs": [
        {
          "internalType": "string",
          "name": "",
          "type": "string"
        }
      ],
      "stateMutability": "view",
      "type": "function"
    },
    {
      "inputs": [],
      "name": "owner",
      "outputs": [
        {
          "internalType": "address",
          "name": "",
          "type": "address"
        }
      ],
      "stateMutability": "view",
      "type": "function"
    },
    {
      "inputs": [
        {
          "internalType": "uint256",
          "name": "tokenId",
          "type": "uint256"
        }
      ],
      "name": "ownerOf",
      "outputs": [
        {
          "internalType": "address",
          "name": "",
          "type": "address"
        }
      ],
      "stateMutability": "view",
      "type": "function"
    },
    {
      "inputs": [],
      "name": "renounceOwnership",
      "outputs": [],
      "stateMutability": "nonpayable",
      "type": "function"
    },
    {
      "inputs": [
        {
          "internalType": "address",
          "name": "to",
          "type": "address"
        },
        {
          "internalType": "string",
          "name": "uri",
          "type": "string"
        },
        {
          "internalType": "string",
          "name": "_geoJson",
          "type": "string"
        }
      ],
      "name": "safeMint",
      "outputs": [],
      "stateMutability": "nonpayable",
      "type": "function"
    },
    {
      "inputs": [
        {
          "internalType": "address",
          "name": "from",
          "type": "address"
        },
        {
          "internalType": "address",
          "name": "to",
          "type": "address"
        },
        {
          "internalType": "uint256",
          "name": "tokenId",
          "type": "uint256"
        }
      ],
      "name": "safeTransferFrom",
      "outputs": [],
      "stateMutability": "nonpayable",
      "type": "function"
    },
    {
      "inputs": [
        {
          "internalType": "address",
          "name": "from",
          "type": "address"
        },
        {
          "internalType": "address",
          "name": "to",
          "type": "address"
        },
        {
          "internalType": "uint256",
          "name": "tokenId",
          "type": "uint256"
        },
        {
          "internalType": "bytes",
          "name": "data",
          "type": "bytes"
        }
      ],
      "name": "safeTransferFrom",
      "outputs": [],
      "stateMutability": "nonpayable",
      "type": "function"
    },
    {
      "inputs": [
        {
          "internalType": "address",
          "name": "operator",
          "type": "address"
        },
        {
          "internalType": "bool",
          "name": "approved",
          "type": "bool"
        }
      ],
      "name": "setApprovalForAll",
      "outputs": [],
      "stateMutability": "nonpayable",
      "type": "function"
    },
    {
      "inputs": [
        {
          "internalType": "uint256",
          "name": "tokenId",
          "type": "uint256"
        },
        {
          "internalType": "string",
          "name": "_geoJson",
          "type": "string"
        }
      ],
      "name": "setGeoJson",
      "outputs": [],
      "stateMutability": "nonpayable",
      "type": "function"
    },
    {
      "inputs": [
        {
          "internalType": "uint256",
          "name": "tokenId",
          "type": "uint256"
        },
        {
          "internalType": "string",
          "name": "indiceType",
          "type": "string"
        }
      ],
      "name": "setIndexType",
      "outputs": [],
      "stateMutability": "nonpayable",
      "type": "function"
    },
    {
      "inputs": [
        {
          "internalType": "uint256",
          "name": "tokenId",
          "type": "uint256"
        },
        {
          "internalType": "uint256",
          "name": "_indexValue",
          "type": "uint256"
        }
      ],
      "name": "setIndexValue",
      "outputs": [],
      "stateMutability": "nonpayable",
      "type": "function"
    },
    {
      "inputs": [
        {
          "internalType": "uint256",
          "name": "tokenId",
          "type": "uint256"
        },
        {
          "internalType": "string",
          "name": "uri",
          "type": "string"
        }
      ],
      "name": "setTokenURI",
      "outputs": [],
      "stateMutability": "nonpayable",
      "type": "function"
    },
    {
      "inputs": [
        {
          "internalType": "bytes4",
          "name": "interfaceId",
          "type": "bytes4"
        }
      ],
      "name": "supportsInterface",
      "outputs": [
        {
          "internalType": "bool",
          "name": "",
          "type": "bool"
        }
      ],
      "stateMutability": "view",
      "type": "function"
    },
    {
      "inputs": [],
      "name": "symbol",
      "outputs": [
        {
          "internalType": "string",
          "name": "",
          "type": "string"
        }
      ],
      "stateMutability": "view",
      "type": "function"
    },
    {
      "inputs": [
        {
          "internalType": "uint256",
          "name": "index",
          "type": "uint256"
        }
      ],
      "name": "tokenByIndex",
      "outputs": [
        {
          "internalType": "uint256",
          "name": "",
          "type": "uint256"
        }
      ],
      "stateMutability": "view",
      "type": "function"
    },
    {
      "inputs": [
        {
          "internalType": "address",
          "name": "owner",
          "type": "address"
        },
        {
          "internalType": "uint256",
          "name": "index",
          "type": "uint256"
        }
      ],
      "name": "tokenOfOwnerByIndex",
      "outputs": [
        {
          "internalType": "uint256",
          "name": "",
          "type": "uint256"
        }
      ],
      "stateMutability": "view",
      "type": "function"
    },
    {
      "inputs": [
        {
          "internalType": "uint256",
          "name": "tokenId",
          "type": "uint256"
        }
      ],
      "name": "tokenURI",
      "outputs": [
        {
          "internalType": "string",
          "name": "",
          "type": "string"
        }
      ],
      "stateMutability": "view",
      "type": "function"
    },
    {
      "inputs": [],
      "name": "totalSupply",
      "outputs": [
        {
          "internalType": "uint256",
          "name": "",
          "type": "uint256"
        }
      ],
      "stateMutability": "view",
      "type": "function"
    },
    {
      "inputs": [
        {
          "internalType": "address",
          "name": "from",
          "type": "address"
        },
        {
          "internalType": "address",
          "name": "to",
          "type": "address"
        },
        {
          "internalType": "uint256",
          "name": "tokenId",
          "type": "uint256"
        }
      ],
      "name": "transferFrom",
      "outputs": [],
      "stateMutability": "nonpayable",
      "type": "function"
    },
    {
      "inputs": [
        {
          "internalType": "address",
          "name": "newOwner",
          "type": "address"
        }
      ],
      "name": "transferOwnership",
      "outputs": [],
      "stateMutability": "nonpayable",
      "type": "function"
    }
  ],
  "transactionHash": "0x83a38b8480eb3bff4dbfe3984cc9894fa06bf07d453609a12181d9c57fc6790d",
  "args": [],
  "numDeployments": 1,
  "solcInputHash": "68426a560eaecbef1f3ea51cb3cb6807",
  "bytecode": "0x60806040523480156200001157600080fd5b506040518060400160405280600d81526020017f47454f4e4654204d696e746572000000000000000000000000000000000000008152506040518060400160405280600681526020017f47454f4e46540000000000000000000000000000000000000000000000000000815250816000908051906020019062000096929190620001a6565b508060019080519060200190620000af929190620001a6565b505050620000d2620000c6620000d860201b60201c565b620000e060201b60201c565b620002ba565b600033905090565b6000600b60009054906101000a900473ffffffffffffffffffffffffffffffffffffffff16905081600b60006101000a81548173ffffffffffffffffffffffffffffffffffffffff021916908373ffffffffffffffffffffffffffffffffffffffff1602179055508173ffffffffffffffffffffffffffffffffffffffff168173ffffffffffffffffffffffffffffffffffffffff167f8be0079c531659141344cd1fd0a4f28419497f9722a3daafe3b4186f6b6457e060405160405180910390a35050565b828054620001b49062000285565b90600052602060002090601f016020900481019282620001d8576000855562000224565b82601f10620001f357805160ff191683800117855562000224565b8280016001018555821562000224579182015b828111156200022357825182559160200191906001019062000206565b5b50905062000233919062000237565b5090565b5b808211156200025257600081600090555060010162000238565b5090565b7f4e487b7100000000000000000000000000000000000000000000000000000000600052602260045260246000fd5b600060028204905060018216806200029e57607f821691505b602082108103620002b457620002b362000256565b5b50919050565b61404680620002ca6000396000f3fe608060405234801561001057600080fd5b50600436106101cf5760003560e01c806342966c681161010457806395d89b41116100a2578063e985e9c511610071578063e985e9c514610564578063eca81d4214610594578063f2fde38b146105b0578063f31eb450146105cc576101cf565b806395d89b41146104de578063a22cb465146104fc578063b88d4fde14610518578063c87b56dd14610534576101cf565b806370a08231116100de57806370a082311461046a578063715018a61461049a57806382997cb6146104a45780638da5cb5b146104c0576101cf565b806342966c68146103ee5780634f6ccce71461040a5780636352211e1461043a576101cf565b8063219144a011610171578063356e57771161014b578063356e577714610354578063396cffb71461037057806340398d67146103a057806342842e0e146103d2576101cf565b8063219144a0146102d857806323b872dd146103085780632f745c5914610324576101cf565b8063095ea7b3116101ad578063095ea7b314610252578063162094c41461026e57806318160ddd1461028a5780631d14607f146102a8576101cf565b806301ffc9a7146101d457806306fdde0314610204578063081812fc14610222575b600080fd5b6101ee60048036038101906101e99190612ae6565b6105e8565b6040516101fb9190612b2e565b60405180910390f35b61020c6105fa565b6040516102199190612be2565b60405180910390f35b61023c60048036038101906102379190612c3a565b61068c565b6040516102499190612ca8565b60405180910390f35b61026c60048036038101906102679190612cef565b6106d2565b005b61028860048036038101906102839190612e64565b6107e9565b005b6102926107ff565b60405161029f9190612ecf565b60405180910390f35b6102c260048036038101906102bd9190612c3a565b61080c565b6040516102cf9190612be2565b60405180910390f35b6102f260048036038101906102ed9190612c3a565b6108b7565b6040516102ff9190612be2565b60405180910390f35b610322600480360381019061031d9190612eea565b610962565b005b61033e60048036038101906103399190612cef565b6109c2565b60405161034b9190612ecf565b60405180910390f35b61036e60048036038101906103699190612f3d565b610a67565b005b61038a60048036038101906103859190612c3a565b610a8b565b6040516103979190612ecf565b60405180910390f35b6103ba60048036038101906103b59190612f7d565b610aad565b6040516103c993929190613174565b60405180910390f35b6103ec60048036038101906103e79190612eea565b610d21565b005b61040860048036038101906104039190612c3a565b610d41565b005b610424600480360381019061041f9190612c3a565b610d9d565b6040516104319190612ecf565b60405180910390f35b610454600480360381019061044f9190612c3a565b610e0e565b6040516104619190612ca8565b60405180910390f35b610484600480360381019061047f9190612f7d565b610ebf565b6040516104919190612ecf565b60405180910390f35b6104a2610f76565b005b6104be60048036038101906104b99190612e64565b610f8a565b005b6104c8610fbe565b6040516104d59190612ca8565b60405180910390f35b6104e6610fe8565b6040516104f39190612be2565b60405180910390f35b610516600480360381019061051191906131ec565b61107a565b005b610532600480360381019061052d91906132cd565b611090565b005b61054e60048036038101906105499190612c3a565b6110f2565b60405161055b9190612be2565b60405180910390f35b61057e60048036038101906105799190613350565b611104565b60405161058b9190612b2e565b60405180910390f35b6105ae60048036038101906105a99190613390565b611198565b005b6105ca60048036038101906105c59190612f7d565b611268565b005b6105e660048036038101906105e19190612e64565b6112eb565b005b60006105f38261131f565b9050919050565b6060600080546106099061344a565b80601f01602080910402602001604051908101604052809291908181526020018280546106359061344a565b80156106825780601f1061065757610100808354040283529160200191610682565b820191906000526020600020905b81548152906001019060200180831161066557829003601f168201915b5050505050905090565b600061069782611399565b6004600083815260200190815260200160002060009054906101000a900473ffffffffffffffffffffffffffffffffffffffff169050919050565b60006106dd82610e0e565b90508073ffffffffffffffffffffffffffffffffffffffff168373ffffffffffffffffffffffffffffffffffffffff160361074d576040517f08c379a0000000000000000000000000000000000000000000000000000000008152600401610744906134ed565b60405180910390fd5b8073ffffffffffffffffffffffffffffffffffffffff1661076c6113e4565b73ffffffffffffffffffffffffffffffffffffffff16148061079b575061079a816107956113e4565b611104565b5b6107da576040517f08c379a00000000000000000000000000000000000000000000000000000000081526004016107d19061357f565b60405180910390fd5b6107e483836113ec565b505050565b6107f16114a5565b6107fb8282611523565b5050565b6000600880549050905090565b60606000600f6000848152602001908152602001600020805461082e9061344a565b80601f016020809104026020016040519081016040528092919081815260200182805461085a9061344a565b80156108a75780601f1061087c576101008083540402835291602001916108a7565b820191906000526020600020905b81548152906001019060200180831161088a57829003601f168201915b5050505050905080915050919050565b60606000600d600084815260200190815260200160002080546108d99061344a565b80601f01602080910402602001604051908101604052809291908181526020018280546109059061344a565b80156109525780601f1061092757610100808354040283529160200191610952565b820191906000526020600020905b81548152906001019060200180831161093557829003601f168201915b5050505050905080915050919050565b61097361096d6113e4565b82611597565b6109b2576040517f08c379a00000000000000000000000000000000000000000000000000000000081526004016109a990613611565b60405180910390fd5b6109bd83838361162c565b505050565b60006109cd83610ebf565b8210610a0e576040517f08c379a0000000000000000000000000000000000000000000000000000000008152600401610a05906136a3565b60405180910390fd5b600660008473ffffffffffffffffffffffffffffffffffffffff1673ffffffffffffffffffffffffffffffffffffffff168152602001908152602001600020600083815260200190815260200160002054905092915050565b610a6f6114a5565b80600e6000848152602001908152602001600020819055505050565b600080600e600084815260200190815260200160002054905080915050919050565b60608060606000610abd85610ebf565b905060008167ffffffffffffffff811115610adb57610ada612d39565b5b604051908082528060200260200182016040528015610b095781602001602082028036833780820191505090505b50905060008267ffffffffffffffff811115610b2857610b27612d39565b5b604051908082528060200260200182016040528015610b5b57816020015b6060815260200190600190039081610b465790505b50905060008367ffffffffffffffff811115610b7a57610b79612d39565b5b604051908082528060200260200182016040528015610bad57816020015b6060815260200190600190039081610b985790505b50905060005b84811015610d0c57610bc589826109c2565b848281518110610bd857610bd76136c3565b5b602002602001018181525050610c07848281518110610bfa57610bf96136c3565b5b60200260200101516110f2565b838281518110610c1a57610c196136c3565b5b6020026020010181905250600d6000858381518110610c3c57610c3b6136c3565b5b602002602001015181526020019081526020016000208054610c5d9061344a565b80601f0160208091040260200160405190810160405280929190818152602001828054610c899061344a565b8015610cd65780601f10610cab57610100808354040283529160200191610cd6565b820191906000526020600020905b815481529060010190602001808311610cb957829003601f168201915b5050505050828281518110610cee57610ced6136c3565b5b60200260200101819052508080610d0490613721565b915050610bb3565b83838397509750975050505050509193909250565b610d3c83838360405180602001604052806000815250611090565b505050565b610d52610d4c6113e4565b82611597565b610d91576040517f08c379a0000000000000000000000000000000000000000000000000000000008152600401610d8890613611565b60405180910390fd5b610d9a81611892565b50565b6000610da76107ff565b8210610de8576040517f08c379a0000000000000000000000000000000000000000000000000000000008152600401610ddf906137db565b60405180910390fd5b60088281548110610dfc57610dfb6136c3565b5b90600052602060002001549050919050565b6000806002600084815260200190815260200160002060009054906101000a900473ffffffffffffffffffffffffffffffffffffffff169050600073ffffffffffffffffffffffffffffffffffffffff168173ffffffffffffffffffffffffffffffffffffffff1603610eb6576040517f08c379a0000000000000000000000000000000000000000000000000000000008152600401610ead90613847565b60405180910390fd5b80915050919050565b60008073ffffffffffffffffffffffffffffffffffffffff168273ffffffffffffffffffffffffffffffffffffffff1603610f2f576040517f08c379a0000000000000000000000000000000000000000000000000000000008152600401610f26906138d9565b60405180910390fd5b600360008373ffffffffffffffffffffffffffffffffffffffff1673ffffffffffffffffffffffffffffffffffffffff168152602001908152602001600020549050919050565b610f7e6114a5565b610f88600061189e565b565b610f926114a5565b80600f60008481526020019081526020016000209080519060200190610fb9929190612997565b505050565b6000600b60009054906101000a900473ffffffffffffffffffffffffffffffffffffffff16905090565b606060018054610ff79061344a565b80601f01602080910402602001604051908101604052809291908181526020018280546110239061344a565b80156110705780601f1061104557610100808354040283529160200191611070565b820191906000526020600020905b81548152906001019060200180831161105357829003601f168201915b5050505050905090565b61108c6110856113e4565b8383611964565b5050565b6110a161109b6113e4565b83611597565b6110e0576040517f08c379a00000000000000000000000000000000000000000000000000000000081526004016110d790613611565b60405180910390fd5b6110ec84848484611ad0565b50505050565b60606110fd82611b2c565b9050919050565b6000600560008473ffffffffffffffffffffffffffffffffffffffff1673ffffffffffffffffffffffffffffffffffffffff16815260200190815260200160002060008373ffffffffffffffffffffffffffffffffffffffff1673ffffffffffffffffffffffffffffffffffffffff16815260200190815260200160002060009054906101000a900460ff16905092915050565b60006111a4600c611c3e565b90506111b0600c611c4c565b81600d600083815260200190815260200160002090805190602001906111d7929190612997565b506000600e6000838152602001908152602001600020819055506040518060400160405280600781526020017f617265615f6d3200000000000000000000000000000000000000000000000000815250600f6000838152602001908152602001600020908051906020019061124d929190612997565b506112588482611c62565b6112628184611523565b50505050565b6112706114a5565b600073ffffffffffffffffffffffffffffffffffffffff168173ffffffffffffffffffffffffffffffffffffffff16036112df576040517f08c379a00000000000000000000000000000000000000000000000000000000081526004016112d69061396b565b60405180910390fd5b6112e88161189e565b50565b6112f36114a5565b80600d6000848152602001908152602001600020908051906020019061131a929190612997565b505050565b60007f780e9d63000000000000000000000000000000000000000000000000000000007bffffffffffffffffffffffffffffffffffffffffffffffffffffffff1916827bffffffffffffffffffffffffffffffffffffffffffffffffffffffff19161480611392575061139182611c80565b5b9050919050565b6113a281611d62565b6113e1576040517f08c379a00000000000000000000000000000000000000000000000000000000081526004016113d890613847565b60405180910390fd5b50565b600033905090565b816004600083815260200190815260200160002060006101000a81548173ffffffffffffffffffffffffffffffffffffffff021916908373ffffffffffffffffffffffffffffffffffffffff160217905550808273ffffffffffffffffffffffffffffffffffffffff1661145f83610e0e565b73ffffffffffffffffffffffffffffffffffffffff167f8c5be1e5ebec7d5bd14f71427d1e84f3dd0314c0f7b2291e5b200ac8c7c3b92560405160405180910390a45050565b6114ad6113e4565b73ffffffffffffffffffffffffffffffffffffffff166114cb610fbe565b73ffffffffffffffffffffffffffffffffffffffff1614611521576040517f08c379a0000000000000000000000000000000000000000000000000000000008152600401611518906139d7565b60405180910390fd5b565b61152c82611d62565b61156b576040517f08c379a000000000000000000000000000000000000000000000000000000000815260040161156290613a69565b60405180910390fd5b80600a60008481526020019081526020016000209080519060200190611592929190612997565b505050565b6000806115a383610e0e565b90508073ffffffffffffffffffffffffffffffffffffffff168473ffffffffffffffffffffffffffffffffffffffff1614806115e557506115e48185611104565b5b8061162357508373ffffffffffffffffffffffffffffffffffffffff1661160b8461068c565b73ffffffffffffffffffffffffffffffffffffffff16145b91505092915050565b8273ffffffffffffffffffffffffffffffffffffffff1661164c82610e0e565b73ffffffffffffffffffffffffffffffffffffffff16146116a2576040517f08c379a000000000000000000000000000000000000000000000000000000000815260040161169990613afb565b60405180910390fd5b600073ffffffffffffffffffffffffffffffffffffffff168273ffffffffffffffffffffffffffffffffffffffff1603611711576040517f08c379a000000000000000000000000000000000000000000000000000000000815260040161170890613b8d565b60405180910390fd5b61171c838383611dce565b6117276000826113ec565b6001600360008573ffffffffffffffffffffffffffffffffffffffff1673ffffffffffffffffffffffffffffffffffffffff16815260200190815260200160002060008282546117779190613bad565b925050819055506001600360008473ffffffffffffffffffffffffffffffffffffffff1673ffffffffffffffffffffffffffffffffffffffff16815260200190815260200160002060008282546117ce9190613be1565b92505081905550816002600083815260200190815260200160002060006101000a81548173ffffffffffffffffffffffffffffffffffffffff021916908373ffffffffffffffffffffffffffffffffffffffff160217905550808273ffffffffffffffffffffffffffffffffffffffff168473ffffffffffffffffffffffffffffffffffffffff167fddf252ad1be2c89b69c2b068fc378daa952ba7f163c4a11628f55a4df523b3ef60405160405180910390a461188d838383611dde565b505050565b61189b81611de3565b50565b6000600b60009054906101000a900473ffffffffffffffffffffffffffffffffffffffff16905081600b60006101000a81548173ffffffffffffffffffffffffffffffffffffffff021916908373ffffffffffffffffffffffffffffffffffffffff1602179055508173ffffffffffffffffffffffffffffffffffffffff168173ffffffffffffffffffffffffffffffffffffffff167f8be0079c531659141344cd1fd0a4f28419497f9722a3daafe3b4186f6b6457e060405160405180910390a35050565b8173ffffffffffffffffffffffffffffffffffffffff168373ffffffffffffffffffffffffffffffffffffffff16036119d2576040517f08c379a00000000000000000000000000000000000000000000000000000000081526004016119c990613c83565b60405180910390fd5b80600560008573ffffffffffffffffffffffffffffffffffffffff1673ffffffffffffffffffffffffffffffffffffffff16815260200190815260200160002060008473ffffffffffffffffffffffffffffffffffffffff1673ffffffffffffffffffffffffffffffffffffffff16815260200190815260200160002060006101000a81548160ff0219169083151502179055508173ffffffffffffffffffffffffffffffffffffffff168373ffffffffffffffffffffffffffffffffffffffff167f17307eab39ab6107e8899845ad3d59bd9653f200f220920489ca2b5937696c3183604051611ac39190612b2e565b60405180910390a3505050565b611adb84848461162c565b611ae784848484611e36565b611b26576040517f08c379a0000000000000000000000000000000000000000000000000000000008152600401611b1d90613d15565b60405180910390fd5b50505050565b6060611b3782611399565b6000600a60008481526020019081526020016000208054611b579061344a565b80601f0160208091040260200160405190810160405280929190818152602001828054611b839061344a565b8015611bd05780601f10611ba557610100808354040283529160200191611bd0565b820191906000526020600020905b815481529060010190602001808311611bb357829003601f168201915b505050505090506000611be1611fbd565b90506000815103611bf6578192505050611c39565b600082511115611c2b578082604051602001611c13929190613d71565b60405160208183030381529060405292505050611c39565b611c3484611fd4565b925050505b919050565b600081600001549050919050565b6001816000016000828254019250508190555050565b611c7c82826040518060200160405280600081525061203c565b5050565b60007f80ac58cd000000000000000000000000000000000000000000000000000000007bffffffffffffffffffffffffffffffffffffffffffffffffffffffff1916827bffffffffffffffffffffffffffffffffffffffffffffffffffffffff19161480611d4b57507f5b5e139f000000000000000000000000000000000000000000000000000000007bffffffffffffffffffffffffffffffffffffffffffffffffffffffff1916827bffffffffffffffffffffffffffffffffffffffffffffffffffffffff1916145b80611d5b5750611d5a82612097565b5b9050919050565b60008073ffffffffffffffffffffffffffffffffffffffff166002600084815260200190815260200160002060009054906101000a900473ffffffffffffffffffffffffffffffffffffffff1673ffffffffffffffffffffffffffffffffffffffff1614159050919050565b611dd9838383612101565b505050565b505050565b611dec81612213565b6000600a60008381526020019081526020016000208054611e0c9061344a565b905014611e3357600a60008281526020019081526020016000206000611e329190612a1d565b5b50565b6000611e578473ffffffffffffffffffffffffffffffffffffffff16612330565b15611fb0578373ffffffffffffffffffffffffffffffffffffffff1663150b7a02611e806113e4565b8786866040518563ffffffff1660e01b8152600401611ea29493929190613dea565b6020604051808303816000875af1925050508015611ede57506040513d601f19601f82011682018060405250810190611edb9190613e4b565b60015b611f60573d8060008114611f0e576040519150601f19603f3d011682016040523d82523d6000602084013e611f13565b606091505b506000815103611f58576040517f08c379a0000000000000000000000000000000000000000000000000000000008152600401611f4f90613d15565b60405180910390fd5b805181602001fd5b63150b7a0260e01b7bffffffffffffffffffffffffffffffffffffffffffffffffffffffff1916817bffffffffffffffffffffffffffffffffffffffffffffffffffffffff191614915050611fb5565b600190505b949350505050565b606060405180602001604052806000815250905090565b6060611fdf82611399565b6000611fe9611fbd565b905060008151116120095760405180602001604052806000815250612034565b8061201384612353565b604051602001612024929190613d71565b6040516020818303038152906040525b915050919050565b61204683836124b3565b6120536000848484611e36565b612092576040517f08c379a000000000000000000000000000000000000000000000000000000000815260040161208990613d15565b60405180910390fd5b505050565b60007f01ffc9a7000000000000000000000000000000000000000000000000000000007bffffffffffffffffffffffffffffffffffffffffffffffffffffffff1916827bffffffffffffffffffffffffffffffffffffffffffffffffffffffff1916149050919050565b61210c83838361268c565b600073ffffffffffffffffffffffffffffffffffffffff168373ffffffffffffffffffffffffffffffffffffffff160361214e5761214981612691565b61218d565b8173ffffffffffffffffffffffffffffffffffffffff168373ffffffffffffffffffffffffffffffffffffffff161461218c5761218b83826126da565b5b5b600073ffffffffffffffffffffffffffffffffffffffff168273ffffffffffffffffffffffffffffffffffffffff16036121cf576121ca81612847565b61220e565b8273ffffffffffffffffffffffffffffffffffffffff168273ffffffffffffffffffffffffffffffffffffffff161461220d5761220c8282612918565b5b5b505050565b600061221e82610e0e565b905061222c81600084611dce565b6122376000836113ec565b6001600360008373ffffffffffffffffffffffffffffffffffffffff1673ffffffffffffffffffffffffffffffffffffffff16815260200190815260200160002060008282546122879190613bad565b925050819055506002600083815260200190815260200160002060006101000a81549073ffffffffffffffffffffffffffffffffffffffff021916905581600073ffffffffffffffffffffffffffffffffffffffff168273ffffffffffffffffffffffffffffffffffffffff167fddf252ad1be2c89b69c2b068fc378daa952ba7f163c4a11628f55a4df523b3ef60405160405180910390a461232c81600084611dde565b5050565b6000808273ffffffffffffffffffffffffffffffffffffffff163b119050919050565b60606000820361239a576040518060400160405280600181526020017f300000000000000000000000000000000000000000000000000000000000000081525090506124ae565b600082905060005b600082146123cc5780806123b590613721565b915050600a826123c59190613ea7565b91506123a2565b60008167ffffffffffffffff8111156123e8576123e7612d39565b5b6040519080825280601f01601f19166020018201604052801561241a5781602001600182028036833780820191505090505b5090505b600085146124a7576001826124339190613bad565b9150600a856124429190613ed8565b603061244e9190613be1565b60f81b818381518110612464576124636136c3565b5b60200101907effffffffffffffffffffffffffffffffffffffffffffffffffffffffffffff1916908160001a905350600a856124a09190613ea7565b945061241e565b8093505050505b919050565b600073ffffffffffffffffffffffffffffffffffffffff168273ffffffffffffffffffffffffffffffffffffffff1603612522576040517f08c379a000000000000000000000000000000000000000000000000000000000815260040161251990613f55565b60405180910390fd5b61252b81611d62565b1561256b576040517f08c379a000000000000000000000000000000000000000000000000000000000815260040161256290613fc1565b60405180910390fd5b61257760008383611dce565b6001600360008473ffffffffffffffffffffffffffffffffffffffff1673ffffffffffffffffffffffffffffffffffffffff16815260200190815260200160002060008282546125c79190613be1565b92505081905550816002600083815260200190815260200160002060006101000a81548173ffffffffffffffffffffffffffffffffffffffff021916908373ffffffffffffffffffffffffffffffffffffffff160217905550808273ffffffffffffffffffffffffffffffffffffffff16600073ffffffffffffffffffffffffffffffffffffffff167fddf252ad1be2c89b69c2b068fc378daa952ba7f163c4a11628f55a4df523b3ef60405160405180910390a461268860008383611dde565b5050565b505050565b6008805490506009600083815260200190815260200160002081905550600881908060018154018082558091505060019003906000526020600020016000909190919091505550565b600060016126e784610ebf565b6126f19190613bad565b90506000600760008481526020019081526020016000205490508181146127d6576000600660008673ffffffffffffffffffffffffffffffffffffffff1673ffffffffffffffffffffffffffffffffffffffff168152602001908152602001600020600084815260200190815260200160002054905080600660008773ffffffffffffffffffffffffffffffffffffffff1673ffffffffffffffffffffffffffffffffffffffff168152602001908152602001600020600084815260200190815260200160002081905550816007600083815260200190815260200160002081905550505b6007600084815260200190815260200160002060009055600660008573ffffffffffffffffffffffffffffffffffffffff1673ffffffffffffffffffffffffffffffffffffffff16815260200190815260200160002060008381526020019081526020016000206000905550505050565b6000600160088054905061285b9190613bad565b905060006009600084815260200190815260200160002054905060006008838154811061288b5761288a6136c3565b5b9060005260206000200154905080600883815481106128ad576128ac6136c3565b5b9060005260206000200181905550816009600083815260200190815260200160002081905550600960008581526020019081526020016000206000905560088054806128fc576128fb613fe1565b5b6001900381819060005260206000200160009055905550505050565b600061292383610ebf565b905081600660008573ffffffffffffffffffffffffffffffffffffffff1673ffffffffffffffffffffffffffffffffffffffff168152602001908152602001600020600083815260200190815260200160002081905550806007600084815260200190815260200160002081905550505050565b8280546129a39061344a565b90600052602060002090601f0160209004810192826129c55760008555612a0c565b82601f106129de57805160ff1916838001178555612a0c565b82800160010185558215612a0c579182015b82811115612a0b5782518255916020019190600101906129f0565b5b509050612a199190612a5d565b5090565b508054612a299061344a565b6000825580601f10612a3b5750612a5a565b601f016020900490600052602060002090810190612a599190612a5d565b5b50565b5b80821115612a76576000816000905550600101612a5e565b5090565b6000604051905090565b600080fd5b600080fd5b60007fffffffff0000000000000000000000000000000000000000000000000000000082169050919050565b612ac381612a8e565b8114612ace57600080fd5b50565b600081359050612ae081612aba565b92915050565b600060208284031215612afc57612afb612a84565b5b6000612b0a84828501612ad1565b91505092915050565b60008115159050919050565b612b2881612b13565b82525050565b6000602082019050612b436000830184612b1f565b92915050565b600081519050919050565b600082825260208201905092915050565b60005b83811015612b83578082015181840152602081019050612b68565b83811115612b92576000848401525b50505050565b6000601f19601f8301169050919050565b6000612bb482612b49565b612bbe8185612b54565b9350612bce818560208601612b65565b612bd781612b98565b840191505092915050565b60006020820190508181036000830152612bfc8184612ba9565b905092915050565b6000819050919050565b612c1781612c04565b8114612c2257600080fd5b50565b600081359050612c3481612c0e565b92915050565b600060208284031215612c5057612c4f612a84565b5b6000612c5e84828501612c25565b91505092915050565b600073ffffffffffffffffffffffffffffffffffffffff82169050919050565b6000612c9282612c67565b9050919050565b612ca281612c87565b82525050565b6000602082019050612cbd6000830184612c99565b92915050565b612ccc81612c87565b8114612cd757600080fd5b50565b600081359050612ce981612cc3565b92915050565b60008060408385031215612d0657612d05612a84565b5b6000612d1485828601612cda565b9250506020612d2585828601612c25565b9150509250929050565b600080fd5b600080fd5b7f4e487b7100000000000000000000000000000000000000000000000000000000600052604160045260246000fd5b612d7182612b98565b810181811067ffffffffffffffff82111715612d9057612d8f612d39565b5b80604052505050565b6000612da3612a7a565b9050612daf8282612d68565b919050565b600067ffffffffffffffff821115612dcf57612dce612d39565b5b612dd882612b98565b9050602081019050919050565b82818337600083830152505050565b6000612e07612e0284612db4565b612d99565b905082815260208101848484011115612e2357612e22612d34565b5b612e2e848285612de5565b509392505050565b600082601f830112612e4b57612e4a612d2f565b5b8135612e5b848260208601612df4565b91505092915050565b60008060408385031215612e7b57612e7a612a84565b5b6000612e8985828601612c25565b925050602083013567ffffffffffffffff811115612eaa57612ea9612a89565b5b612eb685828601612e36565b9150509250929050565b612ec981612c04565b82525050565b6000602082019050612ee46000830184612ec0565b92915050565b600080600060608486031215612f0357612f02612a84565b5b6000612f1186828701612cda565b9350506020612f2286828701612cda565b9250506040612f3386828701612c25565b9150509250925092565b60008060408385031215612f5457612f53612a84565b5b6000612f6285828601612c25565b9250506020612f7385828601612c25565b9150509250929050565b600060208284031215612f9357612f92612a84565b5b6000612fa184828501612cda565b91505092915050565b600081519050919050565b600082825260208201905092915050565b6000819050602082019050919050565b612fdf81612c04565b82525050565b6000612ff18383612fd6565b60208301905092915050565b6000602082019050919050565b600061301582612faa565b61301f8185612fb5565b935061302a83612fc6565b8060005b8381101561305b5781516130428882612fe5565b975061304d83612ffd565b92505060018101905061302e565b5085935050505092915050565b600081519050919050565b600082825260208201905092915050565b6000819050602082019050919050565b600082825260208201905092915050565b60006130b082612b49565b6130ba8185613094565b93506130ca818560208601612b65565b6130d381612b98565b840191505092915050565b60006130ea83836130a5565b905092915050565b6000602082019050919050565b600061310a82613068565b6131148185613073565b93508360208202850161312685613084565b8060005b85811015613162578484038952815161314385826130de565b945061314e836130f2565b925060208a0199505060018101905061312a565b50829750879550505050505092915050565b6000606082019050818103600083015261318e818661300a565b905081810360208301526131a281856130ff565b905081810360408301526131b681846130ff565b9050949350505050565b6131c981612b13565b81146131d457600080fd5b50565b6000813590506131e6816131c0565b92915050565b6000806040838503121561320357613202612a84565b5b600061321185828601612cda565b9250506020613222858286016131d7565b9150509250929050565b600067ffffffffffffffff82111561324757613246612d39565b5b61325082612b98565b9050602081019050919050565b600061327061326b8461322c565b612d99565b90508281526020810184848401111561328c5761328b612d34565b5b613297848285612de5565b509392505050565b600082601f8301126132b4576132b3612d2f565b5b81356132c484826020860161325d565b91505092915050565b600080600080608085870312156132e7576132e6612a84565b5b60006132f587828801612cda565b945050602061330687828801612cda565b935050604061331787828801612c25565b925050606085013567ffffffffffffffff81111561333857613337612a89565b5b6133448782880161329f565b91505092959194509250565b6000806040838503121561336757613366612a84565b5b600061337585828601612cda565b925050602061338685828601612cda565b9150509250929050565b6000806000606084860312156133a9576133a8612a84565b5b60006133b786828701612cda565b935050602084013567ffffffffffffffff8111156133d8576133d7612a89565b5b6133e486828701612e36565b925050604084013567ffffffffffffffff81111561340557613404612a89565b5b61341186828701612e36565b9150509250925092565b7f4e487b7100000000000000000000000000000000000000000000000000000000600052602260045260246000fd5b6000600282049050600182168061346257607f821691505b6020821081036134755761347461341b565b5b50919050565b7f4552433732313a20617070726f76616c20746f2063757272656e74206f776e6560008201527f7200000000000000000000000000000000000000000000000000000000000000602082015250565b60006134d7602183612b54565b91506134e28261347b565b604082019050919050565b60006020820190508181036000830152613506816134ca565b9050919050565b7f4552433732313a20617070726f76652063616c6c6572206973206e6f7420746f60008201527f6b656e206f776e6572206e6f7220617070726f76656420666f7220616c6c0000602082015250565b6000613569603e83612b54565b91506135748261350d565b604082019050919050565b600060208201905081810360008301526135988161355c565b9050919050565b7f4552433732313a2063616c6c6572206973206e6f7420746f6b656e206f776e6560008201527f72206e6f7220617070726f766564000000000000000000000000000000000000602082015250565b60006135fb602e83612b54565b91506136068261359f565b604082019050919050565b6000602082019050818103600083015261362a816135ee565b9050919050565b7f455243373231456e756d657261626c653a206f776e657220696e646578206f7560008201527f74206f6620626f756e6473000000000000000000000000000000000000000000602082015250565b600061368d602b83612b54565b915061369882613631565b604082019050919050565b600060208201905081810360008301526136bc81613680565b9050919050565b7f4e487b7100000000000000000000000000000000000000000000000000000000600052603260045260246000fd5b7f4e487b7100000000000000000000000000000000000000000000000000000000600052601160045260246000fd5b600061372c82612c04565b91507fffffffffffffffffffffffffffffffffffffffffffffffffffffffffffffffff820361375e5761375d6136f2565b5b600182019050919050565b7f455243373231456e756d657261626c653a20676c6f62616c20696e646578206f60008201527f7574206f6620626f756e64730000000000000000000000000000000000000000602082015250565b60006137c5602c83612b54565b91506137d082613769565b604082019050919050565b600060208201905081810360008301526137f4816137b8565b9050919050565b7f4552433732313a20696e76616c696420746f6b656e2049440000000000000000600082015250565b6000613831601883612b54565b915061383c826137fb565b602082019050919050565b6000602082019050818103600083015261386081613824565b9050919050565b7f4552433732313a2061646472657373207a65726f206973206e6f74206120766160008201527f6c6964206f776e65720000000000000000000000000000000000000000000000602082015250565b60006138c3602983612b54565b91506138ce82613867565b604082019050919050565b600060208201905081810360008301526138f2816138b6565b9050919050565b7f4f776e61626c653a206e6577206f776e657220697320746865207a65726f206160008201527f6464726573730000000000000000000000000000000000000000000000000000602082015250565b6000613955602683612b54565b9150613960826138f9565b604082019050919050565b6000602082019050818103600083015261398481613948565b9050919050565b7f4f776e61626c653a2063616c6c6572206973206e6f7420746865206f776e6572600082015250565b60006139c1602083612b54565b91506139cc8261398b565b602082019050919050565b600060208201905081810360008301526139f0816139b4565b9050919050565b7f45524337323155524953746f726167653a2055524920736574206f66206e6f6e60008201527f6578697374656e7420746f6b656e000000000000000000000000000000000000602082015250565b6000613a53602e83612b54565b9150613a5e826139f7565b604082019050919050565b60006020820190508181036000830152613a8281613a46565b9050919050565b7f4552433732313a207472616e736665722066726f6d20696e636f72726563742060008201527f6f776e6572000000000000000000000000000000000000000000000000000000602082015250565b6000613ae5602583612b54565b9150613af082613a89565b604082019050919050565b60006020820190508181036000830152613b1481613ad8565b9050919050565b7f4552433732313a207472616e7366657220746f20746865207a65726f2061646460008201527f7265737300000000000000000000000000000000000000000000000000000000602082015250565b6000613b77602483612b54565b9150613b8282613b1b565b604082019050919050565b60006020820190508181036000830152613ba681613b6a565b9050919050565b6000613bb882612c04565b9150613bc383612c04565b925082821015613bd657613bd56136f2565b5b828203905092915050565b6000613bec82612c04565b9150613bf783612c04565b9250827fffffffffffffffffffffffffffffffffffffffffffffffffffffffffffffffff03821115613c2c57613c2b6136f2565b5b828201905092915050565b7f4552433732313a20617070726f766520746f2063616c6c657200000000000000600082015250565b6000613c6d601983612b54565b9150613c7882613c37565b602082019050919050565b60006020820190508181036000830152613c9c81613c60565b9050919050565b7f4552433732313a207472616e7366657220746f206e6f6e20455243373231526560008201527f63656976657220696d706c656d656e7465720000000000000000000000000000602082015250565b6000613cff603283612b54565b9150613d0a82613ca3565b604082019050919050565b60006020820190508181036000830152613d2e81613cf2565b9050919050565b600081905092915050565b6000613d4b82612b49565b613d558185613d35565b9350613d65818560208601612b65565b80840191505092915050565b6000613d7d8285613d40565b9150613d898284613d40565b91508190509392505050565b600081519050919050565b600082825260208201905092915050565b6000613dbc82613d95565b613dc68185613da0565b9350613dd6818560208601612b65565b613ddf81612b98565b840191505092915050565b6000608082019050613dff6000830187612c99565b613e0c6020830186612c99565b613e196040830185612ec0565b8181036060830152613e2b8184613db1565b905095945050505050565b600081519050613e4581612aba565b92915050565b600060208284031215613e6157613e60612a84565b5b6000613e6f84828501613e36565b91505092915050565b7f4e487b7100000000000000000000000000000000000000000000000000000000600052601260045260246000fd5b6000613eb282612c04565b9150613ebd83612c04565b925082613ecd57613ecc613e78565b5b828204905092915050565b6000613ee382612c04565b9150613eee83612c04565b925082613efe57613efd613e78565b5b828206905092915050565b7f4552433732313a206d696e7420746f20746865207a65726f2061646472657373600082015250565b6000613f3f602083612b54565b9150613f4a82613f09565b602082019050919050565b60006020820190508181036000830152613f6e81613f32565b9050919050565b7f4552433732313a20746f6b656e20616c7265616479206d696e74656400000000600082015250565b6000613fab601c83612b54565b9150613fb682613f75565b602082019050919050565b60006020820190508181036000830152613fda81613f9e565b9050919050565b7f4e487b7100000000000000000000000000000000000000000000000000000000600052603160045260246000fdfea264697066735822122051bd6bc50d723b30810f2ce1bd0da90231f8943b7499c5e829c3d94c0012db3e64736f6c634300080d0033",
  "devdoc": {
    "kind": "dev",
    "methods": {
      "approve(address,uint256)": {
        "details": "See {IERC721-approve}."
      },
      "balanceOf(address)": {
        "details": "See {IERC721-balanceOf}."
      },
      "burn(uint256)": {
        "details": "Burns `tokenId`. See {ERC721-_burn}. Requirements: - The caller must own `tokenId` or be an approved operator."
      },
      "getApproved(uint256)": {
        "details": "See {IERC721-getApproved}."
      },
      "isApprovedForAll(address,address)": {
        "details": "See {IERC721-isApprovedForAll}."
      },
      "name()": {
        "details": "See {IERC721Metadata-name}."
      },
      "owner()": {
        "details": "Returns the address of the current owner."
      },
      "ownerOf(uint256)": {
        "details": "See {IERC721-ownerOf}."
      },
      "renounceOwnership()": {
        "details": "Leaves the contract without owner. It will not be possible to call `onlyOwner` functions anymore. Can only be called by the current owner. NOTE: Renouncing ownership will leave the contract without an owner, thereby removing any functionality that is only available to the owner."
      },
      "safeTransferFrom(address,address,uint256)": {
        "details": "See {IERC721-safeTransferFrom}."
      },
      "safeTransferFrom(address,address,uint256,bytes)": {
        "details": "See {IERC721-safeTransferFrom}."
      },
      "setApprovalForAll(address,bool)": {
        "details": "See {IERC721-setApprovalForAll}."
      },
      "symbol()": {
        "details": "See {IERC721Metadata-symbol}."
      },
      "tokenByIndex(uint256)": {
        "details": "See {IERC721Enumerable-tokenByIndex}."
      },
      "tokenOfOwnerByIndex(address,uint256)": {
        "details": "See {IERC721Enumerable-tokenOfOwnerByIndex}."
      },
      "totalSupply()": {
        "details": "See {IERC721Enumerable-totalSupply}."
      },
      "transferFrom(address,address,uint256)": {
        "details": "See {IERC721-transferFrom}."
      },
      "transferOwnership(address)": {
        "details": "Transfers ownership of the contract to a new account (`newOwner`). Can only be called by the current owner."
      }
    },
    "version": 1
  },
  "userdoc": {
    "kind": "user",
    "methods": {},
    "version": 1
  },
  "storageLayout": {
    "storage": [
      {
        "astId": 178,
        "contract": "contracts/GeoNFT.sol:GeoNFT",
        "label": "_name",
        "offset": 0,
        "slot": "0",
        "type": "t_string_storage"
      },
      {
        "astId": 180,
        "contract": "contracts/GeoNFT.sol:GeoNFT",
        "label": "_symbol",
        "offset": 0,
        "slot": "1",
        "type": "t_string_storage"
      },
      {
        "astId": 184,
        "contract": "contracts/GeoNFT.sol:GeoNFT",
        "label": "_owners",
        "offset": 0,
        "slot": "2",
        "type": "t_mapping(t_uint256,t_address)"
      },
      {
        "astId": 188,
        "contract": "contracts/GeoNFT.sol:GeoNFT",
        "label": "_balances",
        "offset": 0,
        "slot": "3",
        "type": "t_mapping(t_address,t_uint256)"
      },
      {
        "astId": 192,
        "contract": "contracts/GeoNFT.sol:GeoNFT",
        "label": "_tokenApprovals",
        "offset": 0,
        "slot": "4",
        "type": "t_mapping(t_uint256,t_address)"
      },
      {
        "astId": 198,
        "contract": "contracts/GeoNFT.sol:GeoNFT",
        "label": "_operatorApprovals",
        "offset": 0,
        "slot": "5",
        "type": "t_mapping(t_address,t_mapping(t_address,t_bool))"
      },
      {
        "astId": 1198,
        "contract": "contracts/GeoNFT.sol:GeoNFT",
        "label": "_ownedTokens",
        "offset": 0,
        "slot": "6",
        "type": "t_mapping(t_address,t_mapping(t_uint256,t_uint256))"
      },
      {
        "astId": 1202,
        "contract": "contracts/GeoNFT.sol:GeoNFT",
        "label": "_ownedTokensIndex",
        "offset": 0,
        "slot": "7",
        "type": "t_mapping(t_uint256,t_uint256)"
      },
      {
        "astId": 1205,
        "contract": "contracts/GeoNFT.sol:GeoNFT",
        "label": "_allTokens",
        "offset": 0,
        "slot": "8",
        "type": "t_array(t_uint256)dyn_storage"
      },
      {
        "astId": 1209,
        "contract": "contracts/GeoNFT.sol:GeoNFT",
        "label": "_allTokensIndex",
        "offset": 0,
        "slot": "9",
        "type": "t_mapping(t_uint256,t_uint256)"
      },
      {
        "astId": 1534,
        "contract": "contracts/GeoNFT.sol:GeoNFT",
        "label": "_tokenURIs",
        "offset": 0,
        "slot": "10",
        "type": "t_mapping(t_uint256,t_string_storage)"
      },
      {
        "astId": 7,
        "contract": "contracts/GeoNFT.sol:GeoNFT",
        "label": "_owner",
        "offset": 0,
        "slot": "11",
        "type": "t_address"
      },
      {
        "astId": 2382,
        "contract": "contracts/GeoNFT.sol:GeoNFT",
        "label": "_tokenIdCounter",
        "offset": 0,
        "slot": "12",
        "type": "t_struct(Counter)2027_storage"
      },
      {
        "astId": 2386,
        "contract": "contracts/GeoNFT.sol:GeoNFT",
        "label": "geoJsons",
        "offset": 0,
        "slot": "13",
        "type": "t_mapping(t_uint256,t_string_storage)"
      },
      {
        "astId": 2390,
        "contract": "contracts/GeoNFT.sol:GeoNFT",
        "label": "indexValues",
        "offset": 0,
        "slot": "14",
        "type": "t_mapping(t_uint256,t_uint256)"
      },
      {
        "astId": 2394,
        "contract": "contracts/GeoNFT.sol:GeoNFT",
        "label": "indexTypes",
        "offset": 0,
        "slot": "15",
        "type": "t_mapping(t_uint256,t_string_storage)"
      }
    ],
    "types": {
      "t_address": {
        "encoding": "inplace",
        "label": "address",
        "numberOfBytes": "20"
      },
      "t_array(t_uint256)dyn_storage": {
        "base": "t_uint256",
        "encoding": "dynamic_array",
        "label": "uint256[]",
        "numberOfBytes": "32"
      },
      "t_bool": {
        "encoding": "inplace",
        "label": "bool",
        "numberOfBytes": "1"
      },
      "t_mapping(t_address,t_bool)": {
        "encoding": "mapping",
        "key": "t_address",
        "label": "mapping(address => bool)",
        "numberOfBytes": "32",
        "value": "t_bool"
      },
      "t_mapping(t_address,t_mapping(t_address,t_bool))": {
        "encoding": "mapping",
        "key": "t_address",
        "label": "mapping(address => mapping(address => bool))",
        "numberOfBytes": "32",
        "value": "t_mapping(t_address,t_bool)"
      },
      "t_mapping(t_address,t_mapping(t_uint256,t_uint256))": {
        "encoding": "mapping",
        "key": "t_address",
        "label": "mapping(address => mapping(uint256 => uint256))",
        "numberOfBytes": "32",
        "value": "t_mapping(t_uint256,t_uint256)"
      },
      "t_mapping(t_address,t_uint256)": {
        "encoding": "mapping",
        "key": "t_address",
        "label": "mapping(address => uint256)",
        "numberOfBytes": "32",
        "value": "t_uint256"
      },
      "t_mapping(t_uint256,t_address)": {
        "encoding": "mapping",
        "key": "t_uint256",
        "label": "mapping(uint256 => address)",
        "numberOfBytes": "32",
        "value": "t_address"
      },
      "t_mapping(t_uint256,t_string_storage)": {
        "encoding": "mapping",
        "key": "t_uint256",
        "label": "mapping(uint256 => string)",
        "numberOfBytes": "32",
        "value": "t_string_storage"
      },
      "t_mapping(t_uint256,t_uint256)": {
        "encoding": "mapping",
        "key": "t_uint256",
        "label": "mapping(uint256 => uint256)",
        "numberOfBytes": "32",
        "value": "t_uint256"
      },
      "t_string_storage": {
        "encoding": "bytes",
        "label": "string",
        "numberOfBytes": "32"
      },
      "t_struct(Counter)2027_storage": {
        "encoding": "inplace",
        "label": "struct Counters.Counter",
        "members": [
          {
            "astId": 2026,
            "contract": "contracts/GeoNFT.sol:GeoNFT",
            "label": "_value",
            "offset": 0,
            "slot": "0",
            "type": "t_uint256"
          }
        ],
        "numberOfBytes": "32"
      },
      "t_uint256": {
        "encoding": "inplace",
        "label": "uint256",
        "numberOfBytes": "32"
      }
    }
  }
}