{
  "address": "0x4161b47F4450d969D90eaa8e9c718a90D393F568",
  "abi": [
    {
      "inputs": [],
      "stateMutability": "nonpayable",
      "type": "constructor"
    },
    {
      "anonymous": false,
      "inputs": [
        {
          "indexed": true,
          "internalType": "address",
          "name": "owner",
          "type": "address"
        },
        {
          "indexed": true,
          "internalType": "address",
          "name": "approved",
          "type": "address"
        },
        {
          "indexed": true,
          "internalType": "uint256",
          "name": "tokenId",
          "type": "uint256"
        }
      ],
      "name": "Approval",
      "type": "event"
    },
    {
      "anonymous": false,
      "inputs": [
        {
          "indexed": true,
          "internalType": "address",
          "name": "owner",
          "type": "address"
        },
        {
          "indexed": true,
          "internalType": "address",
          "name": "operator",
          "type": "address"
        },
        {
          "indexed": false,
          "internalType": "bool",
          "name": "approved",
          "type": "bool"
        }
      ],
      "name": "ApprovalForAll",
      "type": "event"
    },
    {
      "anonymous": false,
      "inputs": [
        {
          "indexed": true,
          "internalType": "address",
          "name": "previousOwner",
          "type": "address"
        },
        {
          "indexed": true,
          "internalType": "address",
          "name": "newOwner",
          "type": "address"
        }
      ],
      "name": "OwnershipTransferred",
      "type": "event"
    },
    {
      "anonymous": false,
      "inputs": [
        {
          "indexed": true,
          "internalType": "address",
          "name": "from",
          "type": "address"
        },
        {
          "indexed": true,
          "internalType": "address",
          "name": "to",
          "type": "address"
        },
        {
          "indexed": true,
          "internalType": "uint256",
          "name": "tokenId",
          "type": "uint256"
        }
      ],
      "name": "Transfer",
      "type": "event"
    },
    {
      "inputs": [
        {
          "internalType": "address",
          "name": "to",
          "type": "address"
        },
        {
          "internalType": "uint256",
          "name": "tokenId",
          "type": "uint256"
        }
      ],
      "name": "approve",
      "outputs": [],
      "stateMutability": "nonpayable",
      "type": "function"
    },
    {
      "inputs": [
        {
          "internalType": "address",
          "name": "owner",
          "type": "address"
        }
      ],
      "name": "balanceOf",
      "outputs": [
        {
          "internalType": "uint256",
          "name": "",
          "type": "uint256"
        }
      ],
      "stateMutability": "view",
      "type": "function"
    },
    {
      "inputs": [
        {
          "internalType": "uint256",
          "name": "tokenId",
          "type": "uint256"
        }
      ],
      "name": "burn",
      "outputs": [],
      "stateMutability": "nonpayable",
      "type": "function"
    },
    {
      "inputs": [],
      "name": "getAllTokens",
      "outputs": [
        {
          "internalType": "uint256[]",
          "name": "",
          "type": "uint256[]"
        },
        {
          "internalType": "string[]",
          "name": "",
          "type": "string[]"
        },
        {
          "internalType": "string[]",
          "name": "",
          "type": "string[]"
        }
      ],
      "stateMutability": "view",
      "type": "function"
    },
    {
      "inputs": [
        {
          "internalType": "uint256",
          "name": "tokenId",
          "type": "uint256"
        }
      ],
      "name": "getApproved",
      "outputs": [
        {
          "internalType": "address",
          "name": "",
          "type": "address"
        }
      ],
      "stateMutability": "view",
      "type": "function"
    },
    {
      "inputs": [
        {
          "internalType": "address",
          "name": "owner",
          "type": "address"
        }
      ],
      "name": "getTokensByOwner",
      "outputs": [
        {
          "internalType": "uint256[]",
          "name": "",
          "type": "uint256[]"
        },
        {
          "internalType": "string[]",
          "name": "",
          "type": "string[]"
        },
        {
          "internalType": "string[]",
          "name": "",
          "type": "string[]"
        }
      ],
      "stateMutability": "view",
      "type": "function"
    },
    {
      "inputs": [
        {
          "internalType": "address",
          "name": "owner",
          "type": "address"
        },
        {
          "internalType": "address",
          "name": "operator",
          "type": "address"
        }
      ],
      "name": "isApprovedForAll",
      "outputs": [
        {
          "internalType": "bool",
          "name": "",
          "type": "bool"
        }
      ],
      "stateMutability": "view",
      "type": "function"
    },
    {
      "inputs": [],
      "name": "name",
      "outputs": [
        {
          "internalType": "string",
          "name": "",
          "type": "string"
        }
      ],
      "stateMutability": "view",
      "type": "function"
    },
    {
      "inputs": [],
      "name": "owner",
      "outputs": [
        {
          "internalType": "address",
          "name": "",
          "type": "address"
        }
      ],
      "stateMutability": "view",
      "type": "function"
    },
    {
      "inputs": [
        {
          "internalType": "uint256",
          "name": "tokenId",
          "type": "uint256"
        }
      ],
      "name": "ownerOf",
      "outputs": [
        {
          "internalType": "address",
          "name": "",
          "type": "address"
        }
      ],
      "stateMutability": "view",
      "type": "function"
    },
    {
      "inputs": [],
      "name": "renounceOwnership",
      "outputs": [],
      "stateMutability": "nonpayable",
      "type": "function"
    },
    {
      "inputs": [
        {
          "internalType": "address",
          "name": "to",
          "type": "address"
        },
        {
          "internalType": "string",
          "name": "uri",
          "type": "string"
        },
        {
          "internalType": "string",
          "name": "geoJson",
          "type": "string"
        }
      ],
      "name": "safeMint",
      "outputs": [],
      "stateMutability": "nonpayable",
      "type": "function"
    },
    {
      "inputs": [
        {
          "internalType": "address",
          "name": "from",
          "type": "address"
        },
        {
          "internalType": "address",
          "name": "to",
          "type": "address"
        },
        {
          "internalType": "uint256",
          "name": "tokenId",
          "type": "uint256"
        }
      ],
      "name": "safeTransferFrom",
      "outputs": [],
      "stateMutability": "nonpayable",
      "type": "function"
    },
    {
      "inputs": [
        {
          "internalType": "address",
          "name": "from",
          "type": "address"
        },
        {
          "internalType": "address",
          "name": "to",
          "type": "address"
        },
        {
          "internalType": "uint256",
          "name": "tokenId",
          "type": "uint256"
        },
        {
          "internalType": "bytes",
          "name": "_data",
          "type": "bytes"
        }
      ],
      "name": "safeTransferFrom",
      "outputs": [],
      "stateMutability": "nonpayable",
      "type": "function"
    },
    {
      "inputs": [
        {
          "internalType": "address",
          "name": "operator",
          "type": "address"
        },
        {
          "internalType": "bool",
          "name": "approved",
          "type": "bool"
        }
      ],
      "name": "setApprovalForAll",
      "outputs": [],
      "stateMutability": "nonpayable",
      "type": "function"
    },
    {
      "inputs": [
        {
          "internalType": "bytes4",
          "name": "interfaceId",
          "type": "bytes4"
        }
      ],
      "name": "supportsInterface",
      "outputs": [
        {
          "internalType": "bool",
          "name": "",
          "type": "bool"
        }
      ],
      "stateMutability": "view",
      "type": "function"
    },
    {
      "inputs": [],
      "name": "symbol",
      "outputs": [
        {
          "internalType": "string",
          "name": "",
          "type": "string"
        }
      ],
      "stateMutability": "view",
      "type": "function"
    },
    {
      "inputs": [
        {
          "internalType": "uint256",
          "name": "index",
          "type": "uint256"
        }
      ],
      "name": "tokenByIndex",
      "outputs": [
        {
          "internalType": "uint256",
          "name": "",
          "type": "uint256"
        }
      ],
      "stateMutability": "view",
      "type": "function"
    },
    {
      "inputs": [
        {
          "internalType": "address",
          "name": "owner",
          "type": "address"
        },
        {
          "internalType": "uint256",
          "name": "index",
          "type": "uint256"
        }
      ],
      "name": "tokenOfOwnerByIndex",
      "outputs": [
        {
          "internalType": "uint256",
          "name": "",
          "type": "uint256"
        }
      ],
      "stateMutability": "view",
      "type": "function"
    },
    {
      "inputs": [
        {
          "internalType": "uint256",
          "name": "tokenId",
          "type": "uint256"
        }
      ],
      "name": "tokenURI",
      "outputs": [
        {
          "internalType": "string",
          "name": "",
          "type": "string"
        }
      ],
      "stateMutability": "view",
      "type": "function"
    },
    {
      "inputs": [],
      "name": "totalSupply",
      "outputs": [
        {
          "internalType": "uint256",
          "name": "",
          "type": "uint256"
        }
      ],
      "stateMutability": "view",
      "type": "function"
    },
    {
      "inputs": [
        {
          "internalType": "address",
          "name": "from",
          "type": "address"
        },
        {
          "internalType": "address",
          "name": "to",
          "type": "address"
        },
        {
          "internalType": "uint256",
          "name": "tokenId",
          "type": "uint256"
        }
      ],
      "name": "transferFrom",
      "outputs": [],
      "stateMutability": "nonpayable",
      "type": "function"
    },
    {
      "inputs": [
        {
          "internalType": "address",
          "name": "newOwner",
          "type": "address"
        }
      ],
      "name": "transferOwnership",
      "outputs": [],
      "stateMutability": "nonpayable",
      "type": "function"
    }
  ],
  "transactionHash": "0x6902c8e964889ab9e24d36ab3d884adae403a2b7677b2b2000867a6de0cdbc78",
  "args": [],
  "numDeployments": 6,
  "solcInputHash": "5bc60a68a5a120356eb33122fcb2b77f",
  "bytecode": "0x60806040523480156200001157600080fd5b506040518060400160405280600d81526020017f47454f4e4654204d696e746572000000000000000000000000000000000000008152506040518060400160405280600681526020017f47454f4e46540000000000000000000000000000000000000000000000000000815250816000908051906020019062000096929190620001a6565b508060019080519060200190620000af929190620001a6565b505050620000d2620000c6620000d860201b60201c565b620000e060201b60201c565b620002bb565b600033905090565b6000600b60009054906101000a900473ffffffffffffffffffffffffffffffffffffffff16905081600b60006101000a81548173ffffffffffffffffffffffffffffffffffffffff021916908373ffffffffffffffffffffffffffffffffffffffff1602179055508173ffffffffffffffffffffffffffffffffffffffff168173ffffffffffffffffffffffffffffffffffffffff167f8be0079c531659141344cd1fd0a4f28419497f9722a3daafe3b4186f6b6457e060405160405180910390a35050565b828054620001b49062000285565b90600052602060002090601f016020900481019282620001d8576000855562000224565b82601f10620001f357805160ff191683800117855562000224565b8280016001018555821562000224579182015b828111156200022357825182559160200191906001019062000206565b5b50905062000233919062000237565b5090565b5b808211156200025257600081600090555060010162000238565b5090565b7f4e487b7100000000000000000000000000000000000000000000000000000000600052602260045260246000fd5b600060028204905060018216806200029e57607f821691505b60208210811415620002b557620002b462000256565b5b50919050565b6142aa80620002cb6000396000f3fe608060405234801561001057600080fd5b506004361061014d5760003560e01c80634f6ccce7116100c3578063a22cb4651161007c578063a22cb465146103b6578063b88d4fde146103d2578063c87b56dd146103ee578063e985e9c51461041e578063eca81d421461044e578063f2fde38b1461046a5761014d565b80634f6ccce7146102e05780636352211e1461031057806370a0823114610340578063715018a6146103705780638da5cb5b1461037a57806395d89b41146103985761014d565b806323b872dd1161011557806323b872dd1461020a5780632a5c792a146102265780632f745c591461024657806340398d671461027657806342842e0e146102a857806342966c68146102c45761014d565b806301ffc9a71461015257806306fdde0314610182578063081812fc146101a0578063095ea7b3146101d057806318160ddd146101ec575b600080fd5b61016c60048036038101906101679190612ae4565b610486565b6040516101799190612b2c565b60405180910390f35b61018a610498565b6040516101979190612be0565b60405180910390f35b6101ba60048036038101906101b59190612c38565b61052a565b6040516101c79190612ca6565b60405180910390f35b6101ea60048036038101906101e59190612ced565b6105af565b005b6101f46106c7565b6040516102019190612d3c565b60405180910390f35b610224600480360381019061021f9190612d57565b6106d4565b005b61022e610734565b60405161023d93929190612f74565b60405180910390f35b610260600480360381019061025b9190612ced565b6109a4565b60405161026d9190612d3c565b60405180910390f35b610290600480360381019061028b9190612fc0565b610a49565b60405161029f93929190612f74565b60405180910390f35b6102c260048036038101906102bd9190612d57565b610cbd565b005b6102de60048036038101906102d99190612c38565b610cdd565b005b6102fa60048036038101906102f59190612c38565b610d39565b6040516103079190612d3c565b60405180910390f35b61032a60048036038101906103259190612c38565b610daa565b6040516103379190612ca6565b60405180910390f35b61035a60048036038101906103559190612fc0565b610e5c565b6040516103679190612d3c565b60405180910390f35b610378610f14565b005b610382610f9c565b60405161038f9190612ca6565b60405180910390f35b6103a0610fc6565b6040516103ad9190612be0565b60405180910390f35b6103d060048036038101906103cb9190613019565b611058565b005b6103ec60048036038101906103e7919061318e565b61106e565b005b61040860048036038101906104039190612c38565b6110d0565b6040516104159190612be0565b60405180910390f35b61043860048036038101906104339190613211565b6110e2565b6040516104459190612b2c565b60405180910390f35b610468600480360381019061046391906132f2565b611176565b005b610484600480360381019061047f9190612fc0565b611257565b005b60006104918261134f565b9050919050565b6060600080546104a7906133ac565b80601f01602080910402602001604051908101604052809291908181526020018280546104d3906133ac565b80156105205780601f106104f557610100808354040283529160200191610520565b820191906000526020600020905b81548152906001019060200180831161050357829003601f168201915b5050505050905090565b6000610535826113c9565b610574576040517f08c379a000000000000000000000000000000000000000000000000000000000815260040161056b90613450565b60405180910390fd5b6004600083815260200190815260200160002060009054906101000a900473ffffffffffffffffffffffffffffffffffffffff169050919050565b60006105ba82610daa565b90508073ffffffffffffffffffffffffffffffffffffffff168373ffffffffffffffffffffffffffffffffffffffff16141561062b576040517f08c379a0000000000000000000000000000000000000000000000000000000008152600401610622906134e2565b60405180910390fd5b8073ffffffffffffffffffffffffffffffffffffffff1661064a611435565b73ffffffffffffffffffffffffffffffffffffffff161480610679575061067881610673611435565b6110e2565b5b6106b8576040517f08c379a00000000000000000000000000000000000000000000000000000000081526004016106af90613574565b60405180910390fd5b6106c2838361143d565b505050565b6000600880549050905090565b6106e56106df611435565b826114f6565b610724576040517f08c379a000000000000000000000000000000000000000000000000000000000815260040161071b90613606565b60405180910390fd5b61072f8383836115d4565b505050565b606080606060006107436106c7565b905060008167ffffffffffffffff81111561076157610760613063565b5b60405190808252806020026020018201604052801561078f5781602001602082028036833780820191505090505b50905060008267ffffffffffffffff8111156107ae576107ad613063565b5b6040519080825280602002602001820160405280156107e157816020015b60608152602001906001900390816107cc5790505b50905060008367ffffffffffffffff811115610800576107ff613063565b5b60405190808252806020026020018201604052801561083357816020015b606081526020019060019003908161081e5790505b50905060005b848110156109915761084a81610d39565b84828151811061085d5761085c613626565b5b60200260200101818152505061088c84828151811061087f5761087e613626565b5b60200260200101516110d0565b83828151811061089f5761089e613626565b5b6020026020010181905250600d60008583815181106108c1576108c0613626565b5b6020026020010151815260200190815260200160002080546108e2906133ac565b80601f016020809104026020016040519081016040528092919081815260200182805461090e906133ac565b801561095b5780601f106109305761010080835404028352916020019161095b565b820191906000526020600020905b81548152906001019060200180831161093e57829003601f168201915b505050505082828151811061097357610972613626565b5b6020026020010181905250808061098990613684565b915050610839565b8383839750975097505050505050909192565b60006109af83610e5c565b82106109f0576040517f08c379a00000000000000000000000000000000000000000000000000000000081526004016109e79061373f565b60405180910390fd5b600660008473ffffffffffffffffffffffffffffffffffffffff1673ffffffffffffffffffffffffffffffffffffffff168152602001908152602001600020600083815260200190815260200160002054905092915050565b60608060606000610a5985610e5c565b905060008167ffffffffffffffff811115610a7757610a76613063565b5b604051908082528060200260200182016040528015610aa55781602001602082028036833780820191505090505b50905060008267ffffffffffffffff811115610ac457610ac3613063565b5b604051908082528060200260200182016040528015610af757816020015b6060815260200190600190039081610ae25790505b50905060008367ffffffffffffffff811115610b1657610b15613063565b5b604051908082528060200260200182016040528015610b4957816020015b6060815260200190600190039081610b345790505b50905060005b84811015610ca857610b6189826109a4565b848281518110610b7457610b73613626565b5b602002602001018181525050610ba3848281518110610b9657610b95613626565b5b60200260200101516110d0565b838281518110610bb657610bb5613626565b5b6020026020010181905250600d6000858381518110610bd857610bd7613626565b5b602002602001015181526020019081526020016000208054610bf9906133ac565b80601f0160208091040260200160405190810160405280929190818152602001828054610c25906133ac565b8015610c725780601f10610c4757610100808354040283529160200191610c72565b820191906000526020600020905b815481529060010190602001808311610c5557829003601f168201915b5050505050828281518110610c8a57610c89613626565b5b60200260200101819052508080610ca090613684565b915050610b4f565b83838397509750975050505050509193909250565b610cd88383836040518060200160405280600081525061106e565b505050565b610cee610ce8611435565b826114f6565b610d2d576040517f08c379a0000000000000000000000000000000000000000000000000000000008152600401610d24906137d1565b60405180910390fd5b610d3681611830565b50565b6000610d436106c7565b8210610d84576040517f08c379a0000000000000000000000000000000000000000000000000000000008152600401610d7b90613863565b60405180910390fd5b60088281548110610d9857610d97613626565b5b90600052602060002001549050919050565b6000806002600084815260200190815260200160002060009054906101000a900473ffffffffffffffffffffffffffffffffffffffff169050600073ffffffffffffffffffffffffffffffffffffffff168173ffffffffffffffffffffffffffffffffffffffff161415610e53576040517f08c379a0000000000000000000000000000000000000000000000000000000008152600401610e4a906138f5565b60405180910390fd5b80915050919050565b60008073ffffffffffffffffffffffffffffffffffffffff168273ffffffffffffffffffffffffffffffffffffffff161415610ecd576040517f08c379a0000000000000000000000000000000000000000000000000000000008152600401610ec490613987565b60405180910390fd5b600360008373ffffffffffffffffffffffffffffffffffffffff1673ffffffffffffffffffffffffffffffffffffffff168152602001908152602001600020549050919050565b610f1c611435565b73ffffffffffffffffffffffffffffffffffffffff16610f3a610f9c565b73ffffffffffffffffffffffffffffffffffffffff1614610f90576040517f08c379a0000000000000000000000000000000000000000000000000000000008152600401610f87906139f3565b60405180910390fd5b610f9a600061183c565b565b6000600b60009054906101000a900473ffffffffffffffffffffffffffffffffffffffff16905090565b606060018054610fd5906133ac565b80601f0160208091040260200160405190810160405280929190818152602001828054611001906133ac565b801561104e5780601f106110235761010080835404028352916020019161104e565b820191906000526020600020905b81548152906001019060200180831161103157829003601f168201915b5050505050905090565b61106a611063611435565b8383611902565b5050565b61107f611079611435565b836114f6565b6110be576040517f08c379a00000000000000000000000000000000000000000000000000000000081526004016110b590613606565b60405180910390fd5b6110ca84848484611a6f565b50505050565b60606110db82611acb565b9050919050565b6000600560008473ffffffffffffffffffffffffffffffffffffffff1673ffffffffffffffffffffffffffffffffffffffff16815260200190815260200160002060008373ffffffffffffffffffffffffffffffffffffffff1673ffffffffffffffffffffffffffffffffffffffff16815260200190815260200160002060009054906101000a900460ff16905092915050565b6000611182600c611c1d565b905061118e600c611c2b565b6111988482611c41565b81600d600083815260200190815260200160002090805190602001906111bf929190612995565b506000600e600083815260200190815260200160002060006101000a81548160ff021916908360ff1602179055506000600f600083815260200190815260200160002060006101000a81548160ff021916908360ff16021790555060006010600083815260200190815260200160002060006101000a81548160ff021916908360ff1602179055506112518184611c5f565b50505050565b61125f611435565b73ffffffffffffffffffffffffffffffffffffffff1661127d610f9c565b73ffffffffffffffffffffffffffffffffffffffff16146112d3576040517f08c379a00000000000000000000000000000000000000000000000000000000081526004016112ca906139f3565b60405180910390fd5b600073ffffffffffffffffffffffffffffffffffffffff168173ffffffffffffffffffffffffffffffffffffffff161415611343576040517f08c379a000000000000000000000000000000000000000000000000000000000815260040161133a90613a85565b60405180910390fd5b61134c8161183c565b50565b60007f780e9d63000000000000000000000000000000000000000000000000000000007bffffffffffffffffffffffffffffffffffffffffffffffffffffffff1916827bffffffffffffffffffffffffffffffffffffffffffffffffffffffff191614806113c257506113c182611cd3565b5b9050919050565b60008073ffffffffffffffffffffffffffffffffffffffff166002600084815260200190815260200160002060009054906101000a900473ffffffffffffffffffffffffffffffffffffffff1673ffffffffffffffffffffffffffffffffffffffff1614159050919050565b600033905090565b816004600083815260200190815260200160002060006101000a81548173ffffffffffffffffffffffffffffffffffffffff021916908373ffffffffffffffffffffffffffffffffffffffff160217905550808273ffffffffffffffffffffffffffffffffffffffff166114b083610daa565b73ffffffffffffffffffffffffffffffffffffffff167f8c5be1e5ebec7d5bd14f71427d1e84f3dd0314c0f7b2291e5b200ac8c7c3b92560405160405180910390a45050565b6000611501826113c9565b611540576040517f08c379a000000000000000000000000000000000000000000000000000000000815260040161153790613b17565b60405180910390fd5b600061154b83610daa565b90508073ffffffffffffffffffffffffffffffffffffffff168473ffffffffffffffffffffffffffffffffffffffff1614806115ba57508373ffffffffffffffffffffffffffffffffffffffff166115a28461052a565b73ffffffffffffffffffffffffffffffffffffffff16145b806115cb57506115ca81856110e2565b5b91505092915050565b8273ffffffffffffffffffffffffffffffffffffffff166115f482610daa565b73ffffffffffffffffffffffffffffffffffffffff161461164a576040517f08c379a000000000000000000000000000000000000000000000000000000000815260040161164190613ba9565b60405180910390fd5b600073ffffffffffffffffffffffffffffffffffffffff168273ffffffffffffffffffffffffffffffffffffffff1614156116ba576040517f08c379a00000000000000000000000000000000000000000000000000000000081526004016116b190613c3b565b60405180910390fd5b6116c5838383611db5565b6116d060008261143d565b6001600360008573ffffffffffffffffffffffffffffffffffffffff1673ffffffffffffffffffffffffffffffffffffffff16815260200190815260200160002060008282546117209190613c5b565b925050819055506001600360008473ffffffffffffffffffffffffffffffffffffffff1673ffffffffffffffffffffffffffffffffffffffff16815260200190815260200160002060008282546117779190613c8f565b92505081905550816002600083815260200190815260200160002060006101000a81548173ffffffffffffffffffffffffffffffffffffffff021916908373ffffffffffffffffffffffffffffffffffffffff160217905550808273ffffffffffffffffffffffffffffffffffffffff168473ffffffffffffffffffffffffffffffffffffffff167fddf252ad1be2c89b69c2b068fc378daa952ba7f163c4a11628f55a4df523b3ef60405160405180910390a4505050565b61183981611dc5565b50565b6000600b60009054906101000a900473ffffffffffffffffffffffffffffffffffffffff16905081600b60006101000a81548173ffffffffffffffffffffffffffffffffffffffff021916908373ffffffffffffffffffffffffffffffffffffffff1602179055508173ffffffffffffffffffffffffffffffffffffffff168173ffffffffffffffffffffffffffffffffffffffff167f8be0079c531659141344cd1fd0a4f28419497f9722a3daafe3b4186f6b6457e060405160405180910390a35050565b8173ffffffffffffffffffffffffffffffffffffffff168373ffffffffffffffffffffffffffffffffffffffff161415611971576040517f08c379a000000000000000000000000000000000000000000000000000000000815260040161196890613d31565b60405180910390fd5b80600560008573ffffffffffffffffffffffffffffffffffffffff1673ffffffffffffffffffffffffffffffffffffffff16815260200190815260200160002060008473ffffffffffffffffffffffffffffffffffffffff1673ffffffffffffffffffffffffffffffffffffffff16815260200190815260200160002060006101000a81548160ff0219169083151502179055508173ffffffffffffffffffffffffffffffffffffffff168373ffffffffffffffffffffffffffffffffffffffff167f17307eab39ab6107e8899845ad3d59bd9653f200f220920489ca2b5937696c3183604051611a629190612b2c565b60405180910390a3505050565b611a7a8484846115d4565b611a8684848484611e18565b611ac5576040517f08c379a0000000000000000000000000000000000000000000000000000000008152600401611abc90613dc3565b60405180910390fd5b50505050565b6060611ad6826113c9565b611b15576040517f08c379a0000000000000000000000000000000000000000000000000000000008152600401611b0c90613e55565b60405180910390fd5b6000600a60008481526020019081526020016000208054611b35906133ac565b80601f0160208091040260200160405190810160405280929190818152602001828054611b61906133ac565b8015611bae5780601f10611b8357610100808354040283529160200191611bae565b820191906000526020600020905b815481529060010190602001808311611b9157829003601f168201915b505050505090506000611bbf611fa0565b9050600081511415611bd5578192505050611c18565b600082511115611c0a578082604051602001611bf2929190613eb1565b60405160208183030381529060405292505050611c18565b611c1384611fb7565b925050505b919050565b600081600001549050919050565b6001816000016000828254019250508190555050565b611c5b82826040518060200160405280600081525061205e565b5050565b611c68826113c9565b611ca7576040517f08c379a0000000000000000000000000000000000000000000000000000000008152600401611c9e90613f47565b60405180910390fd5b80600a60008481526020019081526020016000209080519060200190611cce929190612995565b505050565b60007f80ac58cd000000000000000000000000000000000000000000000000000000007bffffffffffffffffffffffffffffffffffffffffffffffffffffffff1916827bffffffffffffffffffffffffffffffffffffffffffffffffffffffff19161480611d9e57507f5b5e139f000000000000000000000000000000000000000000000000000000007bffffffffffffffffffffffffffffffffffffffffffffffffffffffff1916827bffffffffffffffffffffffffffffffffffffffffffffffffffffffff1916145b80611dae5750611dad826120b9565b5b9050919050565b611dc0838383612123565b505050565b611dce81612237565b6000600a60008381526020019081526020016000208054611dee906133ac565b905014611e1557600a60008281526020019081526020016000206000611e149190612a1b565b5b50565b6000611e398473ffffffffffffffffffffffffffffffffffffffff16612348565b15611f93578373ffffffffffffffffffffffffffffffffffffffff1663150b7a02611e62611435565b8786866040518563ffffffff1660e01b8152600401611e849493929190613fbc565b6020604051808303816000875af1925050508015611ec057506040513d601f19601f82011682018060405250810190611ebd919061401d565b60015b611f43573d8060008114611ef0576040519150601f19603f3d011682016040523d82523d6000602084013e611ef5565b606091505b50600081511415611f3b576040517f08c379a0000000000000000000000000000000000000000000000000000000008152600401611f3290613dc3565b60405180910390fd5b805181602001fd5b63150b7a0260e01b7bffffffffffffffffffffffffffffffffffffffffffffffffffffffff1916817bffffffffffffffffffffffffffffffffffffffffffffffffffffffff191614915050611f98565b600190505b949350505050565b606060405180602001604052806000815250905090565b6060611fc2826113c9565b612001576040517f08c379a0000000000000000000000000000000000000000000000000000000008152600401611ff8906140bc565b60405180910390fd5b600061200b611fa0565b9050600081511161202b5760405180602001604052806000815250612056565b806120358461235b565b604051602001612046929190613eb1565b6040516020818303038152906040525b915050919050565b61206883836124bc565b6120756000848484611e18565b6120b4576040517f08c379a00000000000000000000000000000000000000000000000000000000081526004016120ab90613dc3565b60405180910390fd5b505050565b60007f01ffc9a7000000000000000000000000000000000000000000000000000000007bffffffffffffffffffffffffffffffffffffffffffffffffffffffff1916827bffffffffffffffffffffffffffffffffffffffffffffffffffffffff1916149050919050565b61212e83838361268a565b600073ffffffffffffffffffffffffffffffffffffffff168373ffffffffffffffffffffffffffffffffffffffff1614156121715761216c8161268f565b6121b0565b8173ffffffffffffffffffffffffffffffffffffffff168373ffffffffffffffffffffffffffffffffffffffff16146121af576121ae83826126d8565b5b5b600073ffffffffffffffffffffffffffffffffffffffff168273ffffffffffffffffffffffffffffffffffffffff1614156121f3576121ee81612845565b612232565b8273ffffffffffffffffffffffffffffffffffffffff168273ffffffffffffffffffffffffffffffffffffffff1614612231576122308282612916565b5b5b505050565b600061224282610daa565b905061225081600084611db5565b61225b60008361143d565b6001600360008373ffffffffffffffffffffffffffffffffffffffff1673ffffffffffffffffffffffffffffffffffffffff16815260200190815260200160002060008282546122ab9190613c5b565b925050819055506002600083815260200190815260200160002060006101000a81549073ffffffffffffffffffffffffffffffffffffffff021916905581600073ffffffffffffffffffffffffffffffffffffffff168273ffffffffffffffffffffffffffffffffffffffff167fddf252ad1be2c89b69c2b068fc378daa952ba7f163c4a11628f55a4df523b3ef60405160405180910390a45050565b600080823b905060008111915050919050565b606060008214156123a3576040518060400160405280600181526020017f300000000000000000000000000000000000000000000000000000000000000081525090506124b7565b600082905060005b600082146123d55780806123be90613684565b915050600a826123ce919061410b565b91506123ab565b60008167ffffffffffffffff8111156123f1576123f0613063565b5b6040519080825280601f01601f1916602001820160405280156124235781602001600182028036833780820191505090505b5090505b600085146124b05760018261243c9190613c5b565b9150600a8561244b919061413c565b60306124579190613c8f565b60f81b81838151811061246d5761246c613626565b5b60200101907effffffffffffffffffffffffffffffffffffffffffffffffffffffffffffff1916908160001a905350600a856124a9919061410b565b9450612427565b8093505050505b919050565b600073ffffffffffffffffffffffffffffffffffffffff168273ffffffffffffffffffffffffffffffffffffffff16141561252c576040517f08c379a0000000000000000000000000000000000000000000000000000000008152600401612523906141b9565b60405180910390fd5b612535816113c9565b15612575576040517f08c379a000000000000000000000000000000000000000000000000000000000815260040161256c90614225565b60405180910390fd5b61258160008383611db5565b6001600360008473ffffffffffffffffffffffffffffffffffffffff1673ffffffffffffffffffffffffffffffffffffffff16815260200190815260200160002060008282546125d19190613c8f565b92505081905550816002600083815260200190815260200160002060006101000a81548173ffffffffffffffffffffffffffffffffffffffff021916908373ffffffffffffffffffffffffffffffffffffffff160217905550808273ffffffffffffffffffffffffffffffffffffffff16600073ffffffffffffffffffffffffffffffffffffffff167fddf252ad1be2c89b69c2b068fc378daa952ba7f163c4a11628f55a4df523b3ef60405160405180910390a45050565b505050565b6008805490506009600083815260200190815260200160002081905550600881908060018154018082558091505060019003906000526020600020016000909190919091505550565b600060016126e584610e5c565b6126ef9190613c5b565b90506000600760008481526020019081526020016000205490508181146127d4576000600660008673ffffffffffffffffffffffffffffffffffffffff1673ffffffffffffffffffffffffffffffffffffffff168152602001908152602001600020600084815260200190815260200160002054905080600660008773ffffffffffffffffffffffffffffffffffffffff1673ffffffffffffffffffffffffffffffffffffffff168152602001908152602001600020600084815260200190815260200160002081905550816007600083815260200190815260200160002081905550505b6007600084815260200190815260200160002060009055600660008573ffffffffffffffffffffffffffffffffffffffff1673ffffffffffffffffffffffffffffffffffffffff16815260200190815260200160002060008381526020019081526020016000206000905550505050565b600060016008805490506128599190613c5b565b905060006009600084815260200190815260200160002054905060006008838154811061288957612888613626565b5b9060005260206000200154905080600883815481106128ab576128aa613626565b5b9060005260206000200181905550816009600083815260200190815260200160002081905550600960008581526020019081526020016000206000905560088054806128fa576128f9614245565b5b6001900381819060005260206000200160009055905550505050565b600061292183610e5c565b905081600660008573ffffffffffffffffffffffffffffffffffffffff1673ffffffffffffffffffffffffffffffffffffffff168152602001908152602001600020600083815260200190815260200160002081905550806007600084815260200190815260200160002081905550505050565b8280546129a1906133ac565b90600052602060002090601f0160209004810192826129c35760008555612a0a565b82601f106129dc57805160ff1916838001178555612a0a565b82800160010185558215612a0a579182015b82811115612a095782518255916020019190600101906129ee565b5b509050612a179190612a5b565b5090565b508054612a27906133ac565b6000825580601f10612a395750612a58565b601f016020900490600052602060002090810190612a579190612a5b565b5b50565b5b80821115612a74576000816000905550600101612a5c565b5090565b6000604051905090565b600080fd5b600080fd5b60007fffffffff0000000000000000000000000000000000000000000000000000000082169050919050565b612ac181612a8c565b8114612acc57600080fd5b50565b600081359050612ade81612ab8565b92915050565b600060208284031215612afa57612af9612a82565b5b6000612b0884828501612acf565b91505092915050565b60008115159050919050565b612b2681612b11565b82525050565b6000602082019050612b416000830184612b1d565b92915050565b600081519050919050565b600082825260208201905092915050565b60005b83811015612b81578082015181840152602081019050612b66565b83811115612b90576000848401525b50505050565b6000601f19601f8301169050919050565b6000612bb282612b47565b612bbc8185612b52565b9350612bcc818560208601612b63565b612bd581612b96565b840191505092915050565b60006020820190508181036000830152612bfa8184612ba7565b905092915050565b6000819050919050565b612c1581612c02565b8114612c2057600080fd5b50565b600081359050612c3281612c0c565b92915050565b600060208284031215612c4e57612c4d612a82565b5b6000612c5c84828501612c23565b91505092915050565b600073ffffffffffffffffffffffffffffffffffffffff82169050919050565b6000612c9082612c65565b9050919050565b612ca081612c85565b82525050565b6000602082019050612cbb6000830184612c97565b92915050565b612cca81612c85565b8114612cd557600080fd5b50565b600081359050612ce781612cc1565b92915050565b60008060408385031215612d0457612d03612a82565b5b6000612d1285828601612cd8565b9250506020612d2385828601612c23565b9150509250929050565b612d3681612c02565b82525050565b6000602082019050612d516000830184612d2d565b92915050565b600080600060608486031215612d7057612d6f612a82565b5b6000612d7e86828701612cd8565b9350506020612d8f86828701612cd8565b9250506040612da086828701612c23565b9150509250925092565b600081519050919050565b600082825260208201905092915050565b6000819050602082019050919050565b612ddf81612c02565b82525050565b6000612df18383612dd6565b60208301905092915050565b6000602082019050919050565b6000612e1582612daa565b612e1f8185612db5565b9350612e2a83612dc6565b8060005b83811015612e5b578151612e428882612de5565b9750612e4d83612dfd565b925050600181019050612e2e565b5085935050505092915050565b600081519050919050565b600082825260208201905092915050565b6000819050602082019050919050565b600082825260208201905092915050565b6000612eb082612b47565b612eba8185612e94565b9350612eca818560208601612b63565b612ed381612b96565b840191505092915050565b6000612eea8383612ea5565b905092915050565b6000602082019050919050565b6000612f0a82612e68565b612f148185612e73565b935083602082028501612f2685612e84565b8060005b85811015612f625784840389528151612f438582612ede565b9450612f4e83612ef2565b925060208a01995050600181019050612f2a565b50829750879550505050505092915050565b60006060820190508181036000830152612f8e8186612e0a565b90508181036020830152612fa28185612eff565b90508181036040830152612fb68184612eff565b9050949350505050565b600060208284031215612fd657612fd5612a82565b5b6000612fe484828501612cd8565b91505092915050565b612ff681612b11565b811461300157600080fd5b50565b60008135905061301381612fed565b92915050565b600080604083850312156130305761302f612a82565b5b600061303e85828601612cd8565b925050602061304f85828601613004565b9150509250929050565b600080fd5b600080fd5b7f4e487b7100000000000000000000000000000000000000000000000000000000600052604160045260246000fd5b61309b82612b96565b810181811067ffffffffffffffff821117156130ba576130b9613063565b5b80604052505050565b60006130cd612a78565b90506130d98282613092565b919050565b600067ffffffffffffffff8211156130f9576130f8613063565b5b61310282612b96565b9050602081019050919050565b82818337600083830152505050565b600061313161312c846130de565b6130c3565b90508281526020810184848401111561314d5761314c61305e565b5b61315884828561310f565b509392505050565b600082601f83011261317557613174613059565b5b813561318584826020860161311e565b91505092915050565b600080600080608085870312156131a8576131a7612a82565b5b60006131b687828801612cd8565b94505060206131c787828801612cd8565b93505060406131d887828801612c23565b925050606085013567ffffffffffffffff8111156131f9576131f8612a87565b5b61320587828801613160565b91505092959194509250565b6000806040838503121561322857613227612a82565b5b600061323685828601612cd8565b925050602061324785828601612cd8565b9150509250929050565b600067ffffffffffffffff82111561326c5761326b613063565b5b61327582612b96565b9050602081019050919050565b600061329561329084613251565b6130c3565b9050828152602081018484840111156132b1576132b061305e565b5b6132bc84828561310f565b509392505050565b600082601f8301126132d9576132d8613059565b5b81356132e9848260208601613282565b91505092915050565b60008060006060848603121561330b5761330a612a82565b5b600061331986828701612cd8565b935050602084013567ffffffffffffffff81111561333a57613339612a87565b5b613346868287016132c4565b925050604084013567ffffffffffffffff81111561336757613366612a87565b5b613373868287016132c4565b9150509250925092565b7f4e487b7100000000000000000000000000000000000000000000000000000000600052602260045260246000fd5b600060028204905060018216806133c457607f821691505b602082108114156133d8576133d761337d565b5b50919050565b7f4552433732313a20617070726f76656420717565727920666f72206e6f6e657860008201527f697374656e7420746f6b656e0000000000000000000000000000000000000000602082015250565b600061343a602c83612b52565b9150613445826133de565b604082019050919050565b600060208201905081810360008301526134698161342d565b9050919050565b7f4552433732313a20617070726f76616c20746f2063757272656e74206f776e6560008201527f7200000000000000000000000000000000000000000000000000000000000000602082015250565b60006134cc602183612b52565b91506134d782613470565b604082019050919050565b600060208201905081810360008301526134fb816134bf565b9050919050565b7f4552433732313a20617070726f76652063616c6c6572206973206e6f74206f7760008201527f6e6572206e6f7220617070726f76656420666f7220616c6c0000000000000000602082015250565b600061355e603883612b52565b915061356982613502565b604082019050919050565b6000602082019050818103600083015261358d81613551565b9050919050565b7f4552433732313a207472616e736665722063616c6c6572206973206e6f74206f60008201527f776e6572206e6f7220617070726f766564000000000000000000000000000000602082015250565b60006135f0603183612b52565b91506135fb82613594565b604082019050919050565b6000602082019050818103600083015261361f816135e3565b9050919050565b7f4e487b7100000000000000000000000000000000000000000000000000000000600052603260045260246000fd5b7f4e487b7100000000000000000000000000000000000000000000000000000000600052601160045260246000fd5b600061368f82612c02565b91507fffffffffffffffffffffffffffffffffffffffffffffffffffffffffffffffff8214156136c2576136c1613655565b5b600182019050919050565b7f455243373231456e756d657261626c653a206f776e657220696e646578206f7560008201527f74206f6620626f756e6473000000000000000000000000000000000000000000602082015250565b6000613729602b83612b52565b9150613734826136cd565b604082019050919050565b600060208201905081810360008301526137588161371c565b9050919050565b7f4552433732314275726e61626c653a2063616c6c6572206973206e6f74206f7760008201527f6e6572206e6f7220617070726f76656400000000000000000000000000000000602082015250565b60006137bb603083612b52565b91506137c68261375f565b604082019050919050565b600060208201905081810360008301526137ea816137ae565b9050919050565b7f455243373231456e756d657261626c653a20676c6f62616c20696e646578206f60008201527f7574206f6620626f756e64730000000000000000000000000000000000000000602082015250565b600061384d602c83612b52565b9150613858826137f1565b604082019050919050565b6000602082019050818103600083015261387c81613840565b9050919050565b7f4552433732313a206f776e657220717565727920666f72206e6f6e657869737460008201527f656e7420746f6b656e0000000000000000000000000000000000000000000000602082015250565b60006138df602983612b52565b91506138ea82613883565b604082019050919050565b6000602082019050818103600083015261390e816138d2565b9050919050565b7f4552433732313a2062616c616e636520717565727920666f7220746865207a6560008201527f726f206164647265737300000000000000000000000000000000000000000000602082015250565b6000613971602a83612b52565b915061397c82613915565b604082019050919050565b600060208201905081810360008301526139a081613964565b9050919050565b7f4f776e61626c653a2063616c6c6572206973206e6f7420746865206f776e6572600082015250565b60006139dd602083612b52565b91506139e8826139a7565b602082019050919050565b60006020820190508181036000830152613a0c816139d0565b9050919050565b7f4f776e61626c653a206e6577206f776e657220697320746865207a65726f206160008201527f6464726573730000000000000000000000000000000000000000000000000000602082015250565b6000613a6f602683612b52565b9150613a7a82613a13565b604082019050919050565b60006020820190508181036000830152613a9e81613a62565b9050919050565b7f4552433732313a206f70657261746f7220717565727920666f72206e6f6e657860008201527f697374656e7420746f6b656e0000000000000000000000000000000000000000602082015250565b6000613b01602c83612b52565b9150613b0c82613aa5565b604082019050919050565b60006020820190508181036000830152613b3081613af4565b9050919050565b7f4552433732313a207472616e73666572206f6620746f6b656e2074686174206960008201527f73206e6f74206f776e0000000000000000000000000000000000000000000000602082015250565b6000613b93602983612b52565b9150613b9e82613b37565b604082019050919050565b60006020820190508181036000830152613bc281613b86565b9050919050565b7f4552433732313a207472616e7366657220746f20746865207a65726f2061646460008201527f7265737300000000000000000000000000000000000000000000000000000000602082015250565b6000613c25602483612b52565b9150613c3082613bc9565b604082019050919050565b60006020820190508181036000830152613c5481613c18565b9050919050565b6000613c6682612c02565b9150613c7183612c02565b925082821015613c8457613c83613655565b5b828203905092915050565b6000613c9a82612c02565b9150613ca583612c02565b9250827fffffffffffffffffffffffffffffffffffffffffffffffffffffffffffffffff03821115613cda57613cd9613655565b5b828201905092915050565b7f4552433732313a20617070726f766520746f2063616c6c657200000000000000600082015250565b6000613d1b601983612b52565b9150613d2682613ce5565b602082019050919050565b60006020820190508181036000830152613d4a81613d0e565b9050919050565b7f4552433732313a207472616e7366657220746f206e6f6e20455243373231526560008201527f63656976657220696d706c656d656e7465720000000000000000000000000000602082015250565b6000613dad603283612b52565b9150613db882613d51565b604082019050919050565b60006020820190508181036000830152613ddc81613da0565b9050919050565b7f45524337323155524953746f726167653a2055524920717565727920666f722060008201527f6e6f6e6578697374656e7420746f6b656e000000000000000000000000000000602082015250565b6000613e3f603183612b52565b9150613e4a82613de3565b604082019050919050565b60006020820190508181036000830152613e6e81613e32565b9050919050565b600081905092915050565b6000613e8b82612b47565b613e958185613e75565b9350613ea5818560208601612b63565b80840191505092915050565b6000613ebd8285613e80565b9150613ec98284613e80565b91508190509392505050565b7f45524337323155524953746f726167653a2055524920736574206f66206e6f6e60008201527f6578697374656e7420746f6b656e000000000000000000000000000000000000602082015250565b6000613f31602e83612b52565b9150613f3c82613ed5565b604082019050919050565b60006020820190508181036000830152613f6081613f24565b9050919050565b600081519050919050565b600082825260208201905092915050565b6000613f8e82613f67565b613f988185613f72565b9350613fa8818560208601612b63565b613fb181612b96565b840191505092915050565b6000608082019050613fd16000830187612c97565b613fde6020830186612c97565b613feb6040830185612d2d565b8181036060830152613ffd8184613f83565b905095945050505050565b60008151905061401781612ab8565b92915050565b60006020828403121561403357614032612a82565b5b600061404184828501614008565b91505092915050565b7f4552433732314d657461646174613a2055524920717565727920666f72206e6f60008201527f6e6578697374656e7420746f6b656e0000000000000000000000000000000000602082015250565b60006140a6602f83612b52565b91506140b18261404a565b604082019050919050565b600060208201905081810360008301526140d581614099565b9050919050565b7f4e487b7100000000000000000000000000000000000000000000000000000000600052601260045260246000fd5b600061411682612c02565b915061412183612c02565b925082614131576141306140dc565b5b828204905092915050565b600061414782612c02565b915061415283612c02565b925082614162576141616140dc565b5b828206905092915050565b7f4552433732313a206d696e7420746f20746865207a65726f2061646472657373600082015250565b60006141a3602083612b52565b91506141ae8261416d565b602082019050919050565b600060208201905081810360008301526141d281614196565b9050919050565b7f4552433732313a20746f6b656e20616c7265616479206d696e74656400000000600082015250565b600061420f601c83612b52565b915061421a826141d9565b602082019050919050565b6000602082019050818103600083015261423e81614202565b9050919050565b7f4e487b7100000000000000000000000000000000000000000000000000000000600052603160045260246000fdfea26469706673582212208994d5f6a93b95d8065862cce863176c21e863e9426cb4235ddac5f9cef7363664736f6c634300080b0033",
  "devdoc": {
    "kind": "dev",
    "methods": {
      "approve(address,uint256)": {
        "details": "See {IERC721-approve}."
      },
      "balanceOf(address)": {
        "details": "See {IERC721-balanceOf}."
      },
      "burn(uint256)": {
        "details": "Burns `tokenId`. See {ERC721-_burn}. Requirements: - The caller must own `tokenId` or be an approved operator."
      },
      "getApproved(uint256)": {
        "details": "See {IERC721-getApproved}."
      },
      "isApprovedForAll(address,address)": {
        "details": "See {IERC721-isApprovedForAll}."
      },
      "name()": {
        "details": "See {IERC721Metadata-name}."
      },
      "owner()": {
        "details": "Returns the address of the current owner."
      },
      "ownerOf(uint256)": {
        "details": "See {IERC721-ownerOf}."
      },
      "renounceOwnership()": {
        "details": "Leaves the contract without owner. It will not be possible to call `onlyOwner` functions anymore. Can only be called by the current owner. NOTE: Renouncing ownership will leave the contract without an owner, thereby removing any functionality that is only available to the owner."
      },
      "safeTransferFrom(address,address,uint256)": {
        "details": "See {IERC721-safeTransferFrom}."
      },
      "safeTransferFrom(address,address,uint256,bytes)": {
        "details": "See {IERC721-safeTransferFrom}."
      },
      "setApprovalForAll(address,bool)": {
        "details": "See {IERC721-setApprovalForAll}."
      },
      "symbol()": {
        "details": "See {IERC721Metadata-symbol}."
      },
      "tokenByIndex(uint256)": {
        "details": "See {IERC721Enumerable-tokenByIndex}."
      },
      "tokenOfOwnerByIndex(address,uint256)": {
        "details": "See {IERC721Enumerable-tokenOfOwnerByIndex}."
      },
      "totalSupply()": {
        "details": "See {IERC721Enumerable-totalSupply}."
      },
      "transferFrom(address,address,uint256)": {
        "details": "See {IERC721-transferFrom}."
      },
      "transferOwnership(address)": {
        "details": "Transfers ownership of the contract to a new account (`newOwner`). Can only be called by the current owner."
      }
    },
    "version": 1
  },
  "userdoc": {
    "kind": "user",
    "methods": {},
    "version": 1
  },
  "storageLayout": {
    "storage": [
      {
        "astId": 130,
        "contract": "contracts/GEONFT.sol:GEONFT",
        "label": "_name",
        "offset": 0,
        "slot": "0",
        "type": "t_string_storage"
      },
      {
        "astId": 132,
        "contract": "contracts/GEONFT.sol:GEONFT",
        "label": "_symbol",
        "offset": 0,
        "slot": "1",
        "type": "t_string_storage"
      },
      {
        "astId": 136,
        "contract": "contracts/GEONFT.sol:GEONFT",
        "label": "_owners",
        "offset": 0,
        "slot": "2",
        "type": "t_mapping(t_uint256,t_address)"
      },
      {
        "astId": 140,
        "contract": "contracts/GEONFT.sol:GEONFT",
        "label": "_balances",
        "offset": 0,
        "slot": "3",
        "type": "t_mapping(t_address,t_uint256)"
      },
      {
        "astId": 144,
        "contract": "contracts/GEONFT.sol:GEONFT",
        "label": "_tokenApprovals",
        "offset": 0,
        "slot": "4",
        "type": "t_mapping(t_uint256,t_address)"
      },
      {
        "astId": 150,
        "contract": "contracts/GEONFT.sol:GEONFT",
        "label": "_operatorApprovals",
        "offset": 0,
        "slot": "5",
        "type": "t_mapping(t_address,t_mapping(t_address,t_bool))"
      },
      {
        "astId": 1114,
        "contract": "contracts/GEONFT.sol:GEONFT",
        "label": "_ownedTokens",
        "offset": 0,
        "slot": "6",
        "type": "t_mapping(t_address,t_mapping(t_uint256,t_uint256))"
      },
      {
        "astId": 1118,
        "contract": "contracts/GEONFT.sol:GEONFT",
        "label": "_ownedTokensIndex",
        "offset": 0,
        "slot": "7",
        "type": "t_mapping(t_uint256,t_uint256)"
      },
      {
        "astId": 1121,
        "contract": "contracts/GEONFT.sol:GEONFT",
        "label": "_allTokens",
        "offset": 0,
        "slot": "8",
        "type": "t_array(t_uint256)dyn_storage"
      },
      {
        "astId": 1125,
        "contract": "contracts/GEONFT.sol:GEONFT",
        "label": "_allTokensIndex",
        "offset": 0,
        "slot": "9",
        "type": "t_mapping(t_uint256,t_uint256)"
      },
      {
        "astId": 1450,
        "contract": "contracts/GEONFT.sol:GEONFT",
        "label": "_tokenURIs",
        "offset": 0,
        "slot": "10",
        "type": "t_mapping(t_uint256,t_string_storage)"
      },
      {
        "astId": 7,
        "contract": "contracts/GEONFT.sol:GEONFT",
        "label": "_owner",
        "offset": 0,
        "slot": "11",
        "type": "t_address"
      },
      {
        "astId": 2280,
        "contract": "contracts/GEONFT.sol:GEONFT",
        "label": "_tokenIdCounter",
        "offset": 0,
        "slot": "12",
        "type": "t_struct(Counter)1948_storage"
      },
      {
        "astId": 2284,
        "contract": "contracts/GEONFT.sol:GEONFT",
        "label": "geoJsons",
        "offset": 0,
        "slot": "13",
        "type": "t_mapping(t_uint256,t_string_storage)"
      },
      {
        "astId": 2288,
        "contract": "contracts/GEONFT.sol:GEONFT",
        "label": "wqIndices",
        "offset": 0,
        "slot": "14",
        "type": "t_mapping(t_uint256,t_uint8)"
      },
      {
        "astId": 2292,
        "contract": "contracts/GEONFT.sol:GEONFT",
        "label": "slmIndices",
        "offset": 0,
        "slot": "15",
        "type": "t_mapping(t_uint256,t_uint8)"
      },
      {
        "astId": 2296,
        "contract": "contracts/GEONFT.sol:GEONFT",
        "label": "bioIndices",
        "offset": 0,
        "slot": "16",
        "type": "t_mapping(t_uint256,t_uint8)"
      }
    ],
    "types": {
      "t_address": {
        "encoding": "inplace",
        "label": "address",
        "numberOfBytes": "20"
      },
      "t_array(t_uint256)dyn_storage": {
        "base": "t_uint256",
        "encoding": "dynamic_array",
        "label": "uint256[]",
        "numberOfBytes": "32"
      },
      "t_bool": {
        "encoding": "inplace",
        "label": "bool",
        "numberOfBytes": "1"
      },
      "t_mapping(t_address,t_bool)": {
        "encoding": "mapping",
        "key": "t_address",
        "label": "mapping(address => bool)",
        "numberOfBytes": "32",
        "value": "t_bool"
      },
      "t_mapping(t_address,t_mapping(t_address,t_bool))": {
        "encoding": "mapping",
        "key": "t_address",
        "label": "mapping(address => mapping(address => bool))",
        "numberOfBytes": "32",
        "value": "t_mapping(t_address,t_bool)"
      },
      "t_mapping(t_address,t_mapping(t_uint256,t_uint256))": {
        "encoding": "mapping",
        "key": "t_address",
        "label": "mapping(address => mapping(uint256 => uint256))",
        "numberOfBytes": "32",
        "value": "t_mapping(t_uint256,t_uint256)"
      },
      "t_mapping(t_address,t_uint256)": {
        "encoding": "mapping",
        "key": "t_address",
        "label": "mapping(address => uint256)",
        "numberOfBytes": "32",
        "value": "t_uint256"
      },
      "t_mapping(t_uint256,t_address)": {
        "encoding": "mapping",
        "key": "t_uint256",
        "label": "mapping(uint256 => address)",
        "numberOfBytes": "32",
        "value": "t_address"
      },
      "t_mapping(t_uint256,t_string_storage)": {
        "encoding": "mapping",
        "key": "t_uint256",
        "label": "mapping(uint256 => string)",
        "numberOfBytes": "32",
        "value": "t_string_storage"
      },
      "t_mapping(t_uint256,t_uint256)": {
        "encoding": "mapping",
        "key": "t_uint256",
        "label": "mapping(uint256 => uint256)",
        "numberOfBytes": "32",
        "value": "t_uint256"
      },
      "t_mapping(t_uint256,t_uint8)": {
        "encoding": "mapping",
        "key": "t_uint256",
        "label": "mapping(uint256 => uint8)",
        "numberOfBytes": "32",
        "value": "t_uint8"
      },
      "t_string_storage": {
        "encoding": "bytes",
        "label": "string",
        "numberOfBytes": "32"
      },
      "t_struct(Counter)1948_storage": {
        "encoding": "inplace",
        "label": "struct Counters.Counter",
        "members": [
          {
            "astId": 1947,
            "contract": "contracts/GEONFT.sol:GEONFT",
            "label": "_value",
            "offset": 0,
            "slot": "0",
            "type": "t_uint256"
          }
        ],
        "numberOfBytes": "32"
      },
      "t_uint256": {
        "encoding": "inplace",
        "label": "uint256",
        "numberOfBytes": "32"
      },
      "t_uint8": {
        "encoding": "inplace",
        "label": "uint8",
        "numberOfBytes": "1"
      }
    }
  }
}