{
  "address": "0xb9b4C7361fD4a66Cb792a07f6c923540964195E3",
  "abi": [
    {
      "inputs": [
        {
          "internalType": "contract GeoNFT",
          "name": "_geoNFT",
          "type": "address"
        }
      ],
      "stateMutability": "nonpayable",
      "type": "constructor"
    },
    {
      "anonymous": false,
      "inputs": [
        {
          "indexed": false,
          "internalType": "uint256",
          "name": "tokenId",
          "type": "uint256"
        }
      ],
      "name": "GeoNFTRegistered",
      "type": "event"
    },
    {
      "anonymous": false,
      "inputs": [
        {
          "indexed": false,
          "internalType": "uint256",
          "name": "tokenId",
          "type": "uint256"
        },
        {
          "indexed": false,
          "internalType": "string",
          "name": "geojson",
          "type": "string"
        },
        {
          "indexed": false,
          "internalType": "uint256",
          "name": "_area",
          "type": "uint256"
        }
      ],
      "name": "GeoNFTTopologyUpdated",
      "type": "event"
    },
    {
      "anonymous": false,
      "inputs": [
        {
          "indexed": false,
          "internalType": "uint256",
          "name": "tokenId",
          "type": "uint256"
        }
      ],
      "name": "GeoNFTUnregistered",
      "type": "event"
    },
    {
      "anonymous": false,
      "inputs": [
        {
          "indexed": true,
          "internalType": "address",
          "name": "previousOwner",
          "type": "address"
        },
        {
          "indexed": true,
          "internalType": "address",
          "name": "newOwner",
          "type": "address"
        }
      ],
      "name": "OwnershipTransferred",
      "type": "event"
    },
    {
      "inputs": [],
      "name": "GEOHASH_LENGTH",
      "outputs": [
        {
          "internalType": "uint8",
          "name": "",
          "type": "uint8"
        }
      ],
      "stateMutability": "view",
      "type": "function"
    },
    {
      "inputs": [
        {
          "internalType": "string",
          "name": "_geohash",
          "type": "string"
        },
        {
          "internalType": "uint256",
          "name": "_data",
          "type": "uint256"
        }
      ],
      "name": "addToGeotree",
      "outputs": [],
      "stateMutability": "nonpayable",
      "type": "function"
    },
    {
      "inputs": [],
      "name": "geoNFT",
      "outputs": [
        {
          "internalType": "contract GeoNFT",
          "name": "",
          "type": "address"
        }
      ],
      "stateMutability": "view",
      "type": "function"
    },
    {
      "inputs": [],
      "name": "getAllGeoNFTs",
      "outputs": [
        {
          "internalType": "uint256[]",
          "name": "geoNFTsArray",
          "type": "uint256[]"
        }
      ],
      "stateMutability": "view",
      "type": "function"
    },
    {
      "inputs": [
        {
          "internalType": "string",
          "name": "_geohash",
          "type": "string"
        }
      ],
      "name": "getFromGeotree",
      "outputs": [
        {
          "internalType": "uint256[]",
          "name": "",
          "type": "uint256[]"
        }
      ],
      "stateMutability": "view",
      "type": "function"
    },
    {
      "inputs": [],
      "name": "owner",
      "outputs": [
        {
          "internalType": "address",
          "name": "",
          "type": "address"
        }
      ],
      "stateMutability": "view",
      "type": "function"
    },
    {
      "inputs": [
        {
          "internalType": "int64",
          "name": "_latitude",
          "type": "int64"
        },
        {
          "internalType": "int64",
          "name": "_longitude",
          "type": "int64"
        },
        {
          "internalType": "uint8",
          "name": "_precision",
          "type": "uint8"
        }
      ],
      "name": "queryGeoNFTsByLatLng",
      "outputs": [
        {
          "internalType": "uint256[]",
          "name": "",
          "type": "uint256[]"
        }
      ],
      "stateMutability": "view",
      "type": "function"
    },
    {
      "inputs": [
        {
          "internalType": "uint256",
          "name": "_tokenId",
          "type": "uint256"
        },
        {
          "internalType": "int64[2]",
          "name": "_centroid",
          "type": "int64[2]"
        }
      ],
      "name": "registerGeoNFT",
      "outputs": [],
      "stateMutability": "nonpayable",
      "type": "function"
    },
    {
      "inputs": [
        {
          "internalType": "string",
          "name": "_geohash",
          "type": "string"
        },
        {
          "internalType": "uint256",
          "name": "_data",
          "type": "uint256"
        }
      ],
      "name": "removeFromGeotree",
      "outputs": [],
      "stateMutability": "nonpayable",
      "type": "function"
    },
    {
      "inputs": [],
      "name": "renounceOwnership",
      "outputs": [],
      "stateMutability": "nonpayable",
      "type": "function"
    },
    {
      "inputs": [
        {
          "internalType": "address",
          "name": "newOwner",
          "type": "address"
        }
      ],
      "name": "transferOwnership",
      "outputs": [],
      "stateMutability": "nonpayable",
      "type": "function"
    },
    {
      "inputs": [
        {
          "internalType": "uint256",
          "name": "_tokenId",
          "type": "uint256"
        }
      ],
      "name": "unregisterGeoNFT",
      "outputs": [],
      "stateMutability": "nonpayable",
      "type": "function"
    },
    {
      "inputs": [
        {
          "internalType": "uint256",
          "name": "_tokenId",
          "type": "uint256"
        },
        {
          "internalType": "int256[2][][]",
          "name": "_coordinates",
          "type": "int256[2][][]"
        },
        {
          "internalType": "int64[2]",
          "name": "_centroid",
          "type": "int64[2]"
        },
        {
          "internalType": "string",
          "name": "_geojson",
          "type": "string"
        }
      ],
      "name": "updateGeoNFTTopology",
      "outputs": [],
      "stateMutability": "nonpayable",
      "type": "function"
    },
    {
      "inputs": [
        {
          "internalType": "string",
          "name": "_formergeohash",
          "type": "string"
        },
        {
          "internalType": "string",
          "name": "_newgeohash",
          "type": "string"
        },
        {
          "internalType": "uint256",
          "name": "_data",
          "type": "uint256"
        }
      ],
      "name": "updateGeotree",
      "outputs": [],
      "stateMutability": "nonpayable",
      "type": "function"
    }
  ],
  "transactionHash": "0x7d6db009c4393e3b19f7d73014997be0d5203e8b11fd06f12378b970880e6335",
  "args": [
    "0x16E6b0d95609bA6156E8933fF381880a5c787691"
  ],
  "numDeployments": 1,
  "solcInputHash": "68426a560eaecbef1f3ea51cb3cb6807",
  "bytecode": "0x60806040523480156200001157600080fd5b5060405162002cd338038062002cd38339818101604052810190620000379190620001f3565b60016000819055506200005f62000053620000a760201b60201c565b620000af60201b60201c565b80600260006101000a81548173ffffffffffffffffffffffffffffffffffffffff021916908373ffffffffffffffffffffffffffffffffffffffff1602179055505062000225565b600033905090565b6000600160009054906101000a900473ffffffffffffffffffffffffffffffffffffffff16905081600160006101000a81548173ffffffffffffffffffffffffffffffffffffffff021916908373ffffffffffffffffffffffffffffffffffffffff1602179055508173ffffffffffffffffffffffffffffffffffffffff168173ffffffffffffffffffffffffffffffffffffffff167f8be0079c531659141344cd1fd0a4f28419497f9722a3daafe3b4186f6b6457e060405160405180910390a35050565b600080fd5b600073ffffffffffffffffffffffffffffffffffffffff82169050919050565b6000620001a7826200017a565b9050919050565b6000620001bb826200019a565b9050919050565b620001cd81620001ae565b8114620001d957600080fd5b50565b600081519050620001ed81620001c2565b92915050565b6000602082840312156200020c576200020b62000175565b5b60006200021c84828501620001dc565b91505092915050565b612a9e80620002356000396000f3fe608060405234801561001057600080fd5b50600436106100ea5760003560e01c80637b648ad61161008c578063a3f4d09b11610066578063a3f4d09b146101fd578063e57093b014610219578063f2fde38b14610249578063f689fa4714610265576100ea565b80637b648ad6146101a55780638da5cb5b146101c15780639e923de9146101df576100ea565b806361e91e04116100c857806361e91e04146101475780636c52cf8614610163578063715018a61461017f57806373fcf14614610189576100ea565b8063163e88aa146100ef57806328db5a221461010d5780633d23bb961461012b575b600080fd5b6100f7610295565b6040516101049190611794565b60405180910390f35b6101156102bb565b6040516101229190611877565b60405180910390f35b61014560048036038101906101409190611d99565b610313565b005b610161600480360381019061015c9190611e38565b61058e565b005b61017d60048036038101906101789190611e78565b6106b1565b005b610187610a11565b005b6101a3600480360381019061019e9190611e78565b610a25565b005b6101bf60048036038101906101ba9190611f2f565b610cac565b005b6101c9610d0a565b6040516101d69190611fe0565b60405180910390f35b6101e7610d34565b6040516101f49190612017565b60405180910390f35b61021760048036038101906102129190612032565b610d39565b005b610233600480360381019061022e919061208b565b610f64565b6040516102409190611877565b60405180910390f35b610263600480360381019061025e919061210a565b610ffe565b005b61027f600480360381019061027a9190612137565b611081565b60405161028c9190611877565b60405180910390f35b600260009054906101000a900473ffffffffffffffffffffffffffffffffffffffff1681565b6060600380548060200260200160405190810160405280929190818152602001828054801561030957602002820191906000526020600020905b8154815260200190600101908083116102f5575b5050505050905090565b61031b611100565b600073E4a658B83aF78f76D1231370ce417f3b61c6118163defe2c1c856040518263ffffffff1660e01b8152600401610354919061239c565b602060405180830381865af4158015610371573d6000803e3d6000fd5b505050506040513d601f19601f8201168201806040525081019061039591906123d3565b90506000836000600281106103ad576103ac612400565b5b602002015190506000846001600281106103ca576103c9612400565b5b6020020151905060006005600089815260200190815260200160002080546103f19061245e565b80601f016020809104026020016040519081016040528092919081815260200182805461041d9061245e565b801561046a5780601f1061043f5761010080835404028352916020019161046a565b820191906000526020600020905b81548152906001019060200180831161044d57829003601f168201915b505050505090506000731ef62ad49E30dc0f0C0f1c692Aa468B902c64E63637161e2e0858560086040518463ffffffff1660e01b81526004016104af939291906124ad565b600060405180830381865af41580156104cc573d6000803e3d6000fd5b505050506040513d6000823e3d601f19601f820116820180604052508101906104f59190612587565b90506000610503838361117e565b90508061054757610514828b6111d7565b61051e828b6106b1565b81600560008c815260200190815260200160002090805190602001906105459291906115b2565b505b7fd5368936c6574d161396839c9c3eecf6366b2caba3110635c5092ceb4c97ca548a888860405161057a93929190612634565b60405180910390a150505050505050505050565b610596611100565b6000816000600281106105ac576105ab612400565b5b602002015190506000826001600281106105c9576105c8612400565b5b602002015190506105d984611249565b6000731ef62ad49E30dc0f0C0f1c692Aa468B902c64E63637161e2e0848460086040518463ffffffff1660e01b8152600401610617939291906124ad565b600060405180830381865af4158015610634573d6000803e3d6000fd5b505050506040513d6000823e3d601f19601f8201168201806040525081019061065d9190612587565b905061066981866106b1565b6106738582611275565b7ff131f45254d8a96a7bdc8a658fdd1b47b9c38d99ad9f8741a39f3ad8c39d0ee0856040516106a29190612672565b60405180910390a15050505050565b600860ff168251146106c257600080fd5b600082905060005b81518160ff161015610a0b5760006106fd60006001846106ea91906126bc565b60ff16856112a19092919063ffffffff16565b90506000600482604051610711919061272f565b908152602001604051809103902090506000610790826040518060200160405290816000820180548060200260200160405190810160405280929190818152602001828054801561078157602002820191906000526020600020905b81548152602001906001019080831161076d575b505050505081525050876113bf565b905080156107de576107d66040518060400160405280601881526020017f4461746120616c726561647920696e20746865206e6f64650000000000000000815250611422565b5050506109f8565b60008260000180549050036108b357600167ffffffffffffffff811115610808576108076118ef565b5b6040519080825280602002602001820160405280156108365781602001602082028036833780820191505090505b5082600001908051906020019061084e929190611638565b50858260000160008154811061086757610866612400565b5b906000526020600020018190555081600484604051610886919061272f565b908152602001604051809103902060008201816000019080546108aa929190611685565b509050506109f4565b6000600183600001805490506108c99190612746565b67ffffffffffffffff8111156108e2576108e16118ef565b5b6040519080825280602002602001820160405280156109105781602001602082028036833780820191505090505b50905060005b83600001805490508110156109785783600001818154811061093b5761093a612400565b5b906000526020600020015482828151811061095957610958612400565b5b60200260200101818152505080806109709061279c565b915050610916565b50868184600001805490508151811061099457610993612400565b5b602002602001018181525050808360000190805190602001906109b8929190611638565b50826004856040516109ca919061272f565b908152602001604051809103902060008201816000019080546109ee929190611685565b50905050505b5050505b8080610a03906127e4565b9150506106ca565b50505050565b610a19611100565b610a2360006114bb565b565b6000600483604051610a37919061272f565b908152602001604051809103902090506000610ab68260405180602001604052908160008201805480602002602001604051908101604052809291908181526020018280548015610aa757602002820191906000526020600020905b815481526020019060010190808311610a93575b505050505081525050846113bf565b905080610b0257610afb6040518060400160405280601081526020017f44617461206e6f7420696e206e6f646500000000000000000000000000000000815250611422565b5050610ca8565b6001826000018054905003610b4757600484604051610b21919061272f565b908152602001604051809103902060008082016000610b4091906116d7565b5050610ca5565b600060018360000180549050610b5d919061280d565b67ffffffffffffffff811115610b7657610b756118ef565b5b604051908082528060200260200182016040528015610ba45781602001602082028036833780820191505090505b5090506000805b60018560000180549050610bbf919061280d565b811015610c4f5785856000018281548110610bdd57610bdc612400565b5b906000526020600020015414610c3c57846000018181548110610c0357610c02612400565b5b9060005260206000200154838381518110610c2157610c20612400565b5b6020026020010181815250508180610c389061279c565b9250505b8080610c479061279c565b915050610bab565b5081846000019080519060200190610c68929190611638565b5083600487604051610c7a919061272f565b90815260200160405180910390206000820181600001908054610c9e929190611685565b5090505050505b50505b5050565b610cb68482610a25565b610d0483838080601f016020809104026020016040519081016040528093929190818152602001838380828437600081840152601f19601f82011690508083019250505050505050826106b1565b50505050565b6000600160009054906101000a900473ffffffffffffffffffffffffffffffffffffffff16905090565b600881565b610d41611100565b6000600560008381526020019081526020016000208054610d619061245e565b80601f0160208091040260200160405190810160405280929190818152602001828054610d8d9061245e565b8015610dda5780601f10610daf57610100808354040283529160200191610dda565b820191906000526020600020905b815481529060010190602001808311610dbd57829003601f168201915b50505050509050610deb81836111d7565b600160038054905003610e25576003805480610e0a57610e09612841565b5b60019003818190600052602060002001600090559055610f29565b60006001600380549050610e39919061280d565b67ffffffffffffffff811115610e5257610e516118ef565b5b604051908082528060200260200182016040528015610e805781602001602082028036833780820191505090505b5090506000805b6001600380549050610e99919061280d565b811015610f25578460038281548110610eb557610eb4612400565b5b906000526020600020015414610f125760038181548110610ed957610ed8612400565b5b9060005260206000200154838381518110610ef757610ef6612400565b5b6020026020010181815250508180610f0e9061279c565b9250505b8080610f1d9061279c565b915050610e87565b5050505b7fd50f75cf5c87bfa9ed2c8eb5d64d50828b5eaa20bb5fe8530fee4a1c5f3663bb82604051610f589190612672565b60405180910390a15050565b60606000731ef62ad49E30dc0f0C0f1c692Aa468B902c64E63637161e2e08686866040518463ffffffff1660e01b8152600401610fa3939291906124ad565b600060405180830381865af4158015610fc0573d6000803e3d6000fd5b505050506040513d6000823e3d601f19601f82011682018060405250810190610fe99190612587565b9050610ff481611081565b9150509392505050565b611006611100565b600073ffffffffffffffffffffffffffffffffffffffff168173ffffffffffffffffffffffffffffffffffffffff1603611075576040517f08c379a000000000000000000000000000000000000000000000000000000000815260040161106c906128e2565b60405180910390fd5b61107e816114bb565b50565b60606000600483604051611095919061272f565b90815260200160405180910390209050806000018054806020026020016040519081016040528092919081815260200182805480156110f357602002820191906000526020600020905b8154815260200190600101908083116110df575b5050505050915050919050565b611108611581565b73ffffffffffffffffffffffffffffffffffffffff16611126610d0a565b73ffffffffffffffffffffffffffffffffffffffff161461117c576040517f08c379a00000000000000000000000000000000000000000000000000000000081526004016111739061294e565b60405180910390fd5b565b600081604051602001611191919061272f565b60405160208183030381529060405280519060200120836040516020016111b8919061272f565b6040516020818303038152906040528051906020012014905092915050565b6000829050600860ff168151146111ed57600080fd5b60005b81518160ff161015611243576000611223600060018461121091906126bc565b60ff16856112a19092919063ffffffff16565b905061122f8185610a25565b50808061123b906127e4565b9150506111f0565b50505050565b600381908060018154018082558091505060019003906000526020600020016000909190919091505550565b8060056000848152602001908152602001600020908051906020019061129c9291906115b2565b505050565b606081601f836112b19190612746565b10156112f2576040517f08c379a00000000000000000000000000000000000000000000000000000000081526004016112e9906129ba565b60405180910390fd5b81836112fe9190612746565b84511015611341576040517f08c379a000000000000000000000000000000000000000000000000000000000815260040161133890612a26565b60405180910390fd5b606082156000811461136257604051915060008252602082016040526113b3565b6040519150601f8416801560200281840101858101878315602002848b0101015b818310156113a05780518352602083019250602081019050611383565b50868552601f19601f8301166040525050505b50809150509392505050565b600080600090505b8360000151518110156114165782846000015182815181106113ec576113eb612400565b5b60200260200101510361140357600191505061141c565b808061140e9061279c565b9150506113c7565b50600090505b92915050565b6114b8816040516024016114369190612a46565b6040516020818303038152906040527f41304fac000000000000000000000000000000000000000000000000000000007bffffffffffffffffffffffffffffffffffffffffffffffffffffffff19166020820180517bffffffffffffffffffffffffffffffffffffffffffffffffffffffff8381831617835250505050611589565b50565b6000600160009054906101000a900473ffffffffffffffffffffffffffffffffffffffff16905081600160006101000a81548173ffffffffffffffffffffffffffffffffffffffff021916908373ffffffffffffffffffffffffffffffffffffffff1602179055508173ffffffffffffffffffffffffffffffffffffffff168173ffffffffffffffffffffffffffffffffffffffff167f8be0079c531659141344cd1fd0a4f28419497f9722a3daafe3b4186f6b6457e060405160405180910390a35050565b600033905090565b60008151905060006a636f6e736f6c652e6c6f679050602083016000808483855afa5050505050565b8280546115be9061245e565b90600052602060002090601f0160209004810192826115e05760008555611627565b82601f106115f957805160ff1916838001178555611627565b82800160010185558215611627579182015b8281111561162657825182559160200191906001019061160b565b5b50905061163491906116f8565b5090565b828054828255906000526020600020908101928215611674579160200282015b82811115611673578251825591602001919060010190611658565b5b50905061168191906116f8565b5090565b8280548282559060005260206000209081019282156116c65760005260206000209182015b828111156116c55782548255916001019190600101906116aa565b5b5090506116d391906116f8565b5090565b50805460008255906000526020600020908101906116f591906116f8565b50565b5b808211156117115760008160009055506001016116f9565b5090565b600073ffffffffffffffffffffffffffffffffffffffff82169050919050565b6000819050919050565b600061175a61175561175084611715565b611735565b611715565b9050919050565b600061176c8261173f565b9050919050565b600061177e82611761565b9050919050565b61178e81611773565b82525050565b60006020820190506117a96000830184611785565b92915050565b600081519050919050565b600082825260208201905092915050565b6000819050602082019050919050565b6000819050919050565b6117ee816117db565b82525050565b600061180083836117e5565b60208301905092915050565b6000602082019050919050565b6000611824826117af565b61182e81856117ba565b9350611839836117cb565b8060005b8381101561186a57815161185188826117f4565b975061185c8361180c565b92505060018101905061183d565b5085935050505092915050565b600060208201905081810360008301526118918184611819565b905092915050565b6000604051905090565b600080fd5b600080fd5b6118b6816117db565b81146118c157600080fd5b50565b6000813590506118d3816118ad565b92915050565b600080fd5b6000601f19601f8301169050919050565b7f4e487b7100000000000000000000000000000000000000000000000000000000600052604160045260246000fd5b611927826118de565b810181811067ffffffffffffffff82111715611946576119456118ef565b5b80604052505050565b6000611959611899565b9050611965828261191e565b919050565b600067ffffffffffffffff821115611985576119846118ef565b5b602082029050602081019050919050565b600080fd5b600067ffffffffffffffff8211156119b6576119b56118ef565b5b602082029050602081019050919050565b600067ffffffffffffffff8211156119e2576119e16118ef565b5b602082029050919050565b6000819050919050565b611a00816119ed565b8114611a0b57600080fd5b50565b600081359050611a1d816119f7565b92915050565b6000611a36611a31846119c7565b61194f565b90508060208402830185811115611a5057611a4f611996565b5b835b81811015611a795780611a658882611a0e565b845260208401935050602081019050611a52565b5050509392505050565b600082601f830112611a9857611a976118d9565b5b6002611aa5848285611a23565b91505092915050565b6000611ac1611abc8461199b565b61194f565b90508083825260208201905060408402830185811115611ae457611ae3611996565b5b835b81811015611b0d5780611af98882611a83565b845260208401935050604081019050611ae6565b5050509392505050565b600082601f830112611b2c57611b2b6118d9565b5b8135611b3c848260208601611aae565b91505092915050565b6000611b58611b538461196a565b61194f565b90508083825260208201905060208402830185811115611b7b57611b7a611996565b5b835b81811015611bc257803567ffffffffffffffff811115611ba057611b9f6118d9565b5b808601611bad8982611b17565b85526020850194505050602081019050611b7d565b5050509392505050565b600082601f830112611be157611be06118d9565b5b8135611bf1848260208601611b45565b91505092915050565b600067ffffffffffffffff821115611c1557611c146118ef565b5b602082029050919050565b60008160070b9050919050565b611c3681611c20565b8114611c4157600080fd5b50565b600081359050611c5381611c2d565b92915050565b6000611c6c611c6784611bfa565b61194f565b90508060208402830185811115611c8657611c85611996565b5b835b81811015611caf5780611c9b8882611c44565b845260208401935050602081019050611c88565b5050509392505050565b600082601f830112611cce57611ccd6118d9565b5b6002611cdb848285611c59565b91505092915050565b600080fd5b600067ffffffffffffffff821115611d0457611d036118ef565b5b611d0d826118de565b9050602081019050919050565b82818337600083830152505050565b6000611d3c611d3784611ce9565b61194f565b905082815260208101848484011115611d5857611d57611ce4565b5b611d63848285611d1a565b509392505050565b600082601f830112611d8057611d7f6118d9565b5b8135611d90848260208601611d29565b91505092915050565b60008060008060a08587031215611db357611db26118a3565b5b6000611dc1878288016118c4565b945050602085013567ffffffffffffffff811115611de257611de16118a8565b5b611dee87828801611bcc565b9350506040611dff87828801611cb9565b925050608085013567ffffffffffffffff811115611e2057611e1f6118a8565b5b611e2c87828801611d6b565b91505092959194509250565b60008060608385031215611e4f57611e4e6118a3565b5b6000611e5d858286016118c4565b9250506020611e6e85828601611cb9565b9150509250929050565b60008060408385031215611e8f57611e8e6118a3565b5b600083013567ffffffffffffffff811115611ead57611eac6118a8565b5b611eb985828601611d6b565b9250506020611eca858286016118c4565b9150509250929050565b600080fd5b60008083601f840112611eef57611eee6118d9565b5b8235905067ffffffffffffffff811115611f0c57611f0b611ed4565b5b602083019150836001820283011115611f2857611f27611996565b5b9250929050565b60008060008060608587031215611f4957611f486118a3565b5b600085013567ffffffffffffffff811115611f6757611f666118a8565b5b611f7387828801611d6b565b945050602085013567ffffffffffffffff811115611f9457611f936118a8565b5b611fa087828801611ed9565b93509350506040611fb3878288016118c4565b91505092959194509250565b6000611fca82611715565b9050919050565b611fda81611fbf565b82525050565b6000602082019050611ff56000830184611fd1565b92915050565b600060ff82169050919050565b61201181611ffb565b82525050565b600060208201905061202c6000830184612008565b92915050565b600060208284031215612048576120476118a3565b5b6000612056848285016118c4565b91505092915050565b61206881611ffb565b811461207357600080fd5b50565b6000813590506120858161205f565b92915050565b6000806000606084860312156120a4576120a36118a3565b5b60006120b286828701611c44565b93505060206120c386828701611c44565b92505060406120d486828701612076565b9150509250925092565b6120e781611fbf565b81146120f257600080fd5b50565b600081359050612104816120de565b92915050565b6000602082840312156121205761211f6118a3565b5b600061212e848285016120f5565b91505092915050565b60006020828403121561214d5761214c6118a3565b5b600082013567ffffffffffffffff81111561216b5761216a6118a8565b5b61217784828501611d6b565b91505092915050565b600081519050919050565b600082825260208201905092915050565b6000819050602082019050919050565b600081519050919050565b600082825260208201905092915050565b6000819050602082019050919050565b600060029050919050565b600081905092915050565b6000819050919050565b612201816119ed565b82525050565b600061221383836121f8565b60208301905092915050565b6000602082019050919050565b612235816121d8565b61223f81846121e3565b925061224a826121ee565b8060005b8381101561227b5781516122628782612207565b965061226d8361221f565b92505060018101905061224e565b505050505050565b600061228f838361222c565b60408301905092915050565b6000602082019050919050565b60006122b3826121ac565b6122bd81856121b7565b93506122c8836121c8565b8060005b838110156122f95781516122e08882612283565b97506122eb8361229b565b9250506001810190506122cc565b5085935050505092915050565b600061231283836122a8565b905092915050565b6000602082019050919050565b600061233282612180565b61233c818561218b565b93508360208202850161234e8561219c565b8060005b8581101561238a578484038952815161236b8582612306565b94506123768361231a565b925060208a01995050600181019050612352565b50829750879550505050505092915050565b600060208201905081810360008301526123b68184612327565b905092915050565b6000815190506123cd816118ad565b92915050565b6000602082840312156123e9576123e86118a3565b5b60006123f7848285016123be565b91505092915050565b7f4e487b7100000000000000000000000000000000000000000000000000000000600052603260045260246000fd5b7f4e487b7100000000000000000000000000000000000000000000000000000000600052602260045260246000fd5b6000600282049050600182168061247657607f821691505b6020821081036124895761248861242f565b5b50919050565b61249881611c20565b82525050565b6124a781611ffb565b82525050565b60006060820190506124c2600083018661248f565b6124cf602083018561248f565b6124dc604083018461249e565b949350505050565b60005b838110156125025780820151818401526020810190506124e7565b83811115612511576000848401525b50505050565b600061252a61252584611ce9565b61194f565b90508281526020810184848401111561254657612545611ce4565b5b6125518482856124e4565b509392505050565b600082601f83011261256e5761256d6118d9565b5b815161257e848260208601612517565b91505092915050565b60006020828403121561259d5761259c6118a3565b5b600082015167ffffffffffffffff8111156125bb576125ba6118a8565b5b6125c784828501612559565b91505092915050565b6125d9816117db565b82525050565b600081519050919050565b600082825260208201905092915050565b6000612606826125df565b61261081856125ea565b93506126208185602086016124e4565b612629816118de565b840191505092915050565b600060608201905061264960008301866125d0565b818103602083015261265b81856125fb565b905061266a60408301846125d0565b949350505050565b600060208201905061268760008301846125d0565b92915050565b7f4e487b7100000000000000000000000000000000000000000000000000000000600052601160045260246000fd5b60006126c782611ffb565b91506126d283611ffb565b92508260ff038211156126e8576126e761268d565b5b828201905092915050565b600081905092915050565b6000612709826125df565b61271381856126f3565b93506127238185602086016124e4565b80840191505092915050565b600061273b82846126fe565b915081905092915050565b6000612751826117db565b915061275c836117db565b9250827fffffffffffffffffffffffffffffffffffffffffffffffffffffffffffffffff038211156127915761279061268d565b5b828201905092915050565b60006127a7826117db565b91507fffffffffffffffffffffffffffffffffffffffffffffffffffffffffffffffff82036127d9576127d861268d565b5b600182019050919050565b60006127ef82611ffb565b915060ff82036128025761280161268d565b5b600182019050919050565b6000612818826117db565b9150612823836117db565b9250828210156128365761283561268d565b5b828203905092915050565b7f4e487b7100000000000000000000000000000000000000000000000000000000600052603160045260246000fd5b7f4f776e61626c653a206e6577206f776e657220697320746865207a65726f206160008201527f6464726573730000000000000000000000000000000000000000000000000000602082015250565b60006128cc6026836125ea565b91506128d782612870565b604082019050919050565b600060208201905081810360008301526128fb816128bf565b9050919050565b7f4f776e61626c653a2063616c6c6572206973206e6f7420746865206f776e6572600082015250565b60006129386020836125ea565b915061294382612902565b602082019050919050565b600060208201905081810360008301526129678161292b565b9050919050565b7f736c6963655f6f766572666c6f77000000000000000000000000000000000000600082015250565b60006129a4600e836125ea565b91506129af8261296e565b602082019050919050565b600060208201905081810360008301526129d381612997565b9050919050565b7f736c6963655f6f75744f66426f756e6473000000000000000000000000000000600082015250565b6000612a106011836125ea565b9150612a1b826129da565b602082019050919050565b60006020820190508181036000830152612a3f81612a03565b9050919050565b60006020820190508181036000830152612a6081846125fb565b90509291505056fea264697066735822122029de39d353fa054e6bd439e5bfd1cbab2002b055cf7c305438015b8245558d6c64736f6c634300080d0033",
  "deployedBytecode": "0x608060405234801561001057600080fd5b50600436106100ea5760003560e01c80637b648ad61161008c578063a3f4d09b11610066578063a3f4d09b146101fd578063e57093b014610219578063f2fde38b14610249578063f689fa4714610265576100ea565b80637b648ad6146101a55780638da5cb5b146101c15780639e923de9146101df576100ea565b806361e91e04116100c857806361e91e04146101475780636c52cf8614610163578063715018a61461017f57806373fcf14614610189576100ea565b8063163e88aa146100ef57806328db5a221461010d5780633d23bb961461012b575b600080fd5b6100f7610295565b6040516101049190611794565b60405180910390f35b6101156102bb565b6040516101229190611877565b60405180910390f35b61014560048036038101906101409190611d99565b610313565b005b610161600480360381019061015c9190611e38565b61058e565b005b61017d60048036038101906101789190611e78565b6106b1565b005b610187610a11565b005b6101a3600480360381019061019e9190611e78565b610a25565b005b6101bf60048036038101906101ba9190611f2f565b610cac565b005b6101c9610d0a565b6040516101d69190611fe0565b60405180910390f35b6101e7610d34565b6040516101f49190612017565b60405180910390f35b61021760048036038101906102129190612032565b610d39565b005b610233600480360381019061022e919061208b565b610f64565b6040516102409190611877565b60405180910390f35b610263600480360381019061025e919061210a565b610ffe565b005b61027f600480360381019061027a9190612137565b611081565b60405161028c9190611877565b60405180910390f35b600260009054906101000a900473ffffffffffffffffffffffffffffffffffffffff1681565b6060600380548060200260200160405190810160405280929190818152602001828054801561030957602002820191906000526020600020905b8154815260200190600101908083116102f5575b5050505050905090565b61031b611100565b600073__$9b062ab5c950cf193f582284c7b82e9862$__63defe2c1c856040518263ffffffff1660e01b8152600401610354919061239c565b602060405180830381865af4158015610371573d6000803e3d6000fd5b505050506040513d601f19601f8201168201806040525081019061039591906123d3565b90506000836000600281106103ad576103ac612400565b5b602002015190506000846001600281106103ca576103c9612400565b5b6020020151905060006005600089815260200190815260200160002080546103f19061245e565b80601f016020809104026020016040519081016040528092919081815260200182805461041d9061245e565b801561046a5780601f1061043f5761010080835404028352916020019161046a565b820191906000526020600020905b81548152906001019060200180831161044d57829003601f168201915b50505050509050600073__$3a9a7d4234673457923161741a4caf1fa9$__637161e2e0858560086040518463ffffffff1660e01b81526004016104af939291906124ad565b600060405180830381865af41580156104cc573d6000803e3d6000fd5b505050506040513d6000823e3d601f19601f820116820180604052508101906104f59190612587565b90506000610503838361117e565b90508061054757610514828b6111d7565b61051e828b6106b1565b81600560008c815260200190815260200160002090805190602001906105459291906115b2565b505b7fd5368936c6574d161396839c9c3eecf6366b2caba3110635c5092ceb4c97ca548a888860405161057a93929190612634565b60405180910390a150505050505050505050565b610596611100565b6000816000600281106105ac576105ab612400565b5b602002015190506000826001600281106105c9576105c8612400565b5b602002015190506105d984611249565b600073__$3a9a7d4234673457923161741a4caf1fa9$__637161e2e0848460086040518463ffffffff1660e01b8152600401610617939291906124ad565b600060405180830381865af4158015610634573d6000803e3d6000fd5b505050506040513d6000823e3d601f19601f8201168201806040525081019061065d9190612587565b905061066981866106b1565b6106738582611275565b7ff131f45254d8a96a7bdc8a658fdd1b47b9c38d99ad9f8741a39f3ad8c39d0ee0856040516106a29190612672565b60405180910390a15050505050565b600860ff168251146106c257600080fd5b600082905060005b81518160ff161015610a0b5760006106fd60006001846106ea91906126bc565b60ff16856112a19092919063ffffffff16565b90506000600482604051610711919061272f565b908152602001604051809103902090506000610790826040518060200160405290816000820180548060200260200160405190810160405280929190818152602001828054801561078157602002820191906000526020600020905b81548152602001906001019080831161076d575b505050505081525050876113bf565b905080156107de576107d66040518060400160405280601881526020017f4461746120616c726561647920696e20746865206e6f64650000000000000000815250611422565b5050506109f8565b60008260000180549050036108b357600167ffffffffffffffff811115610808576108076118ef565b5b6040519080825280602002602001820160405280156108365781602001602082028036833780820191505090505b5082600001908051906020019061084e929190611638565b50858260000160008154811061086757610866612400565b5b906000526020600020018190555081600484604051610886919061272f565b908152602001604051809103902060008201816000019080546108aa929190611685565b509050506109f4565b6000600183600001805490506108c99190612746565b67ffffffffffffffff8111156108e2576108e16118ef565b5b6040519080825280602002602001820160405280156109105781602001602082028036833780820191505090505b50905060005b83600001805490508110156109785783600001818154811061093b5761093a612400565b5b906000526020600020015482828151811061095957610958612400565b5b60200260200101818152505080806109709061279c565b915050610916565b50868184600001805490508151811061099457610993612400565b5b602002602001018181525050808360000190805190602001906109b8929190611638565b50826004856040516109ca919061272f565b908152602001604051809103902060008201816000019080546109ee929190611685565b50905050505b5050505b8080610a03906127e4565b9150506106ca565b50505050565b610a19611100565b610a2360006114bb565b565b6000600483604051610a37919061272f565b908152602001604051809103902090506000610ab68260405180602001604052908160008201805480602002602001604051908101604052809291908181526020018280548015610aa757602002820191906000526020600020905b815481526020019060010190808311610a93575b505050505081525050846113bf565b905080610b0257610afb6040518060400160405280601081526020017f44617461206e6f7420696e206e6f646500000000000000000000000000000000815250611422565b5050610ca8565b6001826000018054905003610b4757600484604051610b21919061272f565b908152602001604051809103902060008082016000610b4091906116d7565b5050610ca5565b600060018360000180549050610b5d919061280d565b67ffffffffffffffff811115610b7657610b756118ef565b5b604051908082528060200260200182016040528015610ba45781602001602082028036833780820191505090505b5090506000805b60018560000180549050610bbf919061280d565b811015610c4f5785856000018281548110610bdd57610bdc612400565b5b906000526020600020015414610c3c57846000018181548110610c0357610c02612400565b5b9060005260206000200154838381518110610c2157610c20612400565b5b6020026020010181815250508180610c389061279c565b9250505b8080610c479061279c565b915050610bab565b5081846000019080519060200190610c68929190611638565b5083600487604051610c7a919061272f565b90815260200160405180910390206000820181600001908054610c9e929190611685565b5090505050505b50505b5050565b610cb68482610a25565b610d0483838080601f016020809104026020016040519081016040528093929190818152602001838380828437600081840152601f19601f82011690508083019250505050505050826106b1565b50505050565b6000600160009054906101000a900473ffffffffffffffffffffffffffffffffffffffff16905090565b600881565b610d41611100565b6000600560008381526020019081526020016000208054610d619061245e565b80601f0160208091040260200160405190810160405280929190818152602001828054610d8d9061245e565b8015610dda5780601f10610daf57610100808354040283529160200191610dda565b820191906000526020600020905b815481529060010190602001808311610dbd57829003601f168201915b50505050509050610deb81836111d7565b600160038054905003610e25576003805480610e0a57610e09612841565b5b60019003818190600052602060002001600090559055610f29565b60006001600380549050610e39919061280d565b67ffffffffffffffff811115610e5257610e516118ef565b5b604051908082528060200260200182016040528015610e805781602001602082028036833780820191505090505b5090506000805b6001600380549050610e99919061280d565b811015610f25578460038281548110610eb557610eb4612400565b5b906000526020600020015414610f125760038181548110610ed957610ed8612400565b5b9060005260206000200154838381518110610ef757610ef6612400565b5b6020026020010181815250508180610f0e9061279c565b9250505b8080610f1d9061279c565b915050610e87565b5050505b7fd50f75cf5c87bfa9ed2c8eb5d64d50828b5eaa20bb5fe8530fee4a1c5f3663bb82604051610f589190612672565b60405180910390a15050565b6060600073__$3a9a7d4234673457923161741a4caf1fa9$__637161e2e08686866040518463ffffffff1660e01b8152600401610fa3939291906124ad565b600060405180830381865af4158015610fc0573d6000803e3d6000fd5b505050506040513d6000823e3d601f19601f82011682018060405250810190610fe99190612587565b9050610ff481611081565b9150509392505050565b611006611100565b600073ffffffffffffffffffffffffffffffffffffffff168173ffffffffffffffffffffffffffffffffffffffff1603611075576040517f08c379a000000000000000000000000000000000000000000000000000000000815260040161106c906128e2565b60405180910390fd5b61107e816114bb565b50565b60606000600483604051611095919061272f565b90815260200160405180910390209050806000018054806020026020016040519081016040528092919081815260200182805480156110f357602002820191906000526020600020905b8154815260200190600101908083116110df575b5050505050915050919050565b611108611581565b73ffffffffffffffffffffffffffffffffffffffff16611126610d0a565b73ffffffffffffffffffffffffffffffffffffffff161461117c576040517f08c379a00000000000000000000000000000000000000000000000000000000081526004016111739061294e565b60405180910390fd5b565b600081604051602001611191919061272f565b60405160208183030381529060405280519060200120836040516020016111b8919061272f565b6040516020818303038152906040528051906020012014905092915050565b6000829050600860ff168151146111ed57600080fd5b60005b81518160ff161015611243576000611223600060018461121091906126bc565b60ff16856112a19092919063ffffffff16565b905061122f8185610a25565b50808061123b906127e4565b9150506111f0565b50505050565b600381908060018154018082558091505060019003906000526020600020016000909190919091505550565b8060056000848152602001908152602001600020908051906020019061129c9291906115b2565b505050565b606081601f836112b19190612746565b10156112f2576040517f08c379a00000000000000000000000000000000000000000000000000000000081526004016112e9906129ba565b60405180910390fd5b81836112fe9190612746565b84511015611341576040517f08c379a000000000000000000000000000000000000000000000000000000000815260040161133890612a26565b60405180910390fd5b606082156000811461136257604051915060008252602082016040526113b3565b6040519150601f8416801560200281840101858101878315602002848b0101015b818310156113a05780518352602083019250602081019050611383565b50868552601f19601f8301166040525050505b50809150509392505050565b600080600090505b8360000151518110156114165782846000015182815181106113ec576113eb612400565b5b60200260200101510361140357600191505061141c565b808061140e9061279c565b9150506113c7565b50600090505b92915050565b6114b8816040516024016114369190612a46565b6040516020818303038152906040527f41304fac000000000000000000000000000000000000000000000000000000007bffffffffffffffffffffffffffffffffffffffffffffffffffffffff19166020820180517bffffffffffffffffffffffffffffffffffffffffffffffffffffffff8381831617835250505050611589565b50565b6000600160009054906101000a900473ffffffffffffffffffffffffffffffffffffffff16905081600160006101000a81548173ffffffffffffffffffffffffffffffffffffffff021916908373ffffffffffffffffffffffffffffffffffffffff1602179055508173ffffffffffffffffffffffffffffffffffffffff168173ffffffffffffffffffffffffffffffffffffffff167f8be0079c531659141344cd1fd0a4f28419497f9722a3daafe3b4186f6b6457e060405160405180910390a35050565b600033905090565b60008151905060006a636f6e736f6c652e6c6f679050602083016000808483855afa5050505050565b8280546115be9061245e565b90600052602060002090601f0160209004810192826115e05760008555611627565b82601f106115f957805160ff1916838001178555611627565b82800160010185558215611627579182015b8281111561162657825182559160200191906001019061160b565b5b50905061163491906116f8565b5090565b828054828255906000526020600020908101928215611674579160200282015b82811115611673578251825591602001919060010190611658565b5b50905061168191906116f8565b5090565b8280548282559060005260206000209081019282156116c65760005260206000209182015b828111156116c55782548255916001019190600101906116aa565b5b5090506116d391906116f8565b5090565b50805460008255906000526020600020908101906116f591906116f8565b50565b5b808211156117115760008160009055506001016116f9565b5090565b600073ffffffffffffffffffffffffffffffffffffffff82169050919050565b6000819050919050565b600061175a61175561175084611715565b611735565b611715565b9050919050565b600061176c8261173f565b9050919050565b600061177e82611761565b9050919050565b61178e81611773565b82525050565b60006020820190506117a96000830184611785565b92915050565b600081519050919050565b600082825260208201905092915050565b6000819050602082019050919050565b6000819050919050565b6117ee816117db565b82525050565b600061180083836117e5565b60208301905092915050565b6000602082019050919050565b6000611824826117af565b61182e81856117ba565b9350611839836117cb565b8060005b8381101561186a57815161185188826117f4565b975061185c8361180c565b92505060018101905061183d565b5085935050505092915050565b600060208201905081810360008301526118918184611819565b905092915050565b6000604051905090565b600080fd5b600080fd5b6118b6816117db565b81146118c157600080fd5b50565b6000813590506118d3816118ad565b92915050565b600080fd5b6000601f19601f8301169050919050565b7f4e487b7100000000000000000000000000000000000000000000000000000000600052604160045260246000fd5b611927826118de565b810181811067ffffffffffffffff82111715611946576119456118ef565b5b80604052505050565b6000611959611899565b9050611965828261191e565b919050565b600067ffffffffffffffff821115611985576119846118ef565b5b602082029050602081019050919050565b600080fd5b600067ffffffffffffffff8211156119b6576119b56118ef565b5b602082029050602081019050919050565b600067ffffffffffffffff8211156119e2576119e16118ef565b5b602082029050919050565b6000819050919050565b611a00816119ed565b8114611a0b57600080fd5b50565b600081359050611a1d816119f7565b92915050565b6000611a36611a31846119c7565b61194f565b90508060208402830185811115611a5057611a4f611996565b5b835b81811015611a795780611a658882611a0e565b845260208401935050602081019050611a52565b5050509392505050565b600082601f830112611a9857611a976118d9565b5b6002611aa5848285611a23565b91505092915050565b6000611ac1611abc8461199b565b61194f565b90508083825260208201905060408402830185811115611ae457611ae3611996565b5b835b81811015611b0d5780611af98882611a83565b845260208401935050604081019050611ae6565b5050509392505050565b600082601f830112611b2c57611b2b6118d9565b5b8135611b3c848260208601611aae565b91505092915050565b6000611b58611b538461196a565b61194f565b90508083825260208201905060208402830185811115611b7b57611b7a611996565b5b835b81811015611bc257803567ffffffffffffffff811115611ba057611b9f6118d9565b5b808601611bad8982611b17565b85526020850194505050602081019050611b7d565b5050509392505050565b600082601f830112611be157611be06118d9565b5b8135611bf1848260208601611b45565b91505092915050565b600067ffffffffffffffff821115611c1557611c146118ef565b5b602082029050919050565b60008160070b9050919050565b611c3681611c20565b8114611c4157600080fd5b50565b600081359050611c5381611c2d565b92915050565b6000611c6c611c6784611bfa565b61194f565b90508060208402830185811115611c8657611c85611996565b5b835b81811015611caf5780611c9b8882611c44565b845260208401935050602081019050611c88565b5050509392505050565b600082601f830112611cce57611ccd6118d9565b5b6002611cdb848285611c59565b91505092915050565b600080fd5b600067ffffffffffffffff821115611d0457611d036118ef565b5b611d0d826118de565b9050602081019050919050565b82818337600083830152505050565b6000611d3c611d3784611ce9565b61194f565b905082815260208101848484011115611d5857611d57611ce4565b5b611d63848285611d1a565b509392505050565b600082601f830112611d8057611d7f6118d9565b5b8135611d90848260208601611d29565b91505092915050565b60008060008060a08587031215611db357611db26118a3565b5b6000611dc1878288016118c4565b945050602085013567ffffffffffffffff811115611de257611de16118a8565b5b611dee87828801611bcc565b9350506040611dff87828801611cb9565b925050608085013567ffffffffffffffff811115611e2057611e1f6118a8565b5b611e2c87828801611d6b565b91505092959194509250565b60008060608385031215611e4f57611e4e6118a3565b5b6000611e5d858286016118c4565b9250506020611e6e85828601611cb9565b9150509250929050565b60008060408385031215611e8f57611e8e6118a3565b5b600083013567ffffffffffffffff811115611ead57611eac6118a8565b5b611eb985828601611d6b565b9250506020611eca858286016118c4565b9150509250929050565b600080fd5b60008083601f840112611eef57611eee6118d9565b5b8235905067ffffffffffffffff811115611f0c57611f0b611ed4565b5b602083019150836001820283011115611f2857611f27611996565b5b9250929050565b60008060008060608587031215611f4957611f486118a3565b5b600085013567ffffffffffffffff811115611f6757611f666118a8565b5b611f7387828801611d6b565b945050602085013567ffffffffffffffff811115611f9457611f936118a8565b5b611fa087828801611ed9565b93509350506040611fb3878288016118c4565b91505092959194509250565b6000611fca82611715565b9050919050565b611fda81611fbf565b82525050565b6000602082019050611ff56000830184611fd1565b92915050565b600060ff82169050919050565b61201181611ffb565b82525050565b600060208201905061202c6000830184612008565b92915050565b600060208284031215612048576120476118a3565b5b6000612056848285016118c4565b91505092915050565b61206881611ffb565b811461207357600080fd5b50565b6000813590506120858161205f565b92915050565b6000806000606084860312156120a4576120a36118a3565b5b60006120b286828701611c44565b93505060206120c386828701611c44565b92505060406120d486828701612076565b9150509250925092565b6120e781611fbf565b81146120f257600080fd5b50565b600081359050612104816120de565b92915050565b6000602082840312156121205761211f6118a3565b5b600061212e848285016120f5565b91505092915050565b60006020828403121561214d5761214c6118a3565b5b600082013567ffffffffffffffff81111561216b5761216a6118a8565b5b61217784828501611d6b565b91505092915050565b600081519050919050565b600082825260208201905092915050565b6000819050602082019050919050565b600081519050919050565b600082825260208201905092915050565b6000819050602082019050919050565b600060029050919050565b600081905092915050565b6000819050919050565b612201816119ed565b82525050565b600061221383836121f8565b60208301905092915050565b6000602082019050919050565b612235816121d8565b61223f81846121e3565b925061224a826121ee565b8060005b8381101561227b5781516122628782612207565b965061226d8361221f565b92505060018101905061224e565b505050505050565b600061228f838361222c565b60408301905092915050565b6000602082019050919050565b60006122b3826121ac565b6122bd81856121b7565b93506122c8836121c8565b8060005b838110156122f95781516122e08882612283565b97506122eb8361229b565b9250506001810190506122cc565b5085935050505092915050565b600061231283836122a8565b905092915050565b6000602082019050919050565b600061233282612180565b61233c818561218b565b93508360208202850161234e8561219c565b8060005b8581101561238a578484038952815161236b8582612306565b94506123768361231a565b925060208a01995050600181019050612352565b50829750879550505050505092915050565b600060208201905081810360008301526123b68184612327565b905092915050565b6000815190506123cd816118ad565b92915050565b6000602082840312156123e9576123e86118a3565b5b60006123f7848285016123be565b91505092915050565b7f4e487b7100000000000000000000000000000000000000000000000000000000600052603260045260246000fd5b7f4e487b7100000000000000000000000000000000000000000000000000000000600052602260045260246000fd5b6000600282049050600182168061247657607f821691505b6020821081036124895761248861242f565b5b50919050565b61249881611c20565b82525050565b6124a781611ffb565b82525050565b60006060820190506124c2600083018661248f565b6124cf602083018561248f565b6124dc604083018461249e565b949350505050565b60005b838110156125025780820151818401526020810190506124e7565b83811115612511576000848401525b50505050565b600061252a61252584611ce9565b61194f565b90508281526020810184848401111561254657612545611ce4565b5b6125518482856124e4565b509392505050565b600082601f83011261256e5761256d6118d9565b5b815161257e848260208601612517565b91505092915050565b60006020828403121561259d5761259c6118a3565b5b600082015167ffffffffffffffff8111156125bb576125ba6118a8565b5b6125c784828501612559565b91505092915050565b6125d9816117db565b82525050565b600081519050919050565b600082825260208201905092915050565b6000612606826125df565b61261081856125ea565b93506126208185602086016124e4565b612629816118de565b840191505092915050565b600060608201905061264960008301866125d0565b818103602083015261265b81856125fb565b905061266a60408301846125d0565b949350505050565b600060208201905061268760008301846125d0565b92915050565b7f4e487b7100000000000000000000000000000000000000000000000000000000600052601160045260246000fd5b60006126c782611ffb565b91506126d283611ffb565b92508260ff038211156126e8576126e761268d565b5b828201905092915050565b600081905092915050565b6000612709826125df565b61271381856126f3565b93506127238185602086016124e4565b80840191505092915050565b600061273b82846126fe565b915081905092915050565b6000612751826117db565b915061275c836117db565b9250827fffffffffffffffffffffffffffffffffffffffffffffffffffffffffffffffff038211156127915761279061268d565b5b828201905092915050565b60006127a7826117db565b91507fffffffffffffffffffffffffffffffffffffffffffffffffffffffffffffffff82036127d9576127d861268d565b5b600182019050919050565b60006127ef82611ffb565b915060ff82036128025761280161268d565b5b600182019050919050565b6000612818826117db565b9150612823836117db565b9250828210156128365761283561268d565b5b828203905092915050565b7f4e487b7100000000000000000000000000000000000000000000000000000000600052603160045260246000fd5b7f4f776e61626c653a206e6577206f776e657220697320746865207a65726f206160008201527f6464726573730000000000000000000000000000000000000000000000000000602082015250565b60006128cc6026836125ea565b91506128d782612870565b604082019050919050565b600060208201905081810360008301526128fb816128bf565b9050919050565b7f4f776e61626c653a2063616c6c6572206973206e6f7420746865206f776e6572600082015250565b60006129386020836125ea565b915061294382612902565b602082019050919050565b600060208201905081810360008301526129678161292b565b9050919050565b7f736c6963655f6f766572666c6f77000000000000000000000000000000000000600082015250565b60006129a4600e836125ea565b91506129af8261296e565b602082019050919050565b600060208201905081810360008301526129d381612997565b9050919050565b7f736c6963655f6f75744f66426f756e6473000000000000000000000000000000600082015250565b6000612a106011836125ea565b9150612a1b826129da565b602082019050919050565b60006020820190508181036000830152612a3f81612a03565b9050919050565b60006020820190508181036000830152612a6081846125fb565b90509291505056fea264697066735822122029de39d353fa054e6bd439e5bfd1cbab2002b055cf7c305438015b8245558d6c64736f6c634300080d0033",
  "libraries": {
    "AreaCalculation": "0xE4a658B83aF78f76D1231370ce417f3b61c61181",
    "GeohashUtils": "0x1ef62ad49E30dc0f0C0f1c692Aa468B902c64E63",
    "Trigonometry": "0x5c82AEeaB2DCADB3aA6F8AD9318C1A3940B13bac"
  },
  "devdoc": {
    "kind": "dev",
    "methods": {
      "addToGeotree(string,uint256)": {
        "params": {
          "_data": "the uint data",
          "_geohash": "the geohash"
        }
      },
      "getAllGeoNFTs()": {
        "returns": {
          "geoNFTsArray": "Array of all registered token IDs"
        }
      },
      "getFromGeotree(string)": {
        "params": {
          "_geohash": "the geohash"
        }
      },
      "owner()": {
        "details": "Returns the address of the current owner."
      },
      "queryGeoNFTsByLatLng(int64,int64,uint8)": {
        "params": {
          "_latitude": "Latitude",
          "_longitude": "Longitude",
          "_precision": "Precision level of the geohash searching"
        },
        "returns": {
          "_0": "geoNFTsArray Array of all registered token IDs"
        }
      },
      "registerGeoNFT(uint256,int64[2])": {
        "params": {
          "_centroid": "Centroid of the polygon passed as [latitude, longitude]",
          "_tokenId": "the index of the GeoNFT to register"
        }
      },
      "removeFromGeotree(string,uint256)": {
        "params": {
          "_data": "the uint data",
          "_geohash": "geohash"
        }
      },
      "renounceOwnership()": {
        "details": "Leaves the contract without owner. It will not be possible to call `onlyOwner` functions anymore. Can only be called by the current owner. NOTE: Renouncing ownership will leave the contract without an owner, thereby removing any functionality that is only available to the owner."
      },
      "transferOwnership(address)": {
        "details": "Transfers ownership of the contract to a new account (`newOwner`). Can only be called by the current owner."
      },
      "unregisterGeoNFT(uint256)": {
        "params": {
          "_tokenId": "the index of the GeoNFT to unregister"
        }
      },
      "updateGeoNFTTopology(uint256,int256[2][][],int64[2],string)": {
        "params": {
          "_coordinates": "Array of polygon rings",
          "_geojson": "Strigified geojson of the new topology",
          "_tokenId": "The index of the GeoNFT to update"
        }
      },
      "updateGeotree(string,string,uint256)": {
        "params": {
          "_data": "the uint data",
          "_formergeohash": "the former geohash",
          "_newgeohash": "the new geohash"
        }
      }
    },
    "version": 1
  },
  "userdoc": {
    "kind": "user",
    "methods": {
      "addToGeotree(string,uint256)": {
        "notice": "Add uint data by geohash to its relative subtree"
      },
      "constructor": {
        "notice": "Set up the Spatial Data Registry and prepopulate initial values"
      },
      "getAllGeoNFTs()": {
        "notice": "Return all the GeoNFT ids in the registry"
      },
      "getFromGeotree(string)": {
        "notice": "Get a data by geohash"
      },
      "queryGeoNFTsByLatLng(int64,int64,uint8)": {
        "notice": "Query registry by latitude, longitude and geohash depth level"
      },
      "registerGeoNFT(uint256,int64[2])": {
        "notice": "Register a GeoNFT in the Spatial Data Registry"
      },
      "removeFromGeotree(string,uint256)": {
        "notice": "Remove data from node with specified geohash"
      },
      "unregisterGeoNFT(uint256)": {
        "notice": "Unregister a GeoNFT from the Spatial Data Registry"
      },
      "updateGeoNFTTopology(uint256,int256[2][][],int64[2],string)": {
        "notice": "Update the topology of the GeoNFT"
      },
      "updateGeotree(string,string,uint256)": {
        "notice": "Update geohash"
      }
    },
    "version": 1
  },
  "storageLayout": {
    "storage": [
      {
        "astId": 123,
        "contract": "contracts/SDRegistry.sol:SDRegistry",
        "label": "_status",
        "offset": 0,
        "slot": "0",
        "type": "t_uint256"
      },
      {
        "astId": 7,
        "contract": "contracts/SDRegistry.sol:SDRegistry",
        "label": "_owner",
        "offset": 0,
        "slot": "1",
        "type": "t_address"
      },
      {
        "astId": 2769,
        "contract": "contracts/SDRegistry.sol:SDRegistry",
        "label": "geoNFT",
        "offset": 0,
        "slot": "2",
        "type": "t_contract(GeoNFT)2745"
      },
      {
        "astId": 2775,
        "contract": "contracts/SDRegistry.sol:SDRegistry",
        "label": "tokenArray",
        "offset": 0,
        "slot": "3",
        "type": "t_array(t_uint256)dyn_storage"
      },
      {
        "astId": 2784,
        "contract": "contracts/SDRegistry.sol:SDRegistry",
        "label": "geotree",
        "offset": 0,
        "slot": "4",
        "type": "t_mapping(t_string_memory_ptr,t_struct(Node)2779_storage)"
      },
      {
        "astId": 2788,
        "contract": "contracts/SDRegistry.sol:SDRegistry",
        "label": "tokenGeohash",
        "offset": 0,
        "slot": "5",
        "type": "t_mapping(t_uint256,t_string_storage)"
      }
    ],
    "types": {
      "t_address": {
        "encoding": "inplace",
        "label": "address",
        "numberOfBytes": "20"
      },
      "t_array(t_uint256)dyn_storage": {
        "base": "t_uint256",
        "encoding": "dynamic_array",
        "label": "uint256[]",
        "numberOfBytes": "32"
      },
      "t_contract(GeoNFT)2745": {
        "encoding": "inplace",
        "label": "contract GeoNFT",
        "numberOfBytes": "20"
      },
      "t_mapping(t_string_memory_ptr,t_struct(Node)2779_storage)": {
        "encoding": "mapping",
        "key": "t_string_memory_ptr",
        "label": "mapping(string => struct SDRegistry.Node)",
        "numberOfBytes": "32",
        "value": "t_struct(Node)2779_storage"
      },
      "t_mapping(t_uint256,t_string_storage)": {
        "encoding": "mapping",
        "key": "t_uint256",
        "label": "mapping(uint256 => string)",
        "numberOfBytes": "32",
        "value": "t_string_storage"
      },
      "t_string_memory_ptr": {
        "encoding": "bytes",
        "label": "string",
        "numberOfBytes": "32"
      },
      "t_string_storage": {
        "encoding": "bytes",
        "label": "string",
        "numberOfBytes": "32"
      },
      "t_struct(Node)2779_storage": {
        "encoding": "inplace",
        "label": "struct SDRegistry.Node",
        "members": [
          {
            "astId": 2778,
            "contract": "contracts/SDRegistry.sol:SDRegistry",
            "label": "data",
            "offset": 0,
            "slot": "0",
            "type": "t_array(t_uint256)dyn_storage"
          }
        ],
        "numberOfBytes": "32"
      },
      "t_uint256": {
        "encoding": "inplace",
        "label": "uint256",
        "numberOfBytes": "32"
      }
    }
  }
}