{
  "address": "0x5c82AEeaB2DCADB3aA6F8AD9318C1A3940B13bac",
  "abi": [
    {
      "inputs": [
        {
          "internalType": "uint256",
          "name": "_angle",
          "type": "uint256"
        }
      ],
      "name": "sin",
      "outputs": [
        {
          "internalType": "int256",
          "name": "",
          "type": "int256"
        }
      ],
      "stateMutability": "pure",
      "type": "function"
    }
  ],
  "transactionHash": "0xb970cc53e7eddee28bbff9fc609fcfacc84657bf3b36c05ac2e9059b3a1bb74e",
  "args": [],
  "numDeployments": 1,
  "solcInputHash": "68426a560eaecbef1f3ea51cb3cb6807",
  "bytecode": "0x610c63610053600b82828239805160001a607314610046577f4e487b7100000000000000000000000000000000000000000000000000000000600052600060045260246000fd5b30600052607381538281f3fe73000000000000000000000000000000000000000030146080604052600436106100355760003560e01c8063cb5cc1091461003a575b600080fd5b610054600480360381019061004f9190610298565b61006a565b60405161006191906102de565b60405180910390f35b600080610091836010806008601c6100829190610328565b61008c9190610328565b6101cc565b905060006100ad84600880601c6100a89190610328565b6101cc565b9050600080631000000063ffffffff168616149050600080632000000063ffffffff16871614159050816100f8578260016101006100eb9190610328565b6100f59190610328565b92505b600061010384610209565b63ffffffff169050600061012260018661011d919061035c565b610209565b63ffffffff16905060006010600261013a91906104e5565b8784846101479190610328565b6101519190610530565b61015b91906105b9565b90506000851561017857818461017191906105ea565b9050610187565b8183610184919061067e565b90505b84156101bc577fffffffffffffffffffffffffffffffffffffffffffffffffffffffffffffffff816101b99190610712565b90505b8098505050505050505050919050565b600060018360026101dd91906104e5565b6101e79190610328565b8260026101f491906104e5565b856101ff91906105b9565b1690509392505050565b600080604051806104400160405280610404815260200161082a610404913990506000600460ff1660018561023e919061035c565b6102489190610530565b90506000818301519050809350505050919050565b600080fd5b6000819050919050565b61027581610262565b811461028057600080fd5b50565b6000813590506102928161026c565b92915050565b6000602082840312156102ae576102ad61025d565b5b60006102bc84828501610283565b91505092915050565b6000819050919050565b6102d8816102c5565b82525050565b60006020820190506102f360008301846102cf565b92915050565b7f4e487b7100000000000000000000000000000000000000000000000000000000600052601160045260246000fd5b600061033382610262565b915061033e83610262565b925082821015610351576103506102f9565b5b828203905092915050565b600061036782610262565b915061037283610262565b9250827fffffffffffffffffffffffffffffffffffffffffffffffffffffffffffffffff038211156103a7576103a66102f9565b5b828201905092915050565b60008160011c9050919050565b6000808291508390505b6001851115610409578086048111156103e5576103e46102f9565b5b60018516156103f45780820291505b8081029050610402856103b2565b94506103c9565b94509492505050565b60008261042257600190506104de565b8161043057600090506104de565b816001811461044657600281146104505761047f565b60019150506104de565b60ff841115610462576104616102f9565b5b8360020a915084821115610479576104786102f9565b5b506104de565b5060208310610133831016604e8410600b84101617156104b45782820a9050838111156104af576104ae6102f9565b5b6104de565b6104c184848460016103bf565b925090508184048111156104d8576104d76102f9565b5b81810290505b9392505050565b60006104f082610262565b91506104fb83610262565b92506105287fffffffffffffffffffffffffffffffffffffffffffffffffffffffffffffffff8484610412565b905092915050565b600061053b82610262565b915061054683610262565b9250817fffffffffffffffffffffffffffffffffffffffffffffffffffffffffffffffff048311821515161561057f5761057e6102f9565b5b828202905092915050565b7f4e487b7100000000000000000000000000000000000000000000000000000000600052601260045260246000fd5b60006105c482610262565b91506105cf83610262565b9250826105df576105de61058a565b5b828204905092915050565b60006105f5826102c5565b9150610600836102c5565b9250817f7fffffffffffffffffffffffffffffffffffffffffffffffffffffffffffffff0383136000831215161561063b5761063a6102f9565b5b817f8000000000000000000000000000000000000000000000000000000000000000038312600083121615610673576106726102f9565b5b828201905092915050565b6000610689826102c5565b9150610694836102c5565b9250827f8000000000000000000000000000000000000000000000000000000000000000018212600084121516156106cf576106ce6102f9565b5b827f7fffffffffffffffffffffffffffffffffffffffffffffffffffffffffffffff018213600084121615610707576107066102f9565b5b828203905092915050565b600061071d826102c5565b9150610728836102c5565b9250827f7fffffffffffffffffffffffffffffffffffffffffffffffffffffffffffffff0482116000841360008413161615610767576107666102f9565b5b817f800000000000000000000000000000000000000000000000000000000000000005831260008412600084131616156107a4576107a36102f9565b5b827f800000000000000000000000000000000000000000000000000000000000000005821260008413600084121616156107e1576107e06102f9565b5b827f7fffffffffffffffffffffffffffffffffffffffffffffffffffffffffffffff058212600084126000841216161561081e5761081d6102f9565b5b82820290509291505056fe0000000000c90f8801921d20025b26d703242abf03ed26e604b6195d057f00350647d97c0710a34507d95b9e08a2009a096a90490a3308bc0afb68050bc3ac350c8bd35e0d53db920e1bc2e40ee387660fab272b1072a0481139f0cf120116d512c8106e138edbb1145576b1151bdf8515e2144416a81305176dd9de183366e818f8b83c19bdcbf31a82a0251b4732ef1c0b826a1ccf8cb31d934fe51e56ca1e1f19f97b1fdcdc1b209f701c2161b39f2223a4c522e541af23a6887e2467775725280c5d25e845b626a8218527679df42826b92828e5714a29a3c4852a61b1012b1f34eb2bdc4e6f2c98fbba2d553afb2e110a622ecc681e2f8752623041c76030fbc54d31b54a5d326e54c73326e2c233def2873496824f354d905636041ad936ba2013376f9e46382493b038d8fe93398cdd323a402dd13af2eeb73ba51e293c56ba703d07c1d53db832a53e680b2c3f1749b73fc5ec974073f21d4121589a41ce1e64427a41d04325c13543d09aec447acd50452456bc45cd358f46756827471cece647c3c22e4869e664490f57ee49b415334a581c9d4afb6c974b9e038f4c3fdff34ce100344d8162c34e2106174ebfe8a44f5e08e24ffb654c5097fc5e5133cc9451ced46e5269126e53028517539b2aef5433027d54ca0a4a556040e255f5a4d2568a34a9571deef957b0d2555842dd5458d40e8c5964649759f3de125a8279995b1035ce5b9d11535c290acc5cb420df5d3e52365dc79d7b5e50015d5ed77c895f5e0db25fe3b38d60686cce60ec382f616f146b61f1003e6271fa6862f201ac637114cc63ef328f646c59bf64e889256563bf9165ddfbd266573cbb66cf811f6746c7d767bd0fbc683257aa68a69e806919e31f698c246b69fd614a6a6d98a36adcc9646b4af2786bb812d06c24295f6c8f351b6cf934fb6d6227f96dca0d146e30e3496e96a99c6efb5f116f5f02b16fc1938470231099708378fe70e2cbc571410804719e2cd171fa394872552c8472af05a67307c3cf735f662573b5ebd0740b53fa745f9dd074b2c8837504d3447555bd4b75a585ce75f42c0a7641af3c768e0ea576d9498877235f2c776c4eda77b417df77fab988784033287884841378c7aba17909a92c794a7c11798a23b079c89f6d7a05eeac7a4210d87a7d055a7ab6cba37aef63237b26cb4e7b5d039d7b920b887bc5e28f7bf8882f7c29fbed7c5a3d4f7c894bdd7cb727237ce3ceb17d0f42177d3980eb7d628ac57d8a5f3f7db0fdf77dd6668e7dfa98a77e1d93e97e3f57fe7e5fe4927e7f39567e9d55fb7eba3a387ed5e5c57ef0585f7f0991c37f2191b37f3857f57f4de4507f62368e7f754e7f7f872bf27f97cebc7fa736b37fb563b27fc255957fce0c3d7fd8878d7fe1c76a7fe9cbbf7ff094777ff621817ffa72d07ffd88597fff62157fffffffa264697066735822122093e1d67b33d2f66efdddad6e469d54c40376391aae0e6de0a53d7da9161f8a6964736f6c634300080d0033",
  "devdoc": {
    "author": "Daniel Serrano",
    "kind": "dev",
    "methods": {
      "sin(uint256)": {
        "params": {
          "_angle": "A 30-bit angle. This divides the circle into 1073741824     angle units, instead of the standard 360 degrees."
        },
        "returns": {
          "_0": "The sine result as a number in the range -2147483647 to 2147483647."
        }
      }
    },
    "version": 1
  },
  "userdoc": {
    "kind": "user",
    "methods": {
      "sin(uint256)": {
        "notice": "Return the sine of an integer approximated angle as a signed 16-bit integer."
      }
    },
    "notice": "SPDX-Licenses-Identifier: MIT Basic trigonometry functions Based on the Trigonometry Library by Lefteris Karapetsas: https://github.com/Sikorkaio/sikorka/blob/master/contracts/trigonometry.sol  This version implements a 32-bit lookup tables instead of a 16-bit. This allows accurate topological operations on small areas with very close coordinates.",
    "version": 1
  },
  "storageLayout": {
    "storage": [],
    "types": null
  }
}